:020000040800F2
:1000000060060020A9010008B3130008AB12000825
:10001000B1130008B50200084117000800000000F5
:10002000000000000000000000000000251500088E
:10003000B702000800000000B513000827150008EB
:10004000C3010008C3010008C3010008C301000880
:10005000C3010008C3010008C3010008C301000870
:10006000C3010008C3010008C3010008C301000860
:10007000C3010008C3010008C3010008C301000850
:10008000C3010008C3010008C3010008000000000C
:10009000000000000000000000000000C301000894
:1000A000C3010008C3010008C3010008C301000820
:1000B000C3010008C3010008C3010008C301000810
:1000C000C3010008C3010008C3010008C301000800
:1000D000C3010008C3010008C301000800000000BC
:1000E000C3010008C3010008C301000800000000AC
:1000F000000000000000000000000000C301000834
:1001000000000000C3010008C3010008C30100088B
:1001100000000000000000000000000000000000DF
:10012000C3010008C3010008C3010008C30100089F
:10013000C3010008000000000000000000000000F3
:10014000000000000000000000000000C3010008E3
:10015000C3010008C3010008C3010008C30100086F
:10016000C3010008C30100080000000000000000F7
:10017000000000000000000000000000000000007F
:1001800000000000C30100080000000000000000A3
:10019000C3010008DFF80CD000F07AF800480047EF
:1001A000FD210008600600200648804706480047F9
:1001B000FEE7FEE7FEE7FEE7FEE7FEE7FEE7FEE717
:1001C000FEE7FEE7C1150008950100082DE9F05F84
:1001D0000546002092469B468846064681464024B6
:1001E0001BE0284641464746224600F041F8534668
:1001F0005A46C01A914110D311461846224600F0C3
:1002000028F82D1A67EB01084F46224601200021ED
:1002100000F01FF817EB00094E41201EA4F1010465
:10022000DFDC484631462A464346BDE8F09FD2B25D
:1002300001E000F8012B491EFBD270470022F6E7CF
:1002400010B513460A4604461946FFF7F0FF20464C
:1002500010BD202A04DB203A00FA02F1002070478A
:100260009140C2F1200320FA03F3194390407047F4
:10027000202A04DB203A21FA02F00021704721FAFB
:1002800002F3D040C2F12002914008431946704762
:10029000064C074D06E0E06840F0010394E80700D3
:1002A00098471034AC42F6D3FFF778FFE8230008F4
:1002B00008240008FEE7704770B5044600F00AF90C
:1002C0000546601C02D004480078044400F002F99E
:1002D000401BA042FAD370BD080000202DE9F84F62
:1002E000DFF8B4A1002201240AF1040B03254FF02A
:1002F0000F090BF1040E00BF0B6804FA02F633403D
:10030000B34272D10F7907F00307012F01D0022FFA
:1003100016D187684FEA420805FA08FC27EA0C075D
:10032000D1F80CC00CFA08FC4CEA070CC0F808C065
:100330004768B7430E79C6F3001696403E434660C1
:100340000E79F643B6070DD0C768560005FA06FCCD
:1003500027EA0C07D1F808C00CFA06FC4CEA070C97
:10036000C0F80CC00E7906F00306022E10D1D60894
:1003700000EB8608D8F8206057074FEAD76C09FAD7
:100380000CF7BE430F6907FA0CF73743C8F8207023
:1003900006684FEA420C05FA0CF7BE430F7907F0E6
:1003A000030707FA0CF7374307604E68F6006DD570
:1003B0003A4E376847F480473760366822F00307C3
:1003C00006F480460096364E07EB060CDCF808680B
:1003D00097073F0F09FA07F826EA0806DFF8C480F6
:1003E000404503D14FF000081EE04FE0DFF8B88031
:1003F000404502D14FF0010816E0DFF8B0804045DB
:1004000002D14FF002080FE0DFF8A480404502D18E
:100410004FF0030808E0DFF89C80404502D14FF020
:10042000040801E04FF0070808FA07F848EA060850
:10043000CCF80888DAF800605746D1F804C09E432B
:100440005FEACC3C00D51E433E60DBF800605F46AF
:10045000D1F804C09E435FEA8C3C00D51E433E6049
:10046000DEF800607746D1F804C09E435FEACC2CEA
:1004700000D51E433E60084F0C373E68D1F804C0DB
:100480009E435FEA8C2C00D51E433E60521C102A0E
:10049000FFF432AFBDE8F88F003C01404438024021
:1004A0000030014000000240000402400008024009
:1004B000000C024000100240426921EA02030A4097
:1004C00043EA0241816170470AB1816170470904C2
:1004D000FBE700000148806870470000080000202A
:1004E000024881680278114481607047080000204A
:1004F0000B4810B5016841F400710160016841F4D6
:1005000080610160016841F480710160032000F0A6
:1005100061F8002000F006F800F024F8002010BD7B
:10052000003C024070B50D4D04464FF47A712878B6
:10053000B1FBF0F00A490968B1FBF0F000F0E1FD11
:1005400048B9102C07D200222146501E00F022F894
:1005500000206C6070BD012070BD0000080000200C
:10056000140000200A4808B5016841F48041016088
:10057000006800F4804000900548001F016841F0C9
:1005800080510160006800F08050009008BD0000BC
:1005900044380240F0B40E4B1B680C46C3F30223F0
:1005A000C3F10705042D00D90425191D072901D21F
:1005B000002300E0DB1E012606FA05F1491E21405A
:1005C00099409E40761E16403143F0BC01F0C0BBFE
:1005D0000CED00E0064900F0070208684FF6FF0343
:1005E000184040EA0220034A1043086070470000A8
:1005F0000CED00E00000FA052DE9F0470E4605007D
:1006000065D0DFF81481D8F80000F7B200F00700D9
:10061000B04207D288F80070D8F8000000F0070058
:10062000B04254D128683D4C810712D5400703D50C
:10063000206840F4E05020602878000703D5206847
:1006400040F4604020602068A96820F0F000084372
:1006500020602878C0072DD0304968680839012803
:1006600012D0022813D0032811D009688907002965
:100670002DDA216821F0030101432160FFF72AFFF1
:10068000814641F2883A0EE009688903EFE709687C
:100690008901ECE7FFF71EFFA0EB0901514502D9E4
:1006A0000320BDE8F0872068696800F00C00B0EB1B
:1006B000810FEFD1D8F80010404601F00701B14298
:1006C00007D90770006800F00700B04201D0012090
:1006D000E7E72878400705D52068E96820F4E0506E
:1006E000084320602878000706D52068296920F48F
:1006F000604040EAC100206000F038F82168084AF4
:10070000C1F30311515CC8400649086006480068FF
:10071000FFF708FF0020C4E7003C02400838024011
:10072000D0230008140000200C00002004480549D4
:1007300000680968044AC1F38221515CC8407047CF
:100740001400002008380240E0230008044805494E
:1007500000680968044AC1F34231515CC8407047DF
:100760001400002008380240E0230008154810B5A6
:10077000006810F00C02144813D04110042A0FD066
:10078000082A0ED10F4C241F2268236802F03F0272
:100790005B0207D52068C0F38810A0FB010106E0CA
:1007A000084610BD2168C1F38811A1FB0001002398
:1007B000FFF70CFD2168C1F30141491C4900B0FB62
:1007C000F1F010BD083802400024F4002DE9F84F84
:1007D00004006ED02078DFF84C93C007A9F104051F
:1007E0004AD009F104000168C1F38101012908D050
:1007F0000068C0F3810002280AD1D9F80000400245
:1008000006D52868800337D560680028E1D033E03A
:100810006068B0F5803F10D0B0F5A02F286810D0E8
:1008200020F480302860286820F4802028606068E8
:10083000A8B1FFF74FFE06460DE0286840F480306F
:10084000F4E740F480202860F7E700BFFFF742FE9E
:10085000801B642873D828688003F7D50CE0FFF765
:1008600039FE064605E000BFFFF734FE801B642812
:10087000F0D828688003F7D42078DFF8AC828007AE
:100880004FF0000A3ED5A748001D016811F00C0F7B
:1008900008D00068C0F3810002280BD1D9F800000D
:1008A000400207D42868800716D5E068012800D1E7
:1008B00012E033E1E068B8B10120C8F80000FFF7AA
:1008C00009FE064605E000BFFFF704FE801B022874
:1008D000C0D828688007F7D52868216920F0F8007B
:1008E00040EAC10028600DE0C8F800A0FFF7F2FD63
:1008F000064604E0FFF7EEFD801B02281FD828689B
:100900008007F7D42078000722D5864F8748616991
:10091000703771B101210160FFF7DCFD064604E08C
:10092000FFF7D8FD801B022809D838688007F7D563
:100930000EE0C0F800A0FFF7CDFD064605E082E01E
:10094000FFF7C8FD801B02287DD838688007F7D4E0
:100950002078400768D5DFF8CCB100270BF13C0BBD
:10096000DBF80000C0000BD4DBF8001041F0805130
:10097000CBF80010DBF80000012700F08050009059
:100980006B4E3068C00510D4306840F48070306021
:10099000FFF7A0FD009005E0FFF79CFD0099401ACD
:1009A000022850D83068C005F6D55E4EA0686C3677
:1009B00001280FD00528306810D020F001003060E9
:1009C000306820F004003060A068B8B1FFF782FD05
:1009D00000900FE0306840F00100F4E740F00400C0
:1009E0003060F7E7FFF776FD0099411A41F2883051
:1009F000814266D830688007F4D50EE0FFF76AFDC3
:100A0000009007E0FFF766FD0099411A41F2883037
:100A1000814256D830688007F4D42FB1DBF800103B
:100A200021F08051CBF80010A069C8B33D49091DE1
:100A30000968C1F3810102294AD00228504607D033
:100A4000C8F8600000E03CE0FFF744FD04463BE0EE
:100A50004746C8F86000FFF73DFD064605E000BFC9
:100A6000FFF738FD801B02282BD828688001F7D4B7
:100A7000D4E907010843A16A2E4A490802EB014163
:100A8000626A41EA8211084394F82C1040EA01613D
:100A9000C9F8001001203866FFF71CFD044606E087
:100AA0003EE000BFFFF716FD001B022809D82868AA
:100AB0008001F7D534E000BFFFF70CFD001B0228D2
:100AC00002D90320BDE8F88F28688001F4D427E01C
:100AD0000128F7D0D9F80000E26900F480019142C2
:100AE0001CD1226A00F03F01914217D147F6C07134
:100AF000626A0140B1EB821F10D1A26A4FF0FF334E
:100B000000F4403103EB5202B1EB024F06D194F8EE
:100B10002C1000F07060B0EB016F01D00120D1E724
:100B20000020CFE70438024000004742800E4742D1
:100B3000007000400000FFFF70B5040009D0606A3B
:100B4000002540B125616561A56294F8510040B16E
:100B50000CE0012070BD6068B0F5827FF4D0E561E3
:100B6000F2E784F85050204600F044F8022084F860
:100B700051002068016821F040010160A0882189AE
:100B800000F4827001F404410843A18901F400617A
:100B90000843217C01F002010843217D01F001019D
:100BA0000843218B01F400710843217F01F03801D3
:100BB000084394F8201001F080010843218D01F4CE
:100BC0000051084321680860A069042101EA10402F
:100BD00094F8241001F0100108432168486020684F
:100BE000C16921F40061C1616565012084F851008B
:100BF000002070BD10B586B0044614216846FFF78A
:100C00001DFB14492068884221D113480021026845
:100C100042F480420260006800F4804005900E4873
:100C20001038026842F002020260006800F0020020
:100C300005904FF4604000900220CDE901010320AF
:100C400003900520049069460448FFF747FB06B06F
:100C500010BD00000038004040380240000402404F
:100C60002DE9F84F044640680025984616460F4681
:100C70004FF0040BB0F5827F01D1A06888B194F8E1
:100C80005000012818D0012084F85000FFF722FC02
:100C9000814694F851004FF0000A01280ED0022539
:100CA00082E084F851B013460A462046CDF8008011
:100CB00000F036F9BDE8F88F0220FBE7002F72D074
:100CC000002E70D084F851B0C4F854A0A763A68752
:100CD000E687C4F830A0A4F834A0A4F836A0C4F87D
:100CE00040A0C4F844A0A068B0F5004F09D1206826
:100CF000016821F0400101602068016821F4804111
:100D0000016020680168490603D4016841F0400190
:100D10000160E068D8B139E020688168C90709D06E
:100D2000007BA16B0870A06B401CA063E08F401E8D
:100D3000E0870CE0FFF7CEFBA0EB0901414503D3B0
:100D4000B8F1FF3F03D036E0B8F1000F33D0E08FA9
:100D50000028E1D11DE020688168C90709D0C0687A
:100D6000A16B0880A06B801CA063E08F401EE08711
:100D70000CE0FFF7AFFBA0EB0901414503D3B8F14D
:100D8000FF3F03D017E0B8F1000F14D0E08F002828
:100D9000E1D14A464146204600F00DFB08B1202033
:100DA0006065606D00B10125012084F8510084F870
:100DB00050A028467EE70325F6E72DE9F84F0446C4
:100DC00090F8500000271D461646894601280DD090
:100DD0004FF0010B84F850B0FFF77CFB804694F88D
:100DE0005100BA46012804D0022793E00220BDE852
:100DF000F88FB9F1000F73D0002E71D0032084F862
:100E00005100C4F854A0C4F83090A686E686C4F811
:100E100038A0A4F83CA0A4F83EA0C4F844A0C4F8AC
:100E200040A0A068B0F5004F09D12068016821F00A
:100E3000400101602068016841F480410160206840
:100E40000168490603D4016841F040010160E0688F
:100E5000B0F5006F606803D030B3012E24D041E0BC
:100E600008B1012E1CD1206B21680088C86006E003
:100E700020688168890709D5216B0988C160206BCA
:100E8000801C2063E08E401EE08609E0FFF722FB15
:100E9000A0EB0800A84202D3681C01D031E07DB36A
:100EA000E08E0028E4D120E0206B216800780873F0
:100EB00006E020688168890709D5216B09780173EC
:100EC000206B401C2063E08E401EE0860AE0FFF7A6
:100ED00001FBA0EB0800A84203D3681C02D010E07D
:100EE00017E06DB1E08E0028E3D142462946204646
:100EF00000F090FA08B120206065A06818B106E003
:100F0000FFE7032706E02068C16880680090606DF5
:100F100000B1012784F851B084F850A0384666E744
:100F20002DE9F84F044690F8500000270A9E1D4610
:100F300092468B464FF0010901280ED0012084F81B
:100F40005000FFF7C7FA804694F851006168012805
:100F50000CD0B1F5827F07D102E00220BDE8F88F06
:100F6000A16809B9042801D00227C2E0BBF1000F33
:100F700027D0BAF1000F24D01DB394F851000428F3
:100F800002D0052084F8510000206065C4F838A024
:100F9000E587A587C4F830B0E586A586206460643F
:100FA00020680168490603D4016841F040010160EE
:100FB000E068B0F5006F606805D0E8B3012D46D059
:100FC0007FE0012795E008B1012D39D1206B216820
:100FD0000088C860206B801C2063E08E401EE08685
:100FE0002EE02068816889070FD5E18E69B1B9F1DB
:100FF000010F0AD1216B0988C160206B801C20631E
:10100000E08E401EE0864FF0000920688168C90725
:101010000CD0E18F51B1C068A16B0880A06B801C1F
:10102000A063E08F401EE0874FF00109FFF752FAFE
:10103000A0EB0800B04200E009E001D3701C50D1E1
:10104000E08E0028CDD1E08F0028CAD13FE0206B90
:10105000216800780873206B401C2063E08E401EDE
:10106000E0862EE02068816889070FD5E18E69B19E
:10107000B9F1010F0AD1216B09780173206B401C73
:101080002063E08E401EE0864FF0000920688168F2
:10109000C9070CD0E18F51B1C068A16B0870A06B7B
:1010A000401CA063E08F401EE0874FF00109FFF76E
:1010B00011FAA0EB0800B04202D3701C01D010E07E
:1010C0007EB1E08E0028CDD1E08F0028CAD1424603
:1010D0003146204600F09EF928B1012720206065A6
:1010E00007E0032705E0A06818B92068C168806898
:1010F0000090012084F85100002084F85000384608
:101100002CE710B5401EB0F1807F01D3012010BD47
:101110004FF0E02460610F21601700F019FE0020FD
:10112000A06107202061002010BD70B5040004D02C
:1011300094F83D00002510B106E0012070BD84F850
:101140003C50204600F022F8242084F83D0020681E
:10115000C16821F40051C160204600F039FA2068CE
:10116000016921F4904101612068416921F02A015F
:1011700041612068C16841F40051C16025642020AC
:1011800084F83D0084F83E00002070BD10B586B0A4
:10119000044614216846FFF751F814492068884234
:1011A00021D113480021026842F010020260006859
:1011B00000F0100005900E481438026842F0010259
:1011C0000260006800F0010005904FF4C0600090DC
:1011D0000220CDE901010320039007200490694615
:1011E0000448FFF77BF806B010BD00000010014076
:1011F00044380240000002402DE9F843044690F8CC
:101200003D001F4616460D4620284CD1C5B1BEB143
:1012100094F83C00012846D0012084F83C004FF0AF
:101220000008C4F84080212084F83D00FFF752F9FF
:10123000A6848146E684A068B0F5805F03D004E010
:101240000120BDE8F883206928B12E465FF0000533
:1012500084F83C800EE00026FAE78021204600F06A
:101260003DFAA0B9AEB116F8010B21684860E08CD8
:10127000401EE084E08C4B464FF0000200970028AF
:10128000EBD14FF04001204600F028FA30B10320A6
:10129000D7E735F8020BC0F30800E6E7202084F812
:1012A0003D000020CDE70220CBE7FEE74FF47A7344
:1012B00010B10A46014601E00E2202A10548FFF7DF
:1012C0009BBF000044617461204C6F67204E554CF9
:1012D0004C0A00001C0200202DE9F04186B01421C8
:1012E0006846FEF7ABFF1F480024016841F0020189
:1012F0000160016801F002010591016841F00401FB
:101300000160016801F004010591016841F00101EB
:1013100001600068144F00F001004FF48055059003
:10132000002229463846FFF7CFF8DFF840804FF417
:10133000C076002231464046FFF7C6F800950125E9
:10134000CDE90154694638460394FEF7C7FF00967D
:10135000CDE90154694640460394FEF7BFFF06B04D
:10136000BDE8F0813038024000040240000802402D
:101370000E4810B50C4901604FF4827141600021A4
:101380008160C1604FF400720161C0E90512C16162
:101390000162416281620A21C162FFF7CDFB002830
:1013A00001D072B6FEE710BD00380040C401002035
:1013B000FEE7FEE77047F8B5044640684FF48273D5
:1013C000984221D1A0684FF48065B0F5004F01D05C
:1013D000A8420AD12068066826F0400606606068C8
:1013E000984211D1A068A8420ED000920B4600226C
:1013F0008021204600F03AF8002804D0606D40F0CB
:10140000200060650320F8BD00920B4600220121F8
:10141000EFE7000038B504461248134B0068B0FBF4
:10142000F3F04FF47A73584300906068B0F5827F10
:101430000DD10B46009200228021204600F016F8C4
:1014400070B1606D40F020006065032038BD0098E9
:1014500030B1401E009020688068C0430006F6D579
:10146000002038BD1400002000366E012DE9F8433D
:101470001E46914688460446089DFFF72BF8401B00
:10148000351AFFF727F8074625480068C0F3CB3028
:10149000684338E0701C37D0FFF71CF8C01BA84227
:1014A00003D215B1009860B32CE02068416821F0A8
:1014B000E00141606068B0F5827F0BD1A068B0F5B3
:1014C000004F02D0B0F5806F04D12068016821F090
:1014D00040010160A06AB0F5005F09D12068016891
:1014E00021F4005101602068016841F4005101605D
:1014F000012084F85100002084F850000320BDE84A
:10150000F8830025401E00902068816838EA0100B9
:1015100004D000214945BDD10020F0E70121F9E7C1
:10152000140000207047FEF7DBBF000030B593B019
:1015300030216846FEF782FE14210CA8FEF77EFEDD
:101540001D480024016841F080510160006800F0EE
:10155000805011901948016821F4404141F4004144
:1015600001600068022500F44040119001200390C2
:1015700010200490009506950820CDE907405420DE
:10158000CDE9090504200B906846FFF71FF908B163
:1015900072B6FEE70F20CDE90C054FF48050CDE97F
:1015A0000E4002210CA81094FFF726F8002801D065
:1015B00072B6FEE713B030BD403802400070004004
:1015C0000248016841F470010160704788ED00E055
:1015D00070B5044600680169E26821F44051114386
:1015E00001612169A068E269084361691143084308
:1015F0002168CA6849F20C639A430243CA602068B2
:101600004169A26921F44071114341613149206867
:10161000884202D03049884202D1FFF797F801E0B2
:10162000FFF784F8E2690023192164253226B2F518
:10163000004F626828D0A0FB0101930F9200FEF7D3
:10164000C5FD0146B0FBF5F06FF01802504301EB09
:10165000800006EB0010B0FBF5F000F0F002B1FBEB
:10166000F5F002EB0012B1FBF5F06FF018035843F0
:1016700001EB800006EB0010B0FBF5F000F00F006E
:1016800021681044886070BDA0FB010192185B4185
:10169000FEF79CFD0146B0FBF5F00201B1FBF5F051
:1016A0006FF01803584301EB800006EBC000B0FB5D
:1016B000F5F000F0F80002EB4002B1FBF5F0584302
:1016C00001EB800006EBC000B0FBF5F000F0070076
:1016D000D6E7000000100140001401402DE9F04160
:1016E000984617460E460446069D1DE0681C1BD012
:1016F0002DB1FEF7EFFEA0EB0800A84214D9206838
:10170000C16821F4D071C1602068416921F00101F4
:101710004161202084F83D0084F83E00002084F8D8
:101720003C000320BDE8F0812068006836EA000034
:1017300004D00020B842D9D00020F3E70120F9E717
:10174000FEE7000070B50A4D4FF480540022214698
:101750002846FEF7B9FE062000F016FA01222146BF
:101760002846FEF7B1FEBDE870400120FEF7A4BD9B
:101770000004024070B5124C607E0128FDD00120AB
:101780006076FFF7DFFF0F4E4FF4805500222946A9
:101790003046FEF799FEC72000F0F6F901222946EF
:1017A0003046FEF791FE00F001FA152106A0FFF782
:1017B0007DFD0A20FEF780FD0020607670BD0000F0
:1017C00018000020000402404572617365206368C0
:1017D0006970207375636365737321210A000000CB
:1017E00030B501202E4C85B00503607602462946AF
:1017F0002C48FEF769FE2020A0820001E081000154
:10180000608140112081A5810002206100F092F9E1
:10181000012000F059F9022000F056F9032000F0F1
:1018200053F90C2120A0FFF741FDA28A21A16846AF
:1018300000F07AFA0F216846FFF738FDE28921A10E
:10184000684600F071FA10216846FFF72FFD6289A3
:1018500020A1684600F068FA0F216846FFF726FDD0
:10186000228920A1684600F05FFA0F216846FFF741
:101870001DFDA2891FA1684600F056FA1221684694
:10188000FFF714FD20A16846226900F04DFA1221ED
:101890006846FFF70BFD0020607605B0012030BDE3
:1018A0001800002000040240496E697469616C6987
:1018B0007A650A004E756D426C6F636B203D202582
:1018C000640A00004E756D536563746F72203D208D
:1018D00025640A004E756D50616765203D202564C2
:1018E0000A00000053697A6550616765203D202534
:1018F000640A000053697A65536563746F72203D12
:101900002025640A0000000053697A65426C6F6309
:101910006B203D2025640A002DE9F0411F4D8046D3
:1019200086B0687E0C460128FDD00120687600F064
:101930003DF91B4F4FF48056002231463846FEF7E2
:10194000C3FD0B2000F020F9C4F3074000F01CF9A0
:10195000C4F3072000F018F9E0B200F015F9A52053
:1019600000F012F96423012241460E48FFF778F98E
:10197000012231463846FEF7A7FD00F017F998F826
:10198000002009A1684600F0CFF90F216846FFF753
:101990008DFC0020687606B0BDE8F08118000020BC
:1019A00000040240C401002052656164206120628D
:1019B00079746520253032780A0000002DE9F0475F
:1019C0001F4D81461C46687E16460F460128FDD0F5
:1019D0000120687600F0EAF82889A04200D2044687
:1019E000A119814200D9841B07FB0066DFF85480EF
:1019F0004FF48057002239464046FEF765FD0B2024
:101A000000F0C2F8C6F3074000F0BEF8C6F30720A6
:101A100000F0BAF8F0B200F0B7F8A52000F0B4F882
:101A2000A2B24FF47A7349460748FFF719F9012229
:101A300039464046FEF748FD00206876BDE8F0874D
:101A40001800002000040240C40100202DE9F047E6
:101A50001A4D81469046687E0C460128FDD0012033
:101A6000687600F0A3F8164F4FF4805600223146F6
:101A70003846FEF729FD0B2000F086F8C4F3074036
:101A800000F082F8C4F3072000F07EF8E0B200F026
:101A90007BF8002000F078F81FFA88F24FF47A7390
:101AA00049460848FFF7DCF8012231463846FEF780
:101AB0000BFD00206876BDE8F087000018000020CC
:101AC00000040240C40100202DE9F041174F0446F4
:101AD0004FF48056002231463846FEF7F5FC144D8F
:101AE000012C11D0022C18D0152000F04DF8A520A3
:101AF00000F04AF804462876012231463846FEF7BF
:101B0000E3FC2046BDE8F081052000F03DF8A5206B
:101B100000F03AF80446A875EEE7352000F034F8F6
:101B2000A52000F031F80446E875E5E7000402401E
:101B3000180000202DE9F041114E4FF4805500228D
:101B400029463046FEF7C0FC4B2000F01DF800246B
:101B5000A52000F019F8641CE4B2042CF8D3094F56
:101B60000024A52000F010F83855641CE4B2082CBD
:101B7000F7D329463046BDE8F0410122FEF7A4BC68
:101B8000000402401800002001B582B000208DF84A
:101B9000040064200090012301AA02A90248FFF773
:101BA000BFF99DF804000EBDC401002070B50120EE
:101BB000FEF782FB0C4E4FF480550022294630463A
:101BC000FEF782FC0520FFF7DFFF084CA520FFF79A
:101BD000DBFFA075C007F9D129463046BDE870404B
:101BE0000122FEF771BC0000000402401800002032
:101BF0002DE9F041194D80460C46687E0128FDD044
:101C000001206876FFF7D2FFFFF79CFD144F4FF4D9
:101C10008056002231463846FEF756FC0220FFF778
:101C2000B3FFC4F30740FFF7AFFFC4F30720FFF78C
:101C3000ABFFE0B2FFF7A8FF4046FFF7A5FF012288
:101C400031463846FEF740FCFFF7B0FF152105A0EE
:101C5000FFF72CFB00206876BDE8F081180000201B
:101C600000040240577269746520612062797465CE
:101C700020535543434553530A0000002DE9F047D4
:101C8000214C81461E46607E15460F460128FDD038
:101C90000120607620897119814201D9401BC6B2AA
:101CA000FFF784FF208907FB0055FFF74BFDDFF8A6
:101CB0005C804FF48057002239464046FEF704FC12
:101CC0000220FFF761FFC5F30740FFF75DFFC5F393
:101CD0000720FFF759FFE8B2FFF756FF64233246AB
:101CE00049460B48FFF769F8012239464046FEF79E
:101CF000EBFBFFF75BFF152106A0FFF7D7FA0020EB
:101D00006076BDE8F0870000180000200004024063
:101D1000C4010020577269746520706167652053A3
:101D20005543434553530A000FB4084B10B504A95B
:101D300002AA039800F02CF8044602A9002000F043
:101D400058FA204610BC5DF814FB0000F32100088F
:101D50000907090E002804DB00F1E02080F80014D8
:101D6000704700F00F0000F1E02080F8141D70476C
:101D700002E008C8121F08C1002AFAD17047704754
:101D8000002001E001C1121F002AFBD170470000B2
:101D90002DE9FF4F8DB00F460546002606E02528A9
:101DA0000BD0DDE90F1290476D1C761C28780028B7
:101DB000F5D111B03046BDE8F08F0024A246A1460F
:101DC0000122EC4900E0044315F8013F203B02FAF0
:101DD00003F00842F7D128782A2810D06FF02F029C
:101DE0002878A0F13001092914D80AEB8A0102EB06
:101DF000410144F0020400EB010A6D1CF0E701CF41
:101E00005FEA000A03D544F40054CAF1000A44F022
:101E100002046D1C28782E2817D115F8010F44F004
:101E200004042A280ED06FF02F022878A0F1300188
:101E300009290AD809EB890102EB410100EB0109EC
:101E40006D1CF2E757F8049B6D1C28786C280FD0A6
:101E500006DC4C2817D068280DD06A2814D104E07D
:101E6000742810D07A280FD10DE044F400140AE051
:101E700044F4801401E044F440146978814202D1B2
:101E800004F580146D1C6D1C2A786E2A1FD00CDCA2
:101E9000632A31D004DC002A8BD0582A11D1A3E068
:101EA000642A68D0692A0CD165E0732A2ED004DC3C
:101EB0006F2A73D0702A04D19BE0752A6FD0782ADC
:101EC0006ED01046DDE90F129047761C50E1C4F346
:101ED0000250022806D0032809D0042801CF09D0D7
:101EE000066045E101CFF117C0E9006140E101CF93
:101EF00006803DE106703BE117F8040B8DF8000009
:101F000000208DF80100EB46012003E057F804BBE8
:101F10004FF0FF3061074FF0000102D40DE008F1EF
:101F20000101884649450FDA8045F8DB1BF80810A7
:101F30000029F4D108E008F1010188468142FADB6A
:101F40001BF808100029F6D1DDE90F23AAEB0800E1
:101F50008146214600F036F9304400EB080604E0E3
:101F6000DDE90F121BF8010B9047B8F10108F7D219
:101F700021464846F7E00A21C4F302534FF0000B14
:101F80000891022B04D001CFC117032B09D00AE01E
:101F9000FF1D27F00707F7E8020108E032E01FE025
:101FA00020E000B2C117042B01D140B2C117031EBB
:101FB00071F1000307DA4FF0000CD0EB0C006CEB72
:101FC00001012D2302E0230504D52B238DF82430B5
:101FD000012303E0E30701D02023F7E7984658E008
:101FE0000A2110E010210EE010204FF0000B0890A5
:101FF0000CE010214FF0000B44F004044FF00809EE
:10200000089103E008214FF0000B0891C4F302533C
:10201000022B04D001CF0021032B06D006E0FF1DC8
:1020200027F00707F7E8020103E080B2042B00D194
:10203000C0B24FF0000823072BD5702A07D0DDF877
:1020400020C08CF0100C5CEA0B0C05D00EE0402395
:102050008DF82430012308E050EA010306D0302334
:102060008DF824308DF8252002239846DDF820C015
:102070008CF0080C5CEA0B0C0BD150EA010301D187
:10208000630706D530238DF824304FF00108A9F1FD
:102090000109582A04D038A20B9208AA0A920BE030
:1020A0003AA2F9E75B46089AFEF790F80B9B9B5C17
:1020B0000A9A521E0A92137050EA0102F2D10A984B
:1020C000ADEB000000F1200B600702D524F4803452
:1020D00001E04FF00109D94502DDA9EB0B0000E05A
:1020E000002000EB0B0141440890AAEB010AE00339
:1020F00006D4DDE90F232146504600F063F806447C
:102100004FF0000908E009A911F80900DDE90F12F4
:10211000904709F10109761CC145F4DBE0030CD5B9
:10212000DDE90F232146504600F04CF8064404E058
:10213000DDE90F1230209047761C0899481E089060
:102140000029F5DC08E00A980A990078491C0A91F0
:10215000DDE90F129047761CBBF10001ABF1010BDA
:10216000F1DC21465046DDE90F2300F019F8064462
:102170006D1C1BE609280100303132333435363707
:1021800038396162636465660000000030313233C3
:102190003435363738394142434445460000000063
:1021A0002DE9F041044600251E461746880404D454
:1021B00005E039462020B0476D1C641EF9D528463D
:1021C000BDE8F0812DE9F041044600251E46904609
:1021D000C80301D5302700E02027880404D505E096
:1021E00041463846B0476D1C641EF9D52846BDE807
:1021F000F0810A68531C0B601070704700205C4926
:102200000854401CC0B2C828FAD3FEF771F9FFF792
:102210008DF9FFF761F8FFF7ABF8574855490026ED
:1022200001604FF4E131C0E901160C21C660C0E93C
:1022300004618661C661FEF778FF08B172B6FEE7F9
:102240000C214EA0FFF732F8FFF7CAFAFFF792FA17
:102250000322C82311464648FFF710FD4FF4FA77D2
:102260003846FEF729F80D2147A0FFF71FF84A4826
:1022700001210078FFF7BCFC47480121401CFFF713
:102280004BFB3846FEF718F80D2144A0FFF70EF877
:102290003748C82240F20331C830FFF7D7FB384631
:1022A000FEF70AF8324C0025C8343B48625D3FA176
:1022B000801CFFF739FD38480421801CFEF7F6FF2B
:1022C0006D1CEDB2C82DF0D33846FDF7F5FF0020A8
:1022D0002654401CC0B2C828FAD3092135A0FEF705
:1022E000E5FF23480322C8231146C830FFF766FBE9
:1022F00000252948625D2DA1801CFFF715FD2648A9
:102300000421801CFEF7D2FF6D1CEDB2C82DF0D366
:102310003846FDF7D1FF0A2129A0FEF7C7FF1E4866
:1023200040F21B31401CFFF7F7FA1B484FF447718E
:10233000401CFFF7F1FA184840F21D31401CFFF72E
:10234000EBFA154840F21F31401CFFF7E5FA12483E
:102350004FF44871401CFFF7DFFA1C4D4FF4C07476
:1023600021462846FEF7A8F83846FDF7A5FFF7E70F
:1023700034000020001001401C02002053746172E0
:1023800074206D61696E0A00577269746520262099
:10239000526561640A00000000000020526561641B
:1023A000536F6D65427974650A00000025303278FC
:1023B0000A00000052656164506167650A00000010
:1023C0005265616420646174610A00000008024083
:1023D00000000000000000000102030406070809D5
:1023E000000000000102030408240008000000208F
:1023F00018000000701D00082024000818000020AC
:1024000048060000801D0008890000000000000050
:102410000100000010000000000000000024F40093
:040000050800019559
:00000001FF
