:020000040800F2
:1000000010CF0020A9010008314300082D4100084D
:100010002D430008FD090008FD5400080000000001
:10002000000000000000000000000000C1480008BF
:10003000631B000800000000354300081F4900084A
:10004000C3010008C3010008C3010008C301000880
:10005000C3010008C3010008C3010008C301000870
:10006000C3010008C3010008C3010008C301000860
:10007000C3010008C3010008C3010008C301000850
:10008000C3010008C3010008C3010008000000000C
:10009000000000000000000000000000C301000894
:1000A000C3010008C3010008C3010008C301000820
:1000B000C3010008C3010008C3010008C301000810
:1000C000C3010008C3010008C3010008C301000800
:1000D000C3010008C3010008C301000800000000BC
:1000E000651B0008C3010008C301000800000000F0
:1000F000000000000000000000000000C301000834
:1001000000000000C3010008C3010008C30100088B
:1001100000000000000000000000000000000000DF
:10012000C3010008A10A00087D120008C3010008ED
:10013000C3010008000000000000000000000000F3
:10014000000000000000000000000000C3010008E3
:10015000C3010008C3010008C3010008C30100086F
:10016000C3010008C30100080000000000000000F7
:10017000000000000000000000000000000000007F
:1001800000000000C30100080000000000000000A3
:10019000C3010008DFF80CD000F024FB0048004742
:1001A000B16D000810CF0020064880470648004780
:1001B000FEE7FEE7FEE7FEE7FEE7FEE7FEE7FEE717
:1001C000FEE7FEE7E1490008950100082DE9F05F30
:1001D0000546002092469B468846064681464024B6
:1001E0001BE0284641464746224600F0A5F9534603
:1001F0005A46C01A914110D311461846224600F0C3
:100200008CF92D1A67EB01084F4622460120002188
:1002100000F083F917EB00094E41201EA4F1010400
:10022000DFDC484631462A464346BDE8F09FD2B25D
:1002300001E000F8012B491EFBD270470022F6E7CF
:1002400010B513460A4604461946FFF7F0FF20464C
:1002500010BD421C10F8011B0029FBD1801A704709
:1002600070B5064605F050FC046805460A220021D8
:10027000304600F083F92C6070BD2DE9FE4F8046BA
:1002800081EA0300C00F0C46009021F0004123F0EA
:100290000045B8EB0200A94105D2404621469046F0
:1002A0001C460B46024623F00040104347D0270D62
:1002B000C7F30A00C3F30A510290401A0190402884
:1002C0006BDAC3F3130040F4801B0098924620B110
:1002D0000023D2EB030A63EB0B0B01985946C0F1E4
:1002E0004002504600F019F906460D465046594660
:1002F000019A00F031F910EB08006141002487EA0F
:10030000115284EAE7731A4340D0009A62B3019A0B
:10031000012A4FEA075215DC001B61EB02014FF086
:10032000004202EA0752CDE90042001C41F580116B
:1003300032462B4600F069F903B0BDE8F08F404625
:100340002146F9E7001B61EB0201001C41F5801317
:1003500000185B412018A2F5001747EB030140EAA3
:10036000D570B6196D4111E06D084FEA360645EAC1
:10037000C0754FEA0752001B61EB0201001C41F5FA
:10038000801149084FEA30000019514132462B468E
:1003900003B0BDE8F04F00F029B9009801224000F9
:1003A0000023D0EB020263EBE073009821464FEA92
:1003B000E074B8EB000061EB0401E9E783F000436F
:1003C0005BE781F0004158E72DE9FE4F81EA030425
:1003D00004F0004421F0004100944FF0000B23F0A2
:1003E000004350EA01045ED052EA03045BD0C3F339
:1003F0000A54C1F30A552C44A4F2F3340194A0FB2F
:100400000254C1F3130141F48011C3F3130343F405
:10041000801301FB024400FB034E840A970A44EA5E
:10042000815447EA8357A4FB076802958D0A05FBB0
:1004300007854FEA932C04FB0C542705029D4FEAD5
:10044000065847EA1637B5EB08056EEB070C870E22
:10045000920E47EA811742EA8312A7FB0201B6EB2C
:100460000B0164EB00042B0D43EA0C335E1844EBE4
:100470001C50DA465146E7FB0201C5F313044FEA6C
:100480000B3343EA14534FEA0432019C43EA060358
:10049000A4F10C040294009CCDE900B400F0B5F87E
:1004A00003B0BDE8F08F00200146F9E70EB5C10F9B
:1004B00080EAE0700844CA07002140F233438DE827
:1004C0000E000A460B4600F0A0F803B000BD0EB5C2
:1004D00040F2334102910021CDE900110A460B465A
:1004E00000F093F803B000BDC1F30A5210B5C1F398
:1004F000130140F2FF3341F480119A4201DA0020E7
:1005000010BD40F233439A42A2F2334203DC52421E
:1005100000F012F810BD904010BD202A04DB203AF4
:1005200000FA02F1002070479140C2F1200320FA46
:1005300003F3194390407047202A04DB203A21FA44
:1005400002F00021704721FA02F3D040C2F12002EC
:100550009140084319467047202A06DBCB17203A02
:1005600041FA02F043EAE07306E041FA02F3D040B8
:10057000C2F1200291400843194670472DE9F04727
:1005800091460F4680460446002614F8015B2DB1C3
:1005900000F03AF90068405DC007F6D12B2D02D07B
:1005A0002D2D18D0641E4A463946204600F030F9F9
:1005B00027B13968A14201D1C7F8008071054FF019
:1005C00002040BD54042002803DD05F09DFA0460CB
:1005D000A007BDE8F08746F48066E4E70028F8DA73
:1005E00005F092FA04606FF00040F2E710B5141EB7
:1005F00073F1000408DA401C41F1000192185B41DC
:100600001A4301D120F0010010BD2DE9F04D9246B2
:100610009B4611B1B1FA81F202E0B0FA80F22032C9
:100620009046FFF77AFF04460F4640EA0A0041EA87
:100630000B0153465A46084313D0114653EA0100B2
:1006400019D0C8F140025046FFF776FF05460E4626
:10065000504659464246FFF760FF084305D0012047
:1006600004E020463946BDE8F08D0020054346EA07
:10067000E0762C4337430A986305E40AA0EB0800B0
:100680000022FD0A44EA47540A3002D50020014600
:10069000E9E7010510196941DDE9084500196941DB
:1006A000BDE8F04DA2E72DE9F04D81EA030404F026
:1006B000004B21F0004514464FF0000A23F00041A2
:1006C00050EA050220D054EA01021DD0C5F30A57B2
:1006D0000246C5F31303C1F31300C1F30A5640F4F5
:1006E000801543F48013A7EB0608101BD64608F2CA
:1006F000FD3873EB050002D308F1010801E0921800
:100700005B41B8F1000F03DA00200146BDE8F08D2F
:1007100000204FF48011064684460EE0171B73EB51
:10072000050705D3121B63EB050306434CEA010CD6
:1007300049084FEA300092185B4150EA0107EDD1B9
:1007400052EA030012D082EA040083EA050108435A
:1007500005D0101BAB4106D20122002306E0002287
:100760004FF0004302E06FF0010253101AEB060055
:100770004CEB085110EB0A0041EB0B01BDE8F04DCA
:10078000FFF734BF70B521F0004303430CD0C1F331
:100790000A550024D5EB040564EB0403D617AD1A03
:1007A000B34102DB0020014670BD201841EB02512D
:1007B00070BD000030B5041E71F1000404DB4FF081
:1007C0000044404264EB0101141E73F1000405DB98
:1007D0001C464FF00043524263EB0403994208BFAA
:1007E000904230BD064C074D06E0E06840F0010342
:1007F00094E8070098471034AC42F6D3FFF7CEFCDC
:10080000387300085873000800487047E472000805
:100810002DE9F05F82460078002715468B460AF1E5
:100820000104B946302801D09DB113E014F8010B42
:100830000127782803D0582801D045B10AE00DB12E
:10084000102D07D10027102514F8010B02E0082510
:1008500000E00A250026B0460EE005FB080005FB77
:1008600006F1012701EB10461FFA80F8B6F5803F2C
:1008700000D3B94614F8010B294600F069F80028A6
:10088000EBDABBF1000F05D00FB1641E00E0544657
:10089000CBF80040B9F1000F06D005F035F9022180
:1008A0000160C81EBDE8F09F48EA0640FAE72DE95E
:1008B000F04D00231A461B1A8A4103DB0020014633
:1008C000BDE8F08DC1F30A52C1F3130141F4801564
:1008D0004FF0000BD10702D100186D41521E0027C6
:1008E000044640F2FF11384601EB620A3E4680465C
:1008F000024600204FF48011FFF71EFEC21971411D
:10090000BB1846EB0100B4EB030C75EB000C04D3F1
:10091000E41A65EB000517460E46241908F101009C
:100920006D4180463428E3DDF91946EB0600091BCA
:10093000A84103D24FF0FF32134601E000221346D4
:100940001BEB070046EB0A51BDE8F04DFFF74EBE2A
:100950003A2800D2303820F02002412A01D3A2F1F7
:100960003700884201D34FF0FF30704701463029ED
:1009700005DB392903DCA1F13000C0B27047412901
:1009800005DB462903DCA1F13700C0B2F6E7A1F18F
:100990005700C0B2F2E7000010B54FF4C07107482D
:1009A00001F086FCC82001F0C7FA4FF4C07103487B
:1009B00001F07EFCC82001F0BFFA10BD0008024023
:1009C00001F026FE01F096FA00204FF0E0210861C8
:1009D00048610848006820F4E0200649086072B6C3
:1009E0000549086880F3088800BF08464468A047A6
:1009F00000BFFEE724ED00E00000020800BFFEE7B4
:100A000010B50446112204A1204600F027F808B1D1
:100A1000012010BD0020FCE70D0A2B514D5453540A
:100A200041543A20302C310D0A00000010B5044624
:100A3000062300222146064801F0D6F9072205A127
:100A4000034800F00BF808B1012010BD0020FCE7BE
:100A5000E61800200D0A2B434D54490030B50346DB
:100A600009E013F8014B11F8015BAC4201D0002002
:100A700030BD501EC2B2002AF3D10120F8E70000B9
:100A800010B50446062204A12046FFF7E7FF08B18F
:100A9000012010BD0020FCE70D0A4F4B0D0A00009D
:100AA00010B5FE48406A0068FD49884276D9FC4886
:100AB00054380068F949496A0968FA4A914201D1F3
:100AC000082169E0F549496A0968F54A483A9142BE
:100AD00001D1082160E0F149496A0968F14A6032B0
:100AE000914201D1082157E0EC49496A0968EC4A72
:100AF0001832914201D108214EE0E849496A09685B
:100B0000E84A1832914201D1491545E0E349496A62
:100B10000968E34A303A914201D149153CE0DF4986
:100B2000496A0968DF4A7832914201D1491533E0B8
:100B3000DA49496A0968DA4A3032914201D14915E5
:100B40002AE0D649496A0968D64A3032914202D130
:100B50004FF4002120E0D149496A0968D04A183A87
:100B6000914202D14FF4002116E0CC49496A09684C
:100B7000CC4A9032914202D14FF400210CE0C74997
:100B8000496A0968C64A4832914203D14FF40021AC
:100B900002E003E04FF00071084070E1BF48406A96
:100BA0000068C049A831884276D9BD4858380068E5
:100BB000BA49496A0968BB4A914201D1082169E0F2
:100BC000B649496A0968B64A483A914201D10821B2
:100BD00060E0B249496A0968B24A6032914201D183
:100BE000082157E0AD49496A0968AD4A1832914277
:100BF00001D108214EE0A949496A0968A94A183279
:100C0000914201D1491545E0A449496A0968A44ABD
:100C1000303A914201D149153CE0A049496A09683E
:100C2000A04A7832914201D1491533E09B49496A83
:100C300009689B4A3032914201D149152AE097490F
:100C4000496A0968974A3032914202D14FF4002133
:100C500020E09249496A0968914A183A914202D1C2
:100C60004FF4002116E08D49496A09688D4A903297
:100C7000914202D14FF400210CE08849496A096889
:100C8000874A4832914203D14FF4002102E003E049
:100C90004FF000710840F2E08048406A00688149E6
:100CA0004831884276D97F48103840687B49496A84
:100CB00009687C4A914201D1082169E07749496A73
:100CC0000968774A483A914201D1082160E07349A6
:100CD000496A0968734A6032914201D1082157E09C
:100CE0006E49496A09686E4A1832914201D1082159
:100CF0004EE06A49496A09686A4A1832914201D14C
:100D0000491545E06549496A0968654A303A9142A2
:100D100001D149153CE06149496A0968614A783264
:100D2000914201D1491533E05C49496A09685C4A3E
:100D30003032914201D149152AE05849496A09687F
:100D4000584A3032914202D14FF4002120E05349F9
:100D5000496A0968524A183A914202D14FF4002177
:100D600016E04E49496A09684E4A9032914202D1D2
:100D70004FF400210CE04949496A0968484A483261
:100D8000914203D14FF4002102E003E04FF00071E3
:100D9000084074E04348103800684049496A0968CF
:100DA000404A914201D1082168E03C49496A0968FA
:100DB0003B4A483A914201D108215FE03749496AEC
:100DC0000968384A6032914201D1082156E033491E
:100DD000496A0968324A1832914201D108214DE02E
:100DE0002E49496A09682F4A1832914201D14915A2
:100DF00044E02A49496A0968294A303A914201D1B6
:100E000049153BE02549496A0968264A78329142EA
:100E100001D1491532E02149496A0968204A303236
:100E2000914201D1491529E01C49496A09681D4AC6
:100E30003032914202D14FF400211FE01749496A34
:100E40000968174A183A914202D14FF4002115E07F
:100E50001249496A0968134A9032914202D14FF40B
:100E600000210BE00D49496A09680D4A4832914258
:100E700002D14FF4002101E04FF00071084010B1A1
:100E8000094803F07FFE0548406A0068044988422B
:100E90007CD90248406A0068024907E0140100203A
:100EA000586402401060024054000020884201D182
:100EB000202067E0EE48406A0068EE49884201D190
:100EC00020205FE0EA48406A0068EB49884201D18F
:100ED000202057E0E648406A0068E64960318842D1
:100EE00001D120204EE0E248406A0068E2494839DA
:100EF000884201D1C01445E0DD48406A0068DD4900
:100F00001831884201D1C0143CE0D948406A0068D9
:100F1000D9491831884201D1C01433E0D448406A1D
:100F20000068D4497831884201D1C0142AE0D04801
:100F3000406A0068D0493039884202D14FF400102D
:100F400020E0CB48406A0068CA493031884202D16B
:100F50004FF4001016E0C648406A0068C6493031B8
:100F6000884202D14FF400100CE0C148406A00688A
:100F7000C0499031884203D14FF4001002E005E0EF
:100F80004FF00060BB49091F08606AE1B848406A39
:100F90000068B9494831884274D9B548406A006848
:100FA000B5496039884201D1202066E0B048406AE6
:100FB0000068B049884201D120205EE0AC48406A18
:100FC0000068AD49884201D1202056E0A848406A17
:100FD0000068A8496031884201D120204DE0A44832
:100FE000406A0068A4494839884201D1C01444E0ED
:100FF0009F48406A00689F491831884201D1C01457
:101000003BE09B48406A00689B491831884201D107
:10101000C01432E09648406A0068964978318842A8
:1010200001D1C01429E09248406A006892493039E1
:10103000884202D14FF400101FE08D48406A0068DA
:101040008C493031884202D14FF4001015E08848B5
:10105000406A006888493031884202D14FF400105C
:101060000BE08348406A006882499031884202D18F
:101070004FF4001001E04FF000607E49083908602D
:10108000EFE0FFE77A48406A00687B4918398842F8
:1010900074D97748406A006877496039884201D13D
:1010A000202066E07248406A00687249884201D197
:1010B00020205EE06E48406A00686F49884201D196
:1010C000202056E06A48406A00686A4960318842D8
:1010D00001D120204DE06648406A006866494839E1
:1010E000884201D1C01444E06148406A0068614907
:1010F0001831884201D1C0143BE05D48406A006865
:101100005D491831884201D1C01432E05848406A24
:10111000006858497831884201D1C01429E0544808
:10112000406A006854493039884202D14FF40010B7
:101130001FE04F48406A00684E493031884202D172
:101140004FF4001015E04A48406A00684A493031BF
:10115000884202D14FF400100BE04548406A006815
:1011600044499031884202D14FF4001001E04FF021
:10117000006041497039C86073E0FFE73C48406A4D
:1011800000683D496039884201D1202066E0384836
:10119000406A00683749884201D120205EE0344827
:1011A000406A00683449884201D1202056E0304826
:1011B000406A00682F496031884201D120204DE00B
:1011C0002B48406A00682C494839884201D1C01434
:1011D00044E02748406A006826491831884201D116
:1011E000C0143BE02248406A006823491831884215
:1011F00001D1C01432E01E48406A00681D497831B0
:10120000884201D1C01429E01948406A00681A498F
:101210003039884202D14FF400101FE01448406A70
:10122000006814493031884202D14FF4001015E0B3
:101230000F48406A006810493031884202D14FF4AB
:1012400000100BE00A48406A00680A499031884261
:1012500002D14FF4001001E04FF0006006497039F0
:101260008860034A506A526AD16B884710BD0000FB
:1012700014010020106402407060024010B5F8486C
:101280000068408C401CF64909684884F5480068AD
:10129000F3490968098A0843F2490860F248806AFC
:1012A0000068F249884276D9F04854380068EE491F
:1012B000896A0968EE4A914201D1082169E0EA4948
:1012C000896A0968E94A483A914201D1082160E0F7
:1012D000E549896A0968E64A6032914201D10821EC
:1012E00057E0E149896A0968E04A1832914201D120
:1012F00008214EE0DC49896A0968DD4A18329142CA
:1013000001D1491545E0D849896A0968D74A303A78
:10131000914201D149153CE0D349896A0968D44A10
:101320007832914201D1491533E0CF49896A096881
:10133000CE4A3032914201D149152AE0CA49896A20
:101340000968CB4A3032914202D14FF4002120E0AB
:10135000C549896A0968C54A183A914202D14FF4D1
:10136000002116E0C049896A0968C14A9032914259
:1013700002D14FF400210CE0BB49896A0968BB4ADD
:101380004832914203D14FF4002102E003E04FF0D4
:10139000007108407AE1B448806A0068B449A83115
:1013A000884276D9B14858380068AF49896A0968D7
:1013B000AF4A914201D1082169E0AB49896A0968C5
:1013C000AA4A483A914201D1082160E0A649896AB7
:1013D0000968A74A6032914201D1082157E0A24929
:1013E000896A0968A14A1832914201D108214EE068
:1013F0009D49896A09689E4A1832914201D149156E
:1014000045E09949896A0968984A303A914201D180
:1014100049153CE09449896A0968954A78329142B5
:1014200001D1491533E09049896A09688F4A303201
:10143000914201D149152AE08B49896A09688C4A91
:101440003032914202D14FF4002120E08649896A6E
:101450000968864A183A914202D14FF4002116E0F9
:101460008149896A0968824A9032914202D14FF4D7
:1014700000210CE07C49896A09687C4A4832914223
:1014800003D14FF4002102E003E04FF00071084067
:10149000FCE07548806A006875494831884276D911
:1014A0007348103840687049896A0968704A9142E7
:1014B00001D1082169E06C49896A09686B4A483A98
:1014C000914201D1082160E06749896A0968684A48
:1014D0006032914201D1082157E06349896A096865
:1014E000624A1832914201D108214EE05E49896A70
:1014F00009685F4A1832914201D1491545E05A49BD
:10150000896A0968594A303A914201D149153CE04B
:101510005549896A0968564A7832914201D149157C
:1015200033E05149896A0968504A3032914201D109
:1015300049152AE04C49896A09684D4A303291427E
:1015400002D14FF4002120E04749896A0968474ADF
:10155000183A914202D14FF4002116E04249896ABB
:101560000968434A9032914202D14FF400210CE0C5
:101570003D49896A09683D4A4832914203D14FF496
:10158000002102E003E04FF0007108407EE038489F
:10159000103800683449896A0968354A914201D196
:1015A000082172E03049896A0968304A483A914214
:1015B00001D1082169E02C49896A09682C4A603206
:1015C000914201D1082160E02749896A0968274AC8
:1015D0001832914201D1082157E02349896A0968EC
:1015E000234A1832914201D149154EE01E49896AB9
:1015F00009681E4A303A914201D1491545E01A491D
:10160000896A09681A4A7832914201D149153CE049
:101610001549896A0968154A3032914201D1491544
:1016200033E01149896A0968114A3032914202D186
:101630004FF4002129E00C49896A09680B4A183ADD
:10164000914202D14FF400211FE00749896A0968DD
:10165000074A903291420DD14FF4002115E000006D
:1016600000000020003C01401401002058640240AA
:1016700010600240F849896A0968F84A914202D12B
:101680004FF4002101E04FF00071084010B1F44820
:1016900003F078FAF048806A0068F04948398842D7
:1016A00074D9ED48806A0068EE49884201D1202053
:1016B00067E0E948806A0068E8499039884201D1CA
:1016C00020205EE0E448806A0068E6496031884294
:1016D00001D1202055E0E048806A0068DF493039B8
:1016E000884201D120204CE0DB48806A0068DD4957
:1016F0001831884201D1C01443E0D748806A00689D
:10170000D6497839884201D1C0143AE0D248806A7B
:101710000068D4497831884201D1C01431E0CE4804
:10172000806A0068CD491839884201D1C01428E088
:10173000C948806A0068CB493031884202D14FF4F1
:1017400000101EE0C448806A0068C44960398842BD
:1017500002D14FF4001014E0BF48806A0068C1490C
:101760009031884202D14FF400100AE0BA48806AF2
:101770000068BA49884202D14FF4001001E04FF0EE
:101780000060B6499439086072E1FFE7B248806AA8
:101790000068B449A831884274D9AF48806A0068AB
:1017A000B049884201D1202067E0AB48806A0068D8
:1017B000AA499039884201D120205EE0A648806A7B
:1017C0000068A8496031884201D1202055E0A24834
:1017D000806A0068A1493039884201D120204CE05C
:1017E0009D48806A00689F491831884201D1C01421
:1017F00043E09948806A006898497839884201D165
:10180000C0143AE09448806A00689649783188426A
:1018100001D1C01431E09048806A00688F491839BE
:10182000884201D1C01428E08B48806A00688D4945
:101830003031884202D14FF400101EE08648806AA1
:10184000006886496039884202D14FF4001014E0E4
:101850008148806A006883499031884202D14FF400
:1018600000100AE07C48806A00687C49884202D106
:101870004FF4001001E04FF000607849983908609B
:10188000F6E0FFE77448806A00687649483188428C
:1018900074D97148806A00687249884201D1202059
:1018A00067E06D48806A00686C499039884201D1D0
:1018B00020205EE06848806A00686A49603188429A
:1018C00001D1202055E06448806A006863493039BE
:1018D000884201D120204CE05F48806A006861495D
:1018E0001831884201D1C01443E05B48806A006827
:1018F0005A497839884201D1C0143AE05648806A82
:10190000006858497831884201D1C01431E052480A
:10191000806A006851491839884201D1C01428E012
:101920004D48806A00684F493031884202D14FF4F7
:1019300000101EE04848806A0068484960398842C3
:1019400002D14FF4001014E04348806A0068454912
:101950009031884202D14FF400100AE03E48806A7C
:1019600000683E49884202D14FF4001001E04FF078
:1019700000603C491039C8607AE0FFE73648806A69
:1019800000683849884201D120206FE03248806ADF
:10199000006832499039884201D1202066E02E4803
:1019A000806A00682F496031884201D120205DE0C3
:1019B0002948806A006829493039884201D12020AD
:1019C00054E02548806A006826491831884201D1D0
:1019D000C0144BE02048806A00682049783988426A
:1019E00001D1C01442E01C48806A00681D4978316A
:1019F000884201D1C01439E01748806A006817494D
:101A00001839884201D1C01430E01348806A006858
:101A100014493031884202D14FF4001026E00E48BC
:101A2000806A00680D496039884202D14FF4001085
:101A30001CE00948806A00680A499031884202D156
:101A40004FF4001012E00448806A0068034988429D
:101A50000AD14FF4001009E014010020A0640240F4
:101A6000B4000020106002404FF00060034988601D
:101A7000034A906A926AD16B884710BD00600240A9
:101A8000140100200146087810381823B0FBF3F247
:101A90000848805CC865032A05D908686FF3090007
:101AA000001D886503E008686FF309008865886D8C
:101AB00070470000AE710008014600208A6A8B69F9
:101AC000CBB932B1012A0DD0022A03D0032A10D19A
:101AD0000EE000BFCB6A03F08073B3F1807F00D1CA
:101AE000012007E0CB6AB3F1C07F00D1012001E003
:101AF00000E000BF34E08B69B3F5005F1AD132B16A
:101B0000012A07D0022A03D0032A11D10AE000BF1C
:101B100001200EE0CB6A03F08073B3F1807F00D127
:101B2000012006E0CB6AB3F1C07F00D1012000E0C4
:101B300000BF15E032B1012A05D0022A04D0032AE1
:101B40000CD103E000BF00BF012008E0CB6A03F026
:101B50008073B3F1807F00D1012000E000BF00BF9F
:101B60007047704710B54FF4006000F0A7FA10BD41
:101B700010B500224FF40071014800F0A3FB10BD26
:101B80000008024003E04FF4FA7000F0D5F9FAE7DC
:101B900010B5002201B909E0012901D10A0205E0CE
:101BA000022901D10A0201E04FF440720E4B1B687A
:101BB00023F440730C4C236023461B6813432360BB
:101BC00023461B6823F0F803236023461B68022486
:101BD00044EAC0042343044C236023461B6843F4B7
:101BE0008033236010BD0000103C0240074A126899
:101BF00022F44072054B1A601A4612681A601A469F
:101C0000126842F001021A6001707047103C0240F5
:101C100010B50D49096821F440710B4C2160214633
:101C2000096841F4407121602146096841F00101D1
:101C30002160026000BF00BF00BFBFF36F8F00BF15
:101C400000BF00BF436010BD103C0240084A12684C
:101C500022F44072064B1A601A46126842F48072EF
:101C60001A601A46126842F001021A600180704739
:101C7000103C0240084A126822F44072064B1A6077
:101C80001A46126842F400721A601A46126842F04C
:101C900001021A6001607047103C02402A48006847
:101CA00000F0100040B12948C06940F010002749F9
:101CB000C8611020244908602348006800F0200013
:101CC00040B12248C06940F008002049C861202086
:101CD0001D4908601C48006800F0400040B11B48E6
:101CE000C06940F004001949C861402016490860E5
:101CF0001548006800F0800040B11448C06940F009
:101D000002001249C86180200F4908600E4800682F
:101D100000F4807048B10D48C06940F001000B49E3
:101D2000C8614FF48070084908600748006800F0F7
:101D3000020040B10548C06940F020000349C86175
:101D400002200149086070470C3C0240F0CA0020A4
:101D500070B50446002500201449C86100F0B8FAA7
:101D6000054609E0601C38B124B100F0B1FA401B0F
:101D7000A04201D9032070BD0D48006800F48030F6
:101D80000028EFD10A48006800F0010010B10120DE
:101D9000074908600648006800F4F97018B1FFF7B9
:101DA0007DFF0120E7E70020E5E70000F0CA002002
:101DB0000C3C024070B506460D462C4600200949F1
:101DC000087008E02146074803F08AFC05480078BF
:101DD000611B7054641C034800780A28F2D1204625
:101DE00070BD00001C00002070B50446981A401C0D
:101DF00085B2002004E08E18365C2654461CB0B232
:101E0000A842F8DB70BD00002DE9F0410446002532
:101E100000F05EFA074614B90120BDE8F081606A5F
:101E200000B100BF00BF002084F8340000BF0220D2
:101E300084F835002068006820F0010021680860FF
:101E40000AE000F045FAC01B052805D9202060658E
:101E5000032084F83500E0E72068006800F0010006
:101E60000028EED12068056821480540D4E9010129
:101E70000843E16808432169084361690843A1698F
:101E80000843E1690843216A08430543606A04285E
:101E900003D1D4E90B01084305432068056020689D
:101EA000456925F00705606A0543606A04280DD17D
:101EB000A06A0543E06A48B12046FFF7FDFD28B15E
:101EC00040206065012084F83500A6E72068456160
:101ED0002046FFF7D7FD064694F85C103F20884067
:101EE000B06000206065012084F83500002094E790
:101EF0003F8010F010B54FF0FF300E490860002011
:101F00000860401E091D086000200860401E094945
:101F10001039086000200860401E091D086000207C
:101F20000860401E091D08600020086000F026FAC5
:101F3000002010BD2038024070B5044600F0C8F9FA
:101F400006462546681C10B104480078054400BFC9
:101F500000F0BEF9801BA842FAD370BD3400002007
:101F60000348006840F000400149086000207047C5
:101F7000103C02402DE9F04106460F4614461D462E
:101F80004FF0010800BF1F48007E012802D1022047
:101F9000BDE8F08101201B49087600BF4CF25030AB
:101FA000FFF7D6FE8046B8F1000F23D126B9E1B283
:101FB0003846FFF71BFE12E0012E04D1A1B23846CD
:101FC000FFF744FE0BE0022E04D121463846FFF70E
:101FD00051FE04E022462B463846FFF719FE4CF22C
:101FE0005030FFF7B5FE80460748006820F001003A
:101FF0000549086000BF00200249087600BF40463E
:10200000C6E70000F0CA0020103C02400020094949
:10201000096801F0004159B10749064A0C3A1160BC
:10202000064911600349096801F0004101B101202E
:1020300070470000103C024023016745AB89EFCD9B
:102040002DE9F041074600240025002617480068C6
:1020500017490968098A88431449086014490968BE
:10206000488C00EBD0714910A0EB410111B1114C2B
:10207000114D01E0104C0F4D21460D48006802F053
:10208000FDFE0B480068408C01280DDDF2B22946A8
:102090000748006802F072FE05490968CA690449E8
:1020A0000968498C891E5054BDE8F081003C01400C
:1020B000000000205C0100208C01002010B50446C7
:1020C00004480068204020B1024804602046FFF721
:1020D000B7FF10BD143C0140F8B502460B46002581
:1020E000002400200021CFE0012606FA01F51E6839
:1020F00006EA0504AC4275D11E7906F00306012EEE
:1021000004D01E7906F00306022E13D190684F000A
:102110000326BE40B0434F00DE68BE4030439060AF
:10212000506801268E40B0431E79C6F300168E40DB
:10213000304350601E7906F00306032E09D0D068A4
:102140004F000326BE40B0434F009E68BE40304360
:10215000D0601E7906F00306022E13D1CF0802F1DB
:10216000200656F827004E07F70E0F26BE40B04354
:102170004F07FF0E1E69BE403043CF0802F1200614
:1021800046F8270010684F000326BE40B0431E7972
:1021900006F003064F00BE40304310605E6806F054
:1021A0008056B6F1805F6ED100BF00260096384E93
:1021B000366846F48046364F3E603E46366806F442
:1021C0008046009600BF00BF324E8F0856F82700A9
:1021D0008E07370F0F26BE40B0432F4EB24202D1BA
:1021E000002615E04FE02D4EB24201D101260FE04E
:1021F0002B4EB24201D102260AE02A4EB24201D150
:10220000032605E0284EB24201D1042600E007264D
:102210008F073F0FBE4030431E4E8F0846F8270001
:10222000224E3068A0435E6806F48036B6F5803FE3
:1022300000D120431D4E3060361D3068A0435E68DB
:1022400006F40036B6F5003F00D12043174E361D88
:102250003060361D3068A0435E6806F48016B6F51F
:10226000801F00D12043114E08363060361D306883
:10227000A0435E6806F40016B6F5001F00D12043A7
:102280000A4E0C363060491C1029FFF42DAFF8BD02
:102290004438024008380140000002400004024077
:1022A00000080240000C024000100240003C0140C7
:1022B00010B5426921EA020302EA010443EA044339
:1022C000836110BD0AB1816101E00B048361704735
:1022D00001480068704700002C0000200348006897
:1022E0000349097808440149086070472C00002020
:1022F0003400002010B50D48006840F400700B4910
:1023000008600846006840F480600860084600687D
:1023100040F480700860032000F0A4F8002000F072
:1023200007F800F02DF8002010BD0000003C02402E
:1023300070B504460E4800784FF47A71B1FBF0F0A6
:102340000C490968B1FBF0F5284601F039F808B1ED
:10235000012070BD102C07D200222146501E00F033
:1023600043F80548046001E00120F2E70020F0E7AF
:1023700034000020380000203000002070470000AA
:1023800008B500BF002000900E48006840F480406F
:102390000C4908600846006800F48040009000BFC7
:1023A00000BF00BF00200090081F006840F0805070
:1023B000091F08600846006800F08050009000BFC8
:1023C00000BF08BD4438024001460846002809DB2A
:1023D00000F01F0301229A4043099B0003F1E02310
:1023E000C3F8002100BF70472DE9F05F80460D461D
:1023F0001646002703F06CFB074639462A4633464B
:1024000001F00700C0F1070ABAF1040F02D94FF03A
:10241000040A01E0C0F1070AD14600F1040ABAF14A
:10242000070F02D24FF0000A01E0A0F1030AD446E0
:102430004FF0010A0AFA09FAAAF1010A0AEA020AA5
:102440000AFA0CFA4FF0010B0BFA0CFBABF1010B83
:102450000BEA030B4AEA0B042146404603F040FB1B
:10246000BDE8F09F00BF00F00702064B19684FF669
:10247000FF031940044B0B4343EA0221014B19604F
:1024800000BF70470CED00E00000FA0570B504468F
:102490000D460CB9012070BD5848006800F00700D7
:1024A000A84209D255490D700846006800F007009F
:1024B000A84201D00120EEE7207800F002000228B7
:1024C0001DD1207800F00400042805D14C48006894
:1024D00040F4E0504A490860207800F008000828DD
:1024E00005D14748006840F46040454908604448C9
:1024F000006820F0F000A168084341490860207896
:1025000000F00100A8B36068012807D13C480838F2
:102510000068C0F34040B8B90120BCE760680228F9
:1025200002D06068032807D1354808380068C0F336
:10253000406048B90120AEE7314808380068C0F370
:10254000400008B90120A6E72D48006820F00300EC
:10255000616808432A490860FFF7BAFE064609E0A9
:10256000FFF7B6FE801B41F28831884202D9032072
:1025700091E707E02248006800F00C006168B0EBCA
:10258000810FEDD11D48006800F00700A84209D96D
:102590001A490D700846006800F00700A84201D0F3
:1025A000012078E7207800F00400042807D11448BF
:1025B000006820F4E050E168084311490860207881
:1025C00000F00800082808D10D48006820F4604099
:1025D000216940EAC1000A49086000F0FFF8084993
:1025E0000968C1F30311074A515CC84006490860F5
:1025F00006480068FFF79CFE00204CE7003C0240C4
:1026000008380240B6710008380000203000002071
:1026100010B5FFF75DFE04465748006840F0010022
:102620005549086006E0FFF753FE001B022801D958
:10263000032010BD5048006800F002000028F2D0CE
:102640004D48006840F080004B490860FFF740FEAD
:102650000446002048490831086008E0FFF738FECA
:10266000001B41F28831884201D90320E1E742484A
:102670000830006800F00C000028EFD1FFF728FEBA
:1026800004463D48006820F450203B49086006E0BD
:10269000FFF71EFE001B642801D90320C9E7364856
:1026A000006800F400300028F2D1FFF711FE044664
:1026B0003148006820F080702F49086006E0FFF77D
:1026C00007FE001B022801D90320B2E72A48006850
:1026D00000F000700028F2D1FFF7FAFD044626480A
:1026E000006820F080602449086006E0FFF7F0FDF4
:1026F000001B022801D903209BE71F48006800F057
:1027000000600028F2D11D481B49091D08601C48C3
:1027100019498431086018480C30006820F4F850DA
:1027200015490C3108600846006820F40050086024
:102730000846006840F41F0008600846006840F43E
:10274000001008600C487430006820F001000A494D
:10275000743108600846006840F0807008600948DD
:102760000949086009480068FFF7E2FD08B1012047
:102770005FE700205DE700000038024010300004F1
:10278000003000200024F400380000203000002039
:1027900001480068704700003800002000B5FFF7CE
:1027A000F7FF04490968C1F38221034A515CC8401C
:1027B00000BD000008380240C671000800B5FFF7F0
:1027C000E7FF04490968C1F34231034A515CC8403C
:1027D00000BD000008380240C67100082DE9F0472E
:1027E000002400250026A1462548006800F00C00C2
:1027F00020B1042805D008283AD105E0DFF88490FC
:1028000039E0DFF8849036E01D48001F006800F0D2
:102810003F041B48001F006800F4800078B11A488C
:102820001749091F0968C1F38811A0FB017001460F
:10283000224600233846FDF7C9FC05460EE0114844
:102840000F49091F0968C1F38811A0FB01700146F7
:10285000224600233846FDF7B9FC05460848001F0C
:102860000068C0F30140401C4600B5FBF6F902E0E9
:10287000DFF8109000BF00BF4846BDE8F0870000B9
:10288000083802400024F40040787D01F8B5044681
:102890000CB90120F8BD207800F00100002874D0A8
:1028A000F948006800F00C0004280DD0F6480068D4
:1028B00000F00C00082813D1F348001F006800F452
:1028C0008000B0F5800F0BD1EF4808380068C0F3E6
:1028D0004040002859D06068002856D10120D9E72F
:1028E00000BF6068B0F5803F08D1E748083800684D
:1028F00040F48030E449083908601EE06068B0F5B3
:10290000A02F0DD1E0480838006840F48020DE494F
:10291000083908600846006840F4803008600CE020
:10292000D9480838006820F48030D7490839086051
:102930000846006820F48020086000BF606890B1FD
:10294000FFF7C6FC054606E0FFF7C2FC401B642803
:1029500001D903209EE7CC4808380068C0F3404006
:102960000028F1D011E0FFF7B3FC054606E0FFF7C1
:10297000AFFC401B642801D903208BE7C24808380C
:102980000068C0F340400028F1D1207800F0020038
:1029900002285FD1BC48006800F00C0058B1BA486A
:1029A000006800F00C0008281CD1B748001F006820
:1029B00000F48000B0B9B44808380068C0F34000A3
:1029C00020B1E068012801D0012063E7AE48083853
:1029D000006820F0F800216940EAC100AA490839DE
:1029E000086037E0E06800B30120A8490860FFF7FD
:1029F0006FFC054606E0FFF76BFC401B022801D97F
:102A0000032047E7A04808380068C0F340000028CA
:102A1000F1D09D480838006820F0F800216940EAAC
:102A2000C10099490839086014E0002097490860FE
:102A3000FFF74EFC054606E0FFF74AFC401B022864
:102A400001D9032026E7904808380068C0F3400009
:102A50000028F1D1207800F0080008282CD1606906
:102A6000A8B101208A490860FFF732FC054606E05C
:102A7000FFF72EFC401B022801D903200AE78248F9
:102A80006C300068C0F340000028F1D014E0002052
:102A90007F490860FFF71CFC054606E0FFF718FCBD
:102AA000401B022801D90320F4E677486C30006807
:102AB000C0F340000028F1D1207800F00400042881
:102AC00070D1002770483830006800F0805090B90D
:102AD00000BF002000906C483830006840F0805003
:102AE0006949383108600846006800F0805000905D
:102AF00000BF00BF01276748006800F48070B0B9CC
:102B00006448006840F4807062490860FFF7E0FBA9
:102B1000054606E0FFF7DCFB401B022801D9032035
:102B2000B8E65C48006800F480700028F2D000BF6E
:102B3000A068012808D154486830006840F00100BE
:102B40005149683108601DE0A06805280DD14E4844
:102B50006830006840F004004B496831086008465E
:102B6000006840F0010008600CE0474868300068E9
:102B700020F001004449683108600846006820F0F0
:102B80000400086000BFA068A8B1FFF7A1FB0546DC
:102B900009E0FFF79DFB401B41F28831884202D9D2
:102BA000032077E626E0384868300068C0F340002C
:102BB0000028EED013E0FFF78BFB054608E0FFF797
:102BC00087FB401B41F28831884201D9032061E62E
:102BD0002D4868300068C0F340000028EFD1012F75
:102BE00007D129483830006820F080502649383114
:102BF000086000BFA069002845D02348006800F0A5
:102C00000C0008285DD0A069022845D100201F498A
:102C10000866FFF75DFB054606E0FFF759FB401B22
:102C2000022801D9032035E6174808380068C0F3A8
:102C300040600028F1D1D4E907010843616A40EA05
:102C400081110122A06AC2EB500041EA00412C2010
:102C5000005D41EA00600C49091F086001200B4932
:102C60000866FFF735FB054606E0FFF731FB401B22
:102C7000022801D903200DE6034808380068C0F394
:102C800040600028F1D049E0083802400000474287
:102C9000800E474200700040002021490866FFF77F
:102CA00017FB054606E0FFF713FB401B022801D97E
:102CB0000320EFE51B480068C0F340600028F2D114
:102CC0002CE0A069012800D1E4E51648001D066843
:102CD000A069012820D006F48001E06981421BD15F
:102CE00006F03F01206A814216D147F6C07030409D
:102CF000616AB0EB811F0FD106F440310122A06A56
:102D0000C2EB5000B1EB004F06D106F070612C20F1
:102D1000005DB1EB006F01D00120BBE50020B9E5FB
:102D2000000047420038024010B504460CB90120AB
:102D300010BD606A38B96068B0F5827F00D105E0E7
:102D40000021E16102E00021216161610021A162B5
:102D500094F8510028B9002084F85000204600F073
:102D600047F8022084F851002068006820F04000F5
:102D700021680860A08800F48270218901F4044170
:102D80000843A18901F400610843217C01F002019C
:102D90000843217D01F001010843218B01F40071FA
:102DA0000843217F01F0380108432021095D01F02B
:102DB00080010843218D01F4005108432168086017
:102DC0000421A06901EA104094F8241001F01001D8
:102DD0000843216848602068C06920F400602168C9
:102DE000C86100206065012084F8510000209FE741
:102DF00010B586B00446142101A8FDF71FFA1B493F
:102E00002068884230D100BF002000901848006838
:102E100040F48040164908600846006800F480408D
:102E2000009000BF00BF00BF002000901048103885
:102E3000006840F002000E4910390860084600683A
:102E400000F00200009000BF00BF4FF4604001900E
:102E5000022002900020039003200490052005909A
:102E600001A90448FFF738F906B010BD003800404A
:102E700040380240000402402DE9F84304468846E9
:102E800016461D464FF000096068B0F5827F0DD1EF
:102E9000A06858B9042084F85100334642464146A0
:102EA0002046009500F077F9BDE8F88300BF94F85C
:102EB0005000012801D10220F6E7012084F85000DB
:102EC00000BFFFF705FA074694F85100012802D029
:102ED0004FF002097EE0B8F1000F00D016B94FF0B4
:102EE000010977E0042084F8510000206065C4F8EF
:102EF0003880A687E6872063A086E0862064606429
:102F0000A068B0F5004F0BD12068006820F04000A9
:102F1000216808602068006820F48040216808600B
:102F20002068006800F04000402805D02068006854
:102F300040F0400021680860E068F8B91AE02068B5
:102F4000806800F0010050B12068007BA16B087020
:102F5000A06B401CA063E08F401EE0870AE0FFF7F3
:102F6000B7F9C01BA84201D3681C00B915B94FF0CE
:102F700003092FE0E08F0028E1D11EE01AE020686D
:102F8000806800F0010050B12068C068A16B088023
:102F9000A06B801CA063E08F401EE0870AE0FFF773
:102FA00097F9C01BA84201D3681C00B915B94FF0AE
:102FB00003090FE0E08F0028E1D13A462946204678
:102FC00001F092FB08B120206065606D08B14FF000
:102FD000010900BF012084F8510000BF002084F8DF
:102FE000500000BF48465FE72DE9F84F0446884689
:102FF00016461D464FF0000A00BF94F85000012805
:1030000002D10220BDE8F88F012084F8500000BFF3
:10301000FFF75EF90746B14694F85100012802D047
:103020004FF0020AADE0B8F1000F00D016B94FF032
:10303000010AA6E0032084F8510000206065C4F86E
:103040003080A686E686A063A087E087606420645F
:10305000A068B0F5004F0BD12068006820F0400058
:10306000216808602068006840F48040216808609A
:103070002068006800F04000402805D02068006803
:1030800040F0400021680860E068B0F5006F2FD183
:10309000606810B1B9F1010F09D1206B0088216877
:1030A000C860206B801C2063E08E401EE0861BE021
:1030B0002068806800F0020002280AD1206B008896
:1030C0002168C860206B801C2063E08E401EE08673
:1030D0000AE0FFF7FDF8C01BA84201D3681C00B945
:1030E00015B94FF0030A4CE0E08E0028E0D12EE045
:1030F000606810B1B9F1010F09D1206B0078216827
:103100000873206B401C2063E08E401EE0861BE0AD
:103110002068806800F0020002280AD1206B007845
:1031200021680873206B401C2063E08E401EE086FF
:103130000AE0FFF7CDF8C01BA84201D3681C00B914
:1031400015B94FF0030A1CE0E08E0028E0D13A46A2
:103150002946204601F012FB08B120206065A068D6
:1031600050B900BF002000902068C068009020681F
:103170008068009000BF00BF606D08B14FF0010A89
:1031800000BF012084F8510000BF002084F85000E7
:1031900000BF504636E72DE9FF5F0446884691465A
:1031A0001D460E9E012002900020019000BF94F861
:1031B0005000012803D1022004B0BDE8F09F012097
:1031C00084F8500000BFFFF783F8074694F851B029
:1031D00060680390AA46BBF1010F0BD00398B0F5CD
:1031E000827F04D1A06810B9BBF1040F02D0022085
:1031F0000190DBE0B8F1000F03D0B9F1000F00D06F
:1032000015B901200190D1E094F85100042802D0B2
:10321000052084F8510000206065C4F83890E587E7
:10322000A587C4F83080E586A586206460642068A0
:10323000006800F04000402805D02068006840F099
:10324000400021680860E068B0F5006F4AD160680E
:1032500010B1BAF1010F09D1206B00882168C86054
:10326000206B801C2063E08E401EE08633E02068E7
:10327000806800F00200022810D1E08E70B1029840
:1032800001280BD1206B00882168C860206B801C4E
:103290002063E08E401EE086002002902068806857
:1032A00000F0010068B1E08F58B12068C068A16BE0
:1032B0000880A06B801CA063E08F401EE087012087
:1032C0000290FFF705F8C01BB04204D3701C10B188
:1032D000032001906AE0E08E0028C8D1E08F00282A
:1032E000C5D14AE0606810B1BAF1010F09D1206B75
:1032F000007821680873206B401C2063E08E401E1C
:10330000E08634E02068806800F00200022810D1D6
:10331000E08E70B1029801280BD1206B00782168F3
:103320000873206B401C2063E08E401EE086002066
:1033300002902068806800F0010068B1E08F58B109
:103340002068C068A16B0870A06B401CA063E08F70
:10335000401EE08701200290FEF7BAFFC01BB0427A
:1033600001D3701C00B916B9032001901EE0E08E55
:103370000028C7D1E08F0028C4D13A463146204604
:1033800001F0FCF920B101200190202060650DE0E2
:10339000A06850B900BF002000902068C06800906D
:1033A00020688068009000BF00BF00BF012084F843
:1033B000510000BF002084F8500000BF0198FBE6D8
:1033C00070B504462546681EB0F1807F01D3012008
:1033D0000FE0681E4FF0E02148610F214FF0FF30F1
:1033E00002F07EFB00204FF0E02188610720086199
:1033F000002070BD30B502460B4600BF92F83C007D
:10340000012801D1022030BD012082F83C0000BF1C
:10341000022082F83D00106844681068816824F03A
:1034200070041868044310684460144D1068A84282
:1034300013D01068B0F1804F0FD0114D1068A84222
:103440000BD0104D1068A84207D00F4D1068A8424D
:1034500003D00E4D1068A84205D121F080015868B4
:10346000014310688160012082F83D0000BF002008
:1034700082F83C0000BF00BFC5E70000000001402B
:103480000004004000080040000C004000400140E3
:1034900010B504460CB9012010BD94F83D0028B9C0
:1034A000002084F83C00204600F026F8022084F832
:1034B0003D00211D206801F09DFA012084F846009E
:1034C00000BF84F83E0001213F20015540200155F6
:1034D0004120015500BF00BF012084F84200432075
:1034E0000155442001554520015500BF012084F8B5
:1034F0003D000020D0E7000008B50A4A016891426B
:103500000FD100BF002100910749096841F0010176
:10351000054A11601146096801F00101009100BFE0
:1035200000BF08BD00000140443802402DE9F041D1
:1035300004460D4600BF94F83C00012802D1022049
:10354000BDE8F081012084F83C0000BF022084F82F
:103550003D002068866826F0770626F47F462068BE
:1035600086602868502833D00CDC202850D004DC3A
:1035700000284BD0102851D149E0302849D04028AC
:103580004CD139E060282DD0702807D0B0F5805F8D
:1035900003D0B0F5005F41D10DE040E0D5E9021362
:1035A0006A68206801F089FA2068866846F0770624
:1035B0002068866033E0D5E902136A68206801F06C
:1035C0007CFA2068806840F480402168886026E0AA
:1035D000EA686968206801F084FA5021206801F0E7
:1035E00077FA1CE0EA686968206801F08DFA6021CA
:1035F000206801F06DFA12E0EA686968206801F05D
:1036000070FA4021206801F063FA08E000BF00BFB3
:1036100000BF2968206801F05BFA00E000BF00BF2E
:10362000012084F83D0000BF002084F83C0000BF6A
:1036300000BF85E710B50446042102A000F078FD24
:1036400010BD00004255470A0000000010B50446B6
:103650000CB9012010BD94F82C0010B9204600F0E0
:1036600013F808480460022084F82C00204601F07A
:1036700061FC002084F82D00012084F82C0000203B
:10368000E8E700000000002010B586B0044600BF47
:10369000002000903248006840F001003049086086
:1036A0000846006800F00100009000BF00BF00BFA6
:1036B000002000902A481438006840F4800028490F
:1036C000143908600846006800F48000009000BFCC
:1036D00000BF00BF002000900846006840F00100D5
:1036E00008600846006800F00100009000BF00BFBD
:1036F00000BF002000900846006840F0010008600C
:103700000846006800F00100009000BF00BF1548A7
:10371000154988624862C1141348018249004182F8
:10372000084601900120029000200390032004909D
:1037300001A90C48FEF7D0FC0C4802904FF4006041
:10374000019001A90748FEF7C7FC00221146282076
:10375000FEF74AFE2820FEF737FE06B010BD000037
:1037600044380240000002401C03002000002110E9
:103770002DE9F04104460D461646002794F82C70BA
:10378000012F01D0042F25D105B116B90120BDE8C4
:10379000F081E561268401206084002084F82D00FA
:1037A00094F82C00042803D1102084F82C0002E0A7
:1037B000082084F82C0008490848806AC163084939
:1037C0000648806AC16401220421064801F064F9B8
:1037D0000020DCE70220DAE7BD4B000814010020DE
:1037E000854B00080000014010B505490A780549DD
:1037F0000B880988491C034C21800349CA5410BD19
:1038000005000020060000206A0300202DE9F04199
:1038100004460D461646002794F82C70012F01D05F
:10382000082F3CD105B116B90120BDE8F0812683EF
:10383000656101206083002084F82D0094F82C003D
:10384000082803D1102084F82C0002E0042084F81A
:103850002C0014491448406AC16314491248406A54
:10386000C164608B01280CD12978114A204601F0EF
:103870002FFC012200210F4801F00EF9204601F033
:1038800087FC608B012808D1608BB04205DA608B21
:10389000295C094A204601F01BFC0020C5E70220F4
:1038A000C3E70000894C000814010020854B000884
:1038B000BC01002000000140EC010020704710B561
:1038C00004460CB9012010BDA06900B100E000BFA2
:1038D00094F83D0028B9002084F83C00204600F010
:1038E00027F8242084F83D002068C06820F40050A8
:1038F0002168C860204601F09FFC2068006920F420
:103900009040216808612068406920F02A00216801
:1039100048612068C06840F400502168C8600020F9
:103920002064202084F83D0084F83E000020CAE78F
:1039300010B586B00446142101A8FCF77FFC1B4992
:103940002068884230D100BF0020009018480068ED
:1039500040F01000164908600846006800F01000AA
:10396000009000BF00BF00BF002000901048143836
:10397000006840F001000E491439086008460068EC
:1039800000F00100009000BF00BF4FF4C060019044
:10399000022002900020039003200490072005904D
:1039A00001A90448FEF798FB06B010BD00100140C5
:1039B00044380240000002402DE9F84F04460E460C
:1039C000174699464FF0000A94F83D0020285AD136
:1039D00006B117B90120BDE8F88F00BF94F83C008C
:1039E000012801D10220F6E7012084F83C0000BF45
:1039F00000202064212084F83D00FEF769FC824607
:103A0000A784E784A068B0F5805F04D1206910B96D
:103A10000025B04602E035464FF0000800BF002008
:103A200084F83C0000BF1BE0534600228021204662
:103A3000CDF8009001F016FD08B10320CBE745B9A1
:103A4000B8F80000C0F308002168486008F10208D7
:103A500003E02878216848606D1CE08C401EE084FB
:103A6000E08C0028E0D15346002240212046CDF8CA
:103A7000009001F0F7FC08B10320ACE7202084F8A7
:103A80003D000020A7E70220A5E7000010B504468E
:103A90004FF4FA60FEF750FA22460DA1104801F0EB
:103AA000EBFF092C05DC0C220D490E4801F040F813
:103AB00004E00D220A490B4801F03AF84FF4FA717C
:103AC000084800F0D1FD012800D110BD0020FCE71E
:103AD0003041542B51494143543D25640D000000B1
:103AE000E61800201C03002010B504464FF4FA60CD
:103AF000FEF722FA22460DA1134801F0BDFF092C62
:103B000005DC19221049114801F012F804E01A22CC
:103B10000D490E4801F00CF84FF4FA710B4800F013
:103B2000A3FD012800D110BD0020FCE73041542B3B
:103B300051485454504346473D636F6E74657874E2
:103B400069642C25640D0000E61800201C03002089
:103B50002DE9FF5F04460F4615461E46DDE90E8A35
:103B60004FF4FA60FEF7E8F92846FCF772FB00F123
:103B7000140B3046FCF76DFB83444046FCF769FBB1
:103B8000584400F0FF09092C03DD09F1010000F0A1
:103B9000FF093B4622460BA112488DE8600501F063
:103BA0006BFF4A460F49104800F0C2FF4FF4FA710C
:103BB0000D4800F059FD012802D104B0BDE8F09F86
:103BC0000020FAE73041542B5149435347503D25DB
:103BD000642C25642C25732C25732C25732C2564CB
:103BE0000D000000E61800201C03002010B504465C
:103BF0004FF4FA60FEF7A0F922460DA1104801F03B
:103C00003BFF092C05DC0E220D490E4800F090FF09
:103C100004E00F220A490B4800F08AFF4FF4FA71C2
:103C2000084800F021FD012800D110BD0020FCE76C
:103C30003041542B514944454143543D25640D00C6
:103C4000E61800201C03002010B504464FF4FA606B
:103C5000FEF772F9224609A1104801F00DFF1E225D
:103C60000E490F4800F064FF4FF4FA710C4800F061
:103C7000FBFC012800D110BD0020FCE73041542B93
:103C800051485454504346473D726573706F6E738C
:103C9000656865616465722C25640D00E618002076
:103CA0001C03002070B505464FF4FA60FEF744F996
:103CB000002400262A4636A13A4801F0DDFE41F2F2
:103CC0007C513948FCF7BAFA10223649374800F0DF
:103CD0002FFF4FF4FA61354800F0C6FC04E04FF4C2
:103CE000FA61324800F0C0FC2F48FCF7B2FA1A28FB
:103CF000F5D3002007E02C49095C3A2901D104469C
:103D000005E0411CC8B22A4909888842F3DB00BF9C
:103D1000A01CC4B2231D224623492248FEF764F8A2
:103D2000052224A11F48FCF799FE20B10D2123A0F4
:103D300000F0FEF905E00A2124A000F0F9F90020C6
:103D400070BDA01DC4B2204608E01749095C0D29CA
:103D500002D1411ECEB205E0411CC8B21449098807
:103D60008842F2DB00BF41F27C510E48FCF766FA54
:103D7000334622460C490B48FEF736F8301B401CF0
:103D8000C1B2084800F0D4F90648FCF769FAD7E751
:103D90003041542B51485454504745543D25640DEF
:103DA00000000000E61800206A0300201C03002029
:103DB00008000020302C32303000000047657420AD
:103DC00073756363657373210A000000476574208F
:103DD0006661696C210A00002DE9F84F07460E461E
:103DE00014464FF4FA60FEF7A7F80025A8463846B7
:103DF000FCF72FFA00F1120A3046FCF72AFA824447
:103E00002046FCF726FA504400F0FF0933463A46B4
:103E100031A13848009401F02FFE4A463549364812
:103E200000F086FE4FF4FA61334800F01DFC334980
:103E30000978491EC8B207E03149095C202901D13F
:103E4000054603E0411EC8B20028F5DC00BF681C2F
:103E5000C5B22B48405D302804D1132129A000F0C1
:103E600067F902E00020BDE8F88F284609E0244900
:103E7000095C0D2903D1411E01F0FF0805E0411C3A
:103E8000C8B21E4909888842F1DB00BF2046FCF712
:103E9000E0F9A8EB0000401CC5B241F27C51154886
:103EA000FCF7CCF943462A4615491248FDF79CFF1A
:103EB0002046FCF7CEF900F0FF0A524621460D4895
:103EC000FCF7CCFD28B1102113A000F031F901203E
:103ED000C9E70020C7E700003041542B5148545433
:103EE0005047455445583D25732C25732C25730D9B
:103EF00000000000E61800201C030020080000203D
:103F00006A0300204765742072616E6765207375CF
:103F10006363657373210A004765742072616E677D
:103F20006520646F6E65210A000000002DE9F041F4
:103F300007460E464FF4FA60FDF7FEFF41F27C5152
:103F40004548FCF77BF9002400253A4643A1484840
:103F500001F092FD41F27C513F48FCF76FF91122CC
:103F60004349444800F0E4FD41F27071414800F0DB
:103F70007BFB41490988491E88B207E03649095C44
:103F80003A2901D1044603E0411E88B20028F5DC3D
:103F900000BFA01C84B23048005D302804D10E213F
:103FA00036A000F0C5F806E00B2138A000F0C0F8FC
:103FB0000020BDE8F081002437A1274800F081FCF3
:103FC000001D84B2701E204485B2012134A000F08F
:103FD000AFF821490819012100F0AAF81E4A611C16
:103FE0005018012100F0A4F801212DA000F0A0F844
:103FF00001212CA000F09CF8691E174A88180121A5
:1040000000F096F814494819012100F091F80121B7
:1040100024A000F08DF841F27C511548FCF70EF910
:104020002B4622460C491248FDF7DEFE01211EA058
:1040300000F07EF801210E4800F07AF8711E0C4A5B
:104040008818012100F074F8012117A000F070F821
:10405000281B401C80B2ACE76A0300203041542B7F
:104060005148545450524541443D25640D000000D0
:10407000E61800201C03002008000020526561643F
:104080002073756363657373210A00005265616470
:10409000206661696C210A000D0A0D0A000000000B
:1040A0002D0000002B0000002F00000070B504461A
:1040B0000D4616464FF4FA60FDF73EFF2B462246AA
:1040C00013A1184801F0D8FC642C05DB1422154913
:1040D000154800F02DFD08E0632C06DC0A2C04DBFB
:1040E00013221049104800F023FDC8210E4800F0AB
:1040F000BBFA224631460C4800F01AFD4FF4FA7123
:10410000094800F0B1FA012800D170BD0020FCE799
:104110003041542B514854545055524C3D25642C39
:1041200025640D00E61800201C03002000BFFEE7F8
:1041300070B504460D463CB14FF47A732A462146C9
:104140000548FFF739FC06E04FF47A730E2203A10D
:104150000148FFF731FC70BDD80200204461746152
:10416000204C6F67204E554C4C0A000000B587B0BC
:10417000142102A8FCF762F800BF002001902F482C
:10418000006840F002002D4908600846006800F011
:104190000200019000BF00BF00BF00200190084650
:1041A000006840F0040008600846006800F0040061
:1041B000019000BF00BF00BF0020019008460068CA
:1041C00040F0010008600846006800F0010001901E
:1041D00000BF00BF012241F238011948FEF772F812
:1041E00001224FF460711748FEF76CF841F2280085
:1041F000029001200390002004900320059002A962
:104200000F48FDF769FF4FF46070029001200390A2
:10421000002004900320059002A90A48FDF75CFFE6
:10422000102002901120039000200490032005909C
:1042300002A90348FDF750FF07B000BD3038024027
:10424000000402400008024010B50E480E49086004
:104250004FF48270486000210B488160C1600161A9
:1042600041614FF4007181610021C16101624162CD
:1042700081620A21C162FEF757FD08B1FDF782FC99
:1042800010BD0000003800403802002000B587B0A3
:10429000002003900490059006900190029013482E
:1042A0001349086000204860002111488160C16006
:1042B000016141618161FFF7EBF808B1FDF762FC34
:1042C0004FF48050039003A90948FFF72FF908B174
:1042D000FDF758FC00200190029001A90448FFF767
:1042E00089F808B1FDF74EFC07B000BD00000140A1
:1042F0009002002010B50B480B4908604FF4E130E4
:104300004860002108488160C16001610C21416161
:1043100000218161C161FFF7D2FA08B1FDF732FCDB
:1043200010BD000000100140D802002000BFFEE7D1
:1043300000BFFEE770470000F0B52DED108B89B08F
:10434000044600250026A078FCF710FB02466078A2
:10435000FCF70CFB02EB001099490870A079FCF700
:1043600005FB0746FCF7B3F841EC190B6079FCF745
:10437000FDFA07013846FCF799F89FED921B9FED77
:10438000930BCDE9060101F0C3FBB0EE40EAF0EE7D
:1043900060EA2079FCF7EAFA0746FCF798F841EC66
:1043A0001F0B53EC1E2BFCF70FF841EC1C0B9FED81
:1043B000891B9FED860B01F0ABFBB0EE40EAF0EEFF
:1043C00060EAE078FCF7D2FA0746FCF780F841ECA7
:1043D0001F0B53EC1E2BFBF7F7FF41EC1D0B53ECAF
:1043E0001C2BFBF74AFF41EC1B0B9DED060B53EC1E
:1043F000102BFBF742FF41EC1A0B53EC192BFBF788
:104400003CFF41EC180BFCF76FF86D494880207AAF
:10441000FCF7ACFA0246E079FCF7A8FA02EB0010D0
:1044200067490871084600784006050E05F10A0143
:10443000605CFCF79BFA024605F10901605CFCF741
:1044400095FA02EB00105E490876002D74DD0846EF
:104450000079002870D1202101A8FBF7EFFE00228F
:1044600008E002F10901605CFCF780FA01A98854B8
:10447000501CC2B2AA42F4DB00204CE0002250499A
:10448000083141F82020C100491C01AA525C01AB4F
:1044900013F8301042EA01124949083141F820204E
:1044A000C100C91C01AA525CC100891C595C42EAC6
:1044B00001124349083151F8201041EA02224049D3
:1044C000083141F82020C100491D01AA525CC100F9
:1044D000091D595C42EA01123949083151F820108E
:1044E00041EA02423649083141F82020C100C91D85
:1044F00001AA525CC100891D595C42EA011230498F
:10450000083151F8201041EA02622D49083141F882
:104510002020411CC8B20428B0DB29480078284973
:10452000097901442648408801EB20202449498824
:10453000C9B24618002011E03CE000210AE0204A00
:10454000083252F82020CB00DA40D2B2324496B280
:104550004A1CD1B20429F2DB411CC8B20428ECDBAE
:10456000F043401CC0B21649097E88421CD110217C
:104570001AA0FFF7DDFD00200FE01149083151F8C6
:1045800020101B4A1B4B1B6842F82310194909686D
:10459000491C184A1160411CC8B20428EDDB0120F7
:1045A00009B0BDEC108BF0BD102113A0FFF7C0FDCA
:1045B0000020F5E7132115A0FFF7BAFD0020EFE773
:1045C000D4CA0020000000000000004000000000ED
:1045D00000003040000000000000084043686563B0
:1045E0006B53756D2054727565210D0A0000000033
:1045F000942E002024000020436865636B53756D82
:104600002046616C73650D0A00000000446174610E
:10461000206E6F7420746F20466C6173680D0A0001
:1046200070B504460D46164601220D492046FFF797
:104630009FF80BE0FDF74CFE401BB04206D92078F6
:1046400040F001002070012006490870207800F039
:1046500001000028EED0207820F00100207070BD0D
:10466000050000200A00002070B505460C46002613
:1046700009E0FDF72DFE174908602246084601684B
:104680002846FFF7CDFF144800780028F1D000201D
:104690001149087011490988891F114A8818FCF7C7
:1046A000EFF900B101260E48FCF7C0F900B102266F
:1046B0000A49098811390A4A8818FCF7A1F900B19A
:1046C000032606480088074908800020034908801F
:1046D000304670BD100000200A00002006000020B7
:1046E0006A03002008000020F8B504460E4615466F
:1046F0006068B0F5827F0DD1A068B0F5004F03D09F
:10470000A068B0F5806F05D12068006820F04000F7
:10471000216808606068B0F5827F1FD1A068B0F59D
:10472000806F0DD03346002280212046009500F096
:104730005BF808B3606D40F0200060650320F8BDB1
:104740003346002201212046009500F04DF898B133
:10475000606D40F0200060650320F0E733460022E2
:1047600001212046009500F03FF828B1606D40F02F
:10477000200060650320E2E70020E0E77CB5044606
:104780000D461646164800681821B0FBF1F0154991
:10479000B0FBF1F04FF47A71484301906068B0F5D6
:1047A000827F0DD12B46002280212046009600F00A
:1047B0001BF898B1606D40F02000606503207CBD5F
:1047C00000BF019800B908E00198401E01902068E0
:1047D0008068C0F3C0100028F3D100BF0020EEE7CE
:1047E0003800002040420F002DE9F84F04460D46E6
:1047F00090461E46DDF82890FDF76AFDA0EB090003
:10480000371AFDF765FD82462C480068C0F3CB30AF
:104810007843009045E0701C002842D0FDF758FD19
:10482000A0EB0A00B84200D2A7BB2068406820F085
:10483000E000216848606068B0F5827F0DD1A06813
:10484000B0F5004F03D0A068B0F5806F05D12068A7
:10485000006820F0400021680860A06AB0F5005FA1
:104860000DD100BF2068006820F400502168086066
:104870002068006840F400502168086000BF0120F3
:1048800084F8510000BF002084F8500000BF0320CE
:10489000BDE8F88FFFE7009800B900270098401E98
:1048A0000090206880682840A84201D1012000E0E3
:1048B00000204045AFD10020EAE70000380000208A
:1048C00070472DE9F04105460E460024002730468A
:1048D000FBF7BFFC00F0FF0819E0285DF15D88429E
:1048E00012D103E0601C84B2781C87B2285DF15DB0
:1048F000884202D1285D0028F4D1474507D1A4EBB6
:10490000080080B2BDE8F081601C84B20027285DF9
:104910000028E2D12846FBF79CFC80B2F2E710B5F4
:10492000FDF7DCFC10BD000000B593B0302107A8F6
:10493000FBF784FC142102A8FBF780FC00BF0020D9
:1049400001902548006840F08050234908600846DF
:10495000006800F08050019000BF00BF00BF002041
:1049600001901E48006820F4404040F400401B497C
:1049700008600846006800F44040019000BF00BF96
:104980000220079001200A9010200B9002200D9029
:1049900000210E9108210F915421109102211191B3
:1049A0000421129107A8FDF771FF08B1FDF7EAF89D
:1049B0000F20029002200390002004904FF48050BA
:1049C000059000200690022102A8FDF75FFD08B1C6
:1049D000FDF7D8F813B000BD403802400070004029
:1049E0000348006840F47000014908607047000007
:1049F00088ED00E010B50268204B98420BD0B0F172
:104A0000804F08D01E4B984205D01E4B984202D0D2
:104A10001D4B984203D122F070024B681A43174B8A
:104A2000984214D0B0F1804F11D0154B98420ED05F
:104A3000144B98420BD0144B984208D0134B984219
:104A400005D0134B984202D0124B984203D122F466
:104A50004072CB681A4322F080034C6943EA040297
:104A600002608B68C3620B688362044B984201D179
:104A70000B6903630123436110BD00000000014086
:104A80000004004000080040000C004000400140CD
:104A9000004401400048014030B501F01F050124E9
:104AA00004FA05F3046A9C430462046A01F01F05DA
:104AB00002FA05F52C43046230BD30B50C4681681E
:104AC00021F47F4142EA032525432943816030BD1B
:104AD0000A46816821F0700142F0070319438160A2
:104AE000704730B50B461446026A056A25F0010589
:104AF0000562816921F0F00141EA041122F00A0205
:104B00001A438161026230BD30B50B461446056A16
:104B100025F0100505628169026A21F4704141EABD
:104B2000043122F0A00242EA03128161026230BD28
:104B300070B504460D461646204600F0C9FC0A2012
:104B4000FDF7FAF9204600F0C3FC0A20FDF7F4F95E
:104B5000324629462046FEF759FE18B10E2105A01F
:104B6000FFF7E6FA00BF2078C0F340000028FAD033
:104B700070BD00004572726F725F48616E646C6553
:104B8000720A000010B504460B480068007840F037
:104B900004000949096808700748006890F82D006A
:104BA00040F001000449096881F82D0002480068BE
:104BB000FEF740FD10BD00000000002070B5064665
:104BC000002400252B480068408C2A490968098C7C
:104BD00088424EDD28480068006820F00100264920
:104BE0000968086025480068C06820F4806023498F
:104BF0000968C8601F490968488C00EBD0714910EA
:104C0000A0EB410109B91E4C00E01E4CEAB221465E
:104C10001848006800F0B2F816490968CA691549D1
:104C20000968498C891E505412480068007840F089
:104C3000010010490968087000200E49096848847D
:104C40000C49096881F82D000A48006890F82C008A
:104C5000102805D104200749096881F82C0004E0D8
:104C600001200449096881F82C0002480068FEF719
:104C7000BBFD70BD00000020B40000201401002026
:104C80005C0100208C01002070B5054600243648E8
:104C90000068408B401C34490968488332480068EA
:104CA000408B31490968098B88421CDC2E4800681A
:104CB00000F06EFA2C490968488B00EBD07149105E
:104CC000A0EB410109B1294C00E0294C26480068BD
:104CD0004069254A1268528B815C2246224800684E
:104CE00000F0F6F93EE02348406A0068006820F0D2
:104CF00010012048406A006801601B480068007885
:104D000040F002001849096808701B4800680068F4
:104D100020F0010018490968086016480068C0685A
:104D200020F4007013490968C86000200E49096822
:104D300048830D49096881F82D000B48006890F8F8
:104D40002C00102805D108200749096881F82C009B
:104D500004E001200449096881F82C000248006839
:104D6000FEF7ACFD70BD000000000020EC0100204B
:104D7000BC01002014010020540000202DE9F04760
:104D800004460D4617460026B046B246B146A07B03
:104D900018B1207BA0F1010801E094F80C80207B81
:104DA000401C55F82000218A0840884219D031481B
:104DB0000068007840F004002E490968087094F8F3
:104DC0002D0040F0010084F82D002B48006820F0F1
:104DD0000800294908602046FEF72CFC4FF0000A25
:104DE00044E000260DE0701C55F82000218A0840A0
:104DF000884205D10120B0403843C7B209F101090A
:104E0000761C4645EFD3A07B022811D109F00100A2
:104E100070B908F1010055F82000218A0840884245
:104E200006D0207840F0080020702046FEF702FCF3
:104E3000A07B012817D109F00100A0B108F1010001
:104E400055F82000218A084088420CD0207840F094
:104E50000800207094F82D0040F0040084F82D0024
:104E60002046FEF7E7FB4FF00009BA460AF0FF00C4
:104E7000BDE8F08700000020003C0140F0B50023B1
:104E8000002500240022274EF26A0D46466A06F1EC
:104E90001003077B467B3E44741C234E36683668FD
:104EA00046F01006204F3F683E601F4E3668366859
:104EB00046F004061C4F3F683E601B4E3668746027
:104EC000194E3668B360184E3668F560164E36686F
:104ED000366846F00106144F3F683E60134E366850
:104EE000768C012E03D090F82C60102E09D00D4E38
:104EF000766A06EB5206B6FBF2F702FB1766094F1D
:104F0000BE630B4E3668F66846F48066084F3F680D
:104F1000FE60074E3668366846F00106044F3F686B
:104F20003E60F0BD00000140B40000200000002001
:104F3000140100202DE9F04104460025FDF74EFC48
:104F40000646FDF73BFCB6FBF0F0012801D1012637
:104F500000E00026FDF742FC0746FDF72FFCB7FBFB
:104F6000F0F0022801D1012000E00020064336B114
:104F7000FDF734FCA168B0FBF1F0451E06E0FDF73B
:104F80001DFC4100A068B1FBF0F0451E0F48104920
:104F900008600846C5600020486000210C48016197
:104FA0008160FEF775FA2079022802D100F04AF8F4
:104FB00009E02079012802D100F00CF803E000F0AC
:104FC00041F800F007F8BDE8F08100000000014062
:104FD0001401002010B54FF04060174948600021CF
:104FE00015488160C1604FF48061016189004161B1
:104FF000890081610021C1614FF4403101620021CB
:105000004162032181620021C16201630B480A49A8
:10501000086000BF0A488162886300BF0146886A51
:10502000FCF7F2FE012200213A20FDF7DDF93A20DB
:10503000FDF7CAF910BD0000B40000204064024032
:105040001401002010B51E4A1268518A1C4A1268C9
:10505000906A0122FDF736F94FF040601949486027
:105060004021184881600021C1604FF480610161D6
:1050700089004161890081610021C1614FF44031A3
:10508000016200214162032181620021C16201634A
:105090000D480C4908600D48406A886300BF0B4802
:1050A0004162886300BF0146486AFCF7ADFE0322F7
:1050B00011463920FDF798F93920FDF785F910BD23
:1050C0000000002054000020286402401401002049
:1050D000F0B504460D460021002000230026237B66
:1050E000608AA77B9FB900BF0EE045FA01F707F081
:1050F00001071FB14F1C42F8270004E04FEA004CA3
:105100004F1C42F827C0491C9942EED314E00021FD
:105110000FE045FA01F707F0010727B14F1C42F8ED
:105120002700761C04E04FEA004C4F1C42F827C0D1
:10513000491C5F1E8F42ECD8A77B012F0BD0022F9A
:1051400013D106F0010717B942F8230002E0070463
:1051500042F823700AE006F001071FB9070442F87D
:10516000237001E042F8230000E000BF00BF070405
:105170001760677B012F03D15F1C42F8270005E011
:105180005F1C42F827009F1C42F827000026F0BD54
:1051900030B5002200230024224D2D68698B01EBDD
:1051A000D1756D10A1EB45050DB11F4A00E01F4AF6
:1051B000816A01F11803057B417B29444C1C1C4981
:1051C00009684C601A4909688B6019490968CA6006
:1051D00017490968096841F01001154D2D682960CB
:1051E00013490968096841F00401114D2D682960CF
:1051F0000F490968096841F001010D4D2D682960CA
:105200000C490968C96841F400710A4D2D68E960CC
:1052100008490968096841F00101064D2D682960B7
:1052200030BD000000000020BC010020EC01002087
:1052300054000020140100202DE9F84F0446206896
:10524000006920F44050E168084321680861216941
:10525000A068084361690843E16908430090206839
:10526000C06849F20C618843009908432168C8600E
:105270002068406920F44070A169084321684861B2
:1052800076492068884203D075492068884203D156
:10529000FDF794FA814602E0FDF780FA8146E06965
:1052A000B0F5004F6CD102206168A0FB01500346AD
:1052B0001920A9FB007001462A463846FAF786FFF6
:1052C0006421B0FBF1F04FEA001A02206168A0FBF4
:1052D00001510B461920A9FB00712A463846FAF7FE
:1052E00075FF834602206168A0FB01500346192028
:1052F000A9FB00712A463846FAF768FF6421B0FB23
:10530000F1F000EBC00101EB0010ABEB80003221AB
:1053100001EBC0006421B0FBF1F000F0F8000AEBF3
:10532000400A02206168A0FB015003461920A9FB36
:10533000007001462A463846FAF748FF83460220A5
:105340006168A0FB015003461920A9FB00712A46A1
:105350003846FAF73BFF6421B0FBF1F000EBC001E7
:1053600001EB0010ABEB8000322101EBC0006421A7
:10537000B0FBF1F000F007005044216888606AE05B
:1053800004206168A0FB015003461920A9FB0070AE
:1053900001462A463846FAF719FF8246042061681A
:1053A000A0FB015003461920A9FB007001462A46C4
:1053B0003846FAF70BFF6421B0FBF1F000EBC001B7
:1053C00001EB0010AAEB8000322101EB00106421F8
:1053D000B0FBF1F000F0F00A04206168A0FB01705E
:1053E00003461920A9FB00513A462846FAF7EEFE7B
:1053F0006421B0FBF1F00AEB001A04206168A0FB05
:1054000001510B461920A9FB00712A463846FAF7CC
:10541000DDFE834604206168A0FB0150034619208D
:10542000A9FB007001462A463846FAF7CFFE6421F0
:10543000B0FBF1F000EBC00101EB0010ABEB800022
:10544000322101EB00106421B0FBF1F000F00F00FD
:10545000504421688860BDE8F88F000000100140CA
:10546000001401402DE9F04104460D4617469846C8
:10547000069E21E0701CF8B12EB1FCF729FFA0EBCD
:105480000800B04218D92068C06820F4D0702168A4
:10549000C8602068406920F0010021684861202030
:1054A00084F83D0084F83E0000BF002084F83C00F2
:1054B00000BF0320BDE8F081206800682840A842B2
:1054C00001D1012000E00020B842D3D00020F1E754
:1054D00010B50446032020714FF49651A1600121BC
:1054E00061730021A173082121732046FEF7AEF8F5
:1054F00018B14FF4FA70FCF71FFD10BD00BFFEE7B6
:1055000010B500224FF480510748FCF7DBFE06205F
:1055100000F096F9012211030348FCF7D3FE0120A5
:10552000FCF70AFD10BD00000004024010B500BFEA
:105530001148407E0128FBD001200F494876FFF733
:10554000DFFF00224FF480510C48FCF7BBFEC72060
:1055500000F076F9012211030848FCF7B3FE00F0D1
:1055600081F9152106A0FEF7E3FD0A20FCF7E4FC13
:1055700000200149487610BD1C02002000040240B2
:105580004572617365206368697020737563636534
:10559000737321210A00000000B585B00120324953
:1055A0004876012201033148FCF78CFE20202E4969
:1055B00088820001C88100014881401108810001F2
:1055C00088810001086100F013F9012000F0D8F88B
:1055D000022000F0D5F8032000F0D2F80C2124A01E
:1055E000FEF7A6FD2048828A24A1684600F044FA0E
:1055F0000F216846FEF79CFD1B48C28923A168461F
:1056000000F03AFA10216846FEF792FD16484289EA
:1056100022A1684600F030FA0F216846FEF788FDA7
:105620001148028921A1684600F026FA0F21684638
:10563000FEF77EFD0C48828920A1684600F01CFA26
:1056400012216846FEF774FD074821A102696846E9
:1056500000F012FA12216846FEF76AFD00200249A6
:105660004876012005B000BD1C0200200004024065
:10567000496E697469616C697A650A004E756D429C
:105680006C6F636B203D2025640A00004E756D53DE
:105690006563746F72203D2025640A004E756D505D
:1056A000616765203D2025640A00000053697A6522
:1056B00050616765203D2025640A000053697A65C2
:1056C000536563746F72203D2025640A000000005A
:1056D00053697A65426C6F636B203D2025640A0034
:1056E00030B585B005460C4600BF1D48407E0128F8
:1056F000FBD001201A49487600F0B4F800224FF49C
:1057000080511848FCF7DEFD0B2000F099F8C4F337
:10571000074000F095F8C4F3072000F091F8E0B2DC
:1057200000F08EF8A52000F08BF8642301222946B2
:105730000D48FDF7A1FB012211030A48FCF7C2FD49
:1057400000F090F82A7809A1684600F095F90F2139
:105750006846FEF7EDFC00200149487605B030BDF3
:105760001C020020000402403802002052656164DF
:105770002061206279746520253032780A000000AB
:1057800070B50546002400224FF480511648FCF7FE
:1057900099FD012D02D0022D14D109E0052000F061
:1057A0004FF8A52000F04CF804461048847513E02B
:1057B000352000F045F8A52000F042F804460B48DB
:1057C000C47509E0152000F03BF8A52000F038F87A
:1057D00004460648047600BF00BF012211030248B8
:1057E000FCF770FD204670BD000402401C02002042
:1057F00010B500224FF480510F48FCF763FD4B2099
:1058000000F01EF8002404E0A52000F019F8601C48
:10581000C4B2042CF8DB002406E0A52000F010F848
:1058200006490855601CC4B2082CF6DB012211039E
:105830000148FCF747FD10BD000402401C02002097
:1058400001B582B0002001906420012301AA02A9C1
:1058500000900348FDF79FFC9DF804000EBD00007A
:105860003802002010B50120FCF766FB00224FF43F
:1058700080510D48FCF726FD0520FFF7E1FF00BF32
:10588000A520FFF7DDFF094988750120FCF754FBCF
:105890000648807D00F001000028F1D101221103AB
:1058A0000148FCF70FFD10BD000402401C0200205F
:1058B00070B505460C4600BF1848407E0128FBD055
:1058C000012016494876FFF7CDFFFFF719FE0022A9
:1058D0004FF480511248FCF7F5FC0220FFF7B0FFAF
:1058E000C4F30740FFF7ACFFC4F30720FFF7A8FF9E
:1058F000E0B2FFF7A5FF2846FFF7A2FF0122110340
:105900000748FCF7DFFCFFF7ADFF152105A0FEF708
:105910000FFC00200149487670BD00001C020020E9
:1059200000040240577269746520612062797465D1
:1059300020535543434553530A0000002DE9F041DD
:105940000746884614461D46002600BF2048407E74
:105950000128FBD001201E49487628190989884270
:1059600003DD1B480089001B85B2FFF77BFF184849
:10597000008908FB0046FFF7C3FD00224FF4805169
:105980001448FCF79FFC0220FFF75AFFC6F30740BC
:10599000FFF756FFC6F30720FFF752FFF0B2FFF7FD
:1059A0004FFF64232A4639460B48FDF71DFB0122B1
:1059B00011030848FCF786FCFFF754FF152107A0E8
:1059C000FEF7B6FB002002494876BDE8F0810000F2
:1059D0001C02002000040240380200205772697443
:1059E00065207061676520535543434553530A0052
:1059F00070B50E2114A0FEF79BFBFCF707FBF3200C
:105A00001549086002210520FCF7C2F800240FE0C8
:105A1000124850F824502A460023114801680220F9
:105A2000FCF7A8FA0E480068001D0D490860641CC8
:105A30000C4800688442EBD3FCF792FA0C210AA0D0
:105A4000FEF776FB70BD00000D0A53746172744658
:105A50006C6173680D0A00000C3C0240942E00201B
:105A600020000020240000200D0A456E64466C6171
:105A700073680D0A000000000FB4084B10B504A9AC
:105A800002AA039800F052FF044602A9002001F088
:105A90007EF9204610BC5DF814FB00008F6D0008F5
:105AA00003B401984100009850EAC12018BF0420B7
:105AB0004A0D18BF40F0010040F2FF72B2EB515F97
:105AC00008BF40F00200012808BF052002B070475F
:105AD00002480068C0F30220704700000CED00E0AF
