:020000040800F2
:10000000F80B0020A9010008494100080736000844
:10001000454100087D0700088152000800000000EB
:10002000000000000000000000000000F94400088B
:100030004F1A0008000000004D4100082546000846
:10004000C3010008C3010008C3010008C301000880
:10005000C3010008C3010008C3010008C301000870
:10006000C3010008C3010008C3010008C301000860
:10007000C3010008C3010008C3010008C301000850
:10008000C3010008C3010008C3010008000000000C
:10009000000000000000000000000000C301000894
:1000A000C3010008C3010008C3010008C301000820
:1000B000C3010008C3010008C3010008C301000810
:1000C000C3010008C3010008C3010008C301000800
:1000D000C3010008C3010008C301000800000000BC
:1000E000B51A0008C3010008C301000800000000A1
:1000F000000000000000000000000000C301000834
:1001000000000000C3010008C3010008C30100088B
:1001100000000000000000000000000000000000DF
:10012000C30100088D09000869110008C301000817
:10013000C3010008000000000000000000000000F3
:10014000000000000000000000000000C3010008E3
:10015000C3010008C3010008C3010008C30100086F
:10016000C3010008C30100080000000000000000F7
:10017000000000000000000000000000000000007F
:1001800000000000C30100080000000000000000A3
:10019000C3010008DFF80CD000F0CAFA004800479D
:1001A00089630008F80B002006488047064800478E
:1001B000FEE7FEE7FEE7FEE7FEE7FEE7FEE7FEE717
:1001C000FEE7FEE7E5460008950100082DE9F05F2F
:1001D0000546002092469B468846064681464024B6
:1001E0001BE0284641464746224600F083F9534625
:1001F0005A46C01A914110D311461846224600F0C3
:100200006AF92D1A67EB01084F46224601200021AA
:1002100000F061F917EB00094E41201EA4F1010422
:10022000DFDC484631462A464346BDE8F09FD2B25D
:1002300001E000F8012B491EFBD270470022F6E7CF
:1002400010B513460A4604461946FFF7F0FF20464C
:1002500010BD421E12F8013F002BFBD111F8013BEB
:1002600002F8013B002BF9D17047421C10F8011B2A
:100270000029FBD1801A70472DE9FE4F804681EAA4
:100280000300C00F0C46009021F0004123F0004510
:10029000B8EB0200A94105D24046214690461C46D3
:1002A0000B46024623F00040104347D0270DC7F30A
:1002B0000A00C3F30A510290401A019040286BDAF9
:1002C000C3F3130040F4801B0098924620B1002332
:1002D000D2EB030A63EB0B0B01985946C0F14002C5
:1002E000504600F0F8F806460D4650465946019A29
:1002F00000F010F910EB08006141002487EA115268
:1003000084EAE7731A4340D0009A62B3019A012A43
:100310004FEA075215DC001B61EB02014FF000426F
:1003200002EA0752CDE90042001C41F58011324635
:100330002B4600F010F903B0BDE8F08F404621468F
:10034000F9E7001B61EB0201001C41F58013001866
:100350005B412018A2F5001747EB030140EAD57076
:10036000B6196D4111E06D084FEA360645EAC075D1
:100370004FEA0752001B61EB0201001C41F580119E
:1003800049084FEA30000019514132462B4603B06C
:10039000BDE8F04F00F0D0B80098012240000023E3
:1003A000D0EB020263EBE073009821464FEAE07461
:1003B000B8EB000061EB0401E9E783F000435BE781
:1003C00081F0004158E72DE9FE4F81EA030404F073
:1003D000004421F0004100944FF0000B23F0004353
:1003E00050EA01045ED052EA03045BD0C3F30A541E
:1003F000C1F30A552C44A4F2F3340194A0FB025437
:10040000C1F3130141F48011C3F3130343F48013C8
:1004100001FB024400FB034E840A970A44EA81541C
:1004200047EA8357A4FB076802958D0A05FB0785F9
:100430004FEA932C04FB0C542705029D4FEA065803
:1004400047EA1637B5EB08056EEB070C870E920EE0
:1004500047EA811742EA8312A7FB0201B6EB0B01C0
:1004600064EB00042B0D43EA0C335E1844EB1C5084
:10047000DA465146E7FB0201C5F313044FEA0B339A
:1004800043EA14534FEA0432019C43EA0603A4F101
:100490000C040294009CCDE900B400F05CF803B0B9
:1004A000BDE8F08F00200146F9E730B50B46014664
:1004B00000202022012409E021FA02F59D4205D303
:1004C00003FA02F5491B04FA02F52844151EA2F1AD
:1004D0000102F1DC30BD202A04DB203A00FA02F1EF
:1004E000002070479140C2F1200320FA03F3194322
:1004F00090407047202A04DB203A21FA02F00021C4
:10050000704721FA02F3D040C2F120029140084323
:1005100019467047202A06DBCB17203A41FA02F031
:1005200043EAE07306E041FA02F3D040C2F1200250
:10053000914008431946704710B5141E73F100042A
:1005400008DA401C41F1000192185B411A4301D1C5
:1005500020F0010010BD2DE9F04D92469B4611B1EF
:10056000B1FA81F202E0B0FA80F220329046FFF751
:10057000B2FF04460F4640EA0A0041EA0B01534627
:100580005A46084313D0114653EA010019D0C8F166
:1005900040025046FFF7AEFF05460E46504659460C
:1005A0004246FFF798FF084305D0012004E02046AB
:1005B0003946BDE8F08D0020054346EAE0762C433D
:1005C00037430A986305E40AA0EB08000022FD0AFD
:1005D00044EA47540A3002D500200146E9E7010504
:1005E00010196941DDE9084500196941BDE8F04D80
:1005F000A2E72DE9F04D81EA030404F0004B21F05D
:10060000004514464FF0000A23F0004150EA05026D
:1006100020D054EA01021DD0C5F30A570246C5F3A3
:100620001303C1F31300C1F30A5640F4801543F4D9
:100630008013A7EB0608101BD64608F2FD3873EBB3
:10064000050002D308F1010801E092185B41B8F1FE
:10065000000F03DA00200146BDE8F08D00204FF4C2
:100660008011064684460EE0171B73EB050705D381
:10067000121B63EB050306434CEA010C49084FEAE1
:10068000300092185B4150EA0107EDD152EA0300B5
:1006900012D082EA040083EA0501084305D0101B4A
:1006A000AB4106D20122002306E000224FF00043B6
:1006B00002E06FF0010253101AEB06004CEB0851F8
:1006C00010EB0A0041EB0B01BDE8F04DFFF734BF22
:1006D000C1F30A52C1F3130140F2FF3341F4801118
:1006E0009A4202DA00200146704740F233439A42B0
:1006F000A2F2334202DC5242FFF7FCBEFFF7EBBE30
:1007000030B5041E71F1000404DB4FF00044404298
:1007100064EB0101141E73F1000405DB1C464FF06D
:100720000043524263EB0403994208BF904230BD3C
:10073000064C074D06E0E06840F0010394E807002E
:1007400098471034AC42F6D3FFF728FD38750008FF
:100750005875000810B54FF4C071074801F032FC1D
:10076000C82001F0E3FA4FF4C071034801F02AFCFD
:10077000C82001F0DBFA10BD0008024000BFFEE710
:1007800010B54FF47A7001F0D1FA09220AA10D4890
:1007900004F050F84FF4AF710A4803F035FD01281A
:1007A00004D1072108A002F031FF03E0082108A0CE
:1007B00002F02CFF10BD00003041542B4950523F35
:1007C0000D0000003C0300205245535F4F4B0A00D0
:1007D0005245535F4552520A0000000010B54FF4D5
:1007E0007A7001F0A3FA0A220AA10D4804F022F857
:1007F00041F288310A4803F007FD012804D107219E
:1008000008A002F003FF03E0082108A002F0FEFEAA
:1008100010BD00003041542B4350494E3F0D0000A5
:100820003C0300205245535F4F4B0A005245535F33
:100830004552520A0000000010B54FF47A7001F0E2
:1008400075FA0D2211A1154803F0F4FF4FF4AF71B2
:10085000124803F0D9FC01280ED1072110A002F0A4
:10086000D5FE18231A461049104801F0DAF9012183
:100870000E4802F0CBFE03E008210DA002F0C6FEF8
:1008800001220EA1094800F049F810BD3041542B57
:100890005153494D4445543F0D0000003C03002096
:1008A0005245535F4F4B0A008A0300208A04002000
:1008B0005245535F4552520A0000000031000000CB
:1008C00010B50446112204A1204600F027F808B113
:1008D000012010BD0020FCE70D0A2B514D5453544C
:1008E00041543A20302C310D0A00000010B5044666
:1008F000062300222146064801F093F9072205A1AC
:10090000034800F00BF808B1012010BD0020FCE7FF
:100910008A0400200D0A2B434D54490030B503468C
:1009200009E013F8014B11F8015BAC4201D0002043
:1009300030BD501EC2B2002AF3D10120F8E70000FA
:1009400010B50446062204A12046FFF7E7FF08B1D0
:10095000012010BD0020FCE70D0A4F4B0D0A0000DE
:1009600070B505460C460A2C07DA3020287022465E
:1009700005A1681C05F06AF804E0224602A1284699
:1009800005F064F870BD00002564000010B5FE4855
:10099000406A0068FD49884276D9FC4854380068AE
:1009A000F949496A0968FA4A914201D1082169E086
:1009B000F549496A0968F54A483A914201D1082146
:1009C00060E0F149496A0968F14A6032914201D117
:1009D000082157E0EC49496A0968EC4A183291420B
:1009E00001D108214EE0E849496A0968E84A18320D
:1009F000914201D1491545E0E349496A0968E34A52
:100A0000303A914201D149153CE0DF49496A096811
:100A1000DF4A7832914201D1491533E0DA49496A17
:100A20000968DA4A3032914201D149152AE0D649A3
:100A3000496A0968D64A3032914202D14FF4002106
:100A400020E0D149496A0968D04A183A914202D156
:100A50004FF4002116E0CC49496A0968CC4A90322B
:100A6000914202D14FF400210CE0C749496A09685C
:100A7000C64A4832914203D14FF4002102E003E01C
:100A80004FF00071084070E1BF48406A0068C049FB
:100A9000A831884276D9BD4858380068BA49496AB1
:100AA0000968BB4A914201D1082169E0B649496A07
:100AB0000968B64A483A914201D1082160E0B2493A
:100AC000496A0968B24A6032914201D1082157E06F
:100AD000AD49496A0968AD4A1832914201D10821ED
:100AE0004EE0A949496A0968A94A1832914201D1E0
:100AF000491545E0A449496A0968A44A303A914237
:100B000001D149153CE0A049496A0968A04A7832F8
:100B1000914201D1491533E09B49496A09689B4AD2
:100B20003032914201D149152AE09749496A096852
:100B3000974A3032914202D14FF4002120E092498D
:100B4000496A0968914A183A914202D14FF400214A
:100B500016E08D49496A09688D4A9032914202D166
:100B60004FF400210CE08849496A0968874A4832F5
:100B7000914203D14FF4002102E003E04FF00071F5
:100B80000840F2E08048406A006881494831884264
:100B900076D97F48103840687B49496A09687C4AA1
:100BA000914201D1082169E07749496A0968774A89
:100BB000483A914201D1082160E07349496A0968C5
:100BC000734A6032914201D1082157E06E49496A67
:100BD00009686E4A1832914201D108214EE06A49F3
:100BE000496A09686A4A1832914201D1491545E0BB
:100BF0006549496A0968654A303A914201D1491507
:100C00003CE06149496A0968614A7832914201D100
:100C1000491533E05C49496A09685C4A30329142BF
:100C200001D149152AE05849496A0968584A3032C1
:100C3000914202D14FF4002120E05349496A0968EA
:100C4000524A183A914202D14FF4002116E04E491F
:100C5000496A09684E4A9032914202D14FF400210C
:100C60000CE04949496A0968484A4832914203D12F
:100C70004FF4002102E003E04FF00071084074E0FF
:100C80004348103800684049496A0968404A91421F
:100C900001D1082168E03C49496A09683B4A483A61
:100CA000914201D108215FE03749496A0968384A11
:100CB0006032914201D1082156E03349496A0968FE
:100CC000324A1832914201D108214DE02E49496A39
:100CD00009682F4A1832914201D1491544E02A4946
:100CE000496A0968294A303A914201D149153BE0E5
:100CF0002549496A0968264A7832914201D1491545
:100D000032E02149496A0968204A3032914201D1D2
:100D1000491529E01C49496A09681D4A3032914247
:100D200002D14FF400211FE01749496A0968174AA8
:100D3000183A914202D14FF4002115E01249496A54
:100D40000968134A9032914202D14FF400210BE01E
:100D50000D49496A09680D4A4832914202D14FF45F
:100D6000002101E04FF00071084010B1094803F084
:100D7000B5FD0548406A0068044988427CD90248AC
:100D8000406A0068024907E03001002058640240D0
:100D90001060024070000020884201D1202067E0EE
:100DA000EE48406A0068EE49884201D120205FE0A9
:100DB000EA48406A0068EB49884201D1202057E0A8
:100DC000E648406A0068E6496031884201D1202047
:100DD0004EE0E248406A0068E2494839884201D161
:100DE000C01445E0DD48406A0068DD49183188429A
:100DF00001D1C0143CE0D948406A0068D949183193
:100E0000884201D1C01433E0D448406A0068D44914
:100E10007831884201D1C0142AE0D048406A006885
:100E2000D0493039884202D14FF4001020E0CB483D
:100E3000406A0068CA493031884202D14FF400103C
:100E400016E0C648406A0068C6493031884202D17F
:100E50004FF400100CE0C148406A0068C04990316E
:100E6000884203D14FF4001002E005E04FF000602B
:100E7000BB49091F08606AE1B848406A0068B9497F
:100E80004831884274D9B548406A0068B54960392C
:100E9000884201D1202066E0B048406A0068B0492D
:100EA000884201D120205EE0AC48406A0068AD492C
:100EB000884201D1202056E0A848406A0068A8492D
:100EC0006031884201D120204DE0A448406A00688A
:100ED000A4494839884201D1C01444E09F48406A7F
:100EE00000689F491831884201D1C0143BE09B48FB
:100EF000406A00689B491831884201D1C01432E031
:100F00009648406A006896497831884201D1C014F9
:100F100029E09248406A006892493039884202D1FB
:100F20004FF400101FE08D48406A00688C49303152
:100F3000884202D14FF4001015E08848406A0068EA
:100F400088493031884202D14FF400100BE08348C9
:100F5000406A006882499031884202D14FF4001003
:100F600001E04FF000607E4908390860EFE0FFE7DC
:100F70007A48406A00687B491839884274D97748B2
:100F8000406A006877496039884201D1202066E0D4
:100F90007248406A00687249884201D120205EE0B0
:100FA0006E48406A00686F49884201D1202056E0AF
:100FB0006A48406A00686A496031884201D120204D
:100FC0004DE06648406A006866494839884201D168
:100FD000C01444E06148406A0068614918318842A1
:100FE00001D1C0143BE05D48406A00685D4918319A
:100FF000884201D1C01432E05848406A006858491C
:101000007831884201D1C01429E05448406A006810
:1010100054493039884202D14FF400101FE04F4844
:10102000406A00684E493031884202D14FF40010C6
:1010300015E04A48406A00684A493031884202D186
:101040004FF400100BE04548406A00684449903175
:10105000884202D14FF4001001E04FF00060414996
:101060007039C86073E0FFE73C48406A00683D495A
:101070006039884201D1202066E03848406A006823
:101080003749884201D120205EE03448406A006838
:101090003449884201D1202056E03048406A006837
:1010A0002F496031884201D120204DE02B48406A11
:1010B00000682C494839884201D1C01444E02748CF
:1010C000406A006826491831884201D1C0143BE0CB
:1010D0002248406A006823491831884201D1C0146F
:1010E00032E01E48406A00681D497831884201D1CB
:1010F000C01429E01948406A00681A49303988420A
:1011000002D14FF400101FE01448406A00681449EF
:101110003031884202D14FF4001015E00F48406A88
:10112000006810493031884202D14FF400100BE0C2
:101130000A48406A00680A499031884202D14FF457
:10114000001001E04FF00060064970398860034AE2
:10115000506A526AD16B884710BD000030010020F0
:10116000106402407060024010B5F8480068408C7E
:10117000401CF64909684884F5480068F349096845
:10118000098A0843F2490860F248806A0068F24917
:10119000884276D9F04854380068EE49896A09686F
:1011A000EE4A914201D1082169E0EA49896A096859
:1011B000E94A483A914201D1082160E0E549896A4B
:1011C0000968E64A6032914201D1082157E0E149BD
:1011D000896A0968E04A1832914201D108214EE03B
:1011E000DC49896A0968DD4A1832914201D1491502
:1011F00045E0D849896A0968D74A303A914201D115
:1012000049153CE0D349896A0968D44A7832914249
:1012100001D1491533E0CF49896A0968CE4A303295
:10122000914201D149152AE0CA49896A0968CB4A25
:101230003032914202D14FF4002120E0C549896A41
:101240000968C54A183A914202D14FF4002116E0CC
:10125000C049896A0968C14A9032914202D14FF46B
:1012600000210CE0BB49896A0968BB4A48329142B7
:1012700003D14FF4002102E003E04FF00071084079
:101280007AE1B448806A0068B449A831884276D9C6
:10129000B14858380068AF49896A0968AF4A914235
:1012A00001D1082169E0AB49896A0968AA4A483A2C
:1012B000914201D1082160E0A649896A0968A74ADC
:1012C0006032914201D1082157E0A249896A096838
:1012D000A14A1832914201D108214EE09D49896A04
:1012E00009689E4A1832914201D1491545E0994951
:1012F000896A0968984A303A914201D149153CE01F
:101300009449896A0968954A7832914201D1491510
:1013100033E09049896A09688F4A3032914201D19D
:1013200049152AE08B49896A09688C4A3032914212
:1013300002D14FF4002120E08649896A0968864A73
:10134000183A914202D14FF4002116E08149896A8E
:101350000968824A9032914202D14FF400210CE098
:101360007C49896A09687C4A4832914203D14FF42A
:10137000002102E003E04FF000710840FCE07548F6
:10138000806A006875494831884276D973481038B8
:1013900040687049896A0968704A914201D1082100
:1013A00069E06C49896A09686B4A483A914201D1FF
:1013B000082160E06749896A0968684A6032914299
:1013C00001D1082157E06349896A0968624A1832E5
:1013D000914201D108214EE05E49896A09685F4A5D
:1013E0001832914201D1491545E05A49896A096884
:1013F000594A303A914201D149153CE05549896A30
:101400000968564A7832914201D1491533E0514971
:10141000896A0968504A3032914201D149152AE05F
:101420004C49896A09684D4A3032914202D14FF4E1
:10143000002120E04749896A0968474A183A9142E1
:1014400002D14FF4002116E04249896A0968434AF3
:101450009032914202D14FF400210CE03D49896A5B
:1014600009683D4A4832914203D14FF4002102E01D
:1014700003E04FF0007108407EE038481038006803
:101480003449896A0968354A914201D1082172E0DC
:101490003049896A0968304A483A914201D10821A5
:1014A00069E02C49896A09682C4A6032914201D16D
:1014B000082160E02749896A0968274A1832914261
:1014C00001D1082157E02349896A0968234A183263
:1014D000914201D149154EE01E49896A09681E4AA8
:1014E000303A914201D1491545E01A49896A0968A3
:1014F0001A4A7832914201D149153CE01549896A6E
:101500000968154A3032914201D1491533E0114939
:10151000896A0968114A3032914202D14FF40021A0
:1015200029E00C49896A09680B4A183A914202D1AC
:101530004FF400211FE00749896A0968074A903281
:1015400091420DD14FF4002115E000000000002071
:10155000003C01403001002058640240106002400D
:10156000F849896A0968F84A914202D14FF400218A
:1015700001E04FF00071084010B1F44803F0AEF9FB
:10158000F048806A0068F0494839884274D9ED48CB
:10159000806A0068EE49884201D1202067E0E9486E
:1015A000806A0068E8499039884201D120205EE0D5
:1015B000E448806A0068E6496031884201D1202011
:1015C00055E0E048806A0068DF493039884201D13F
:1015D00020204CE0DB48806A0068DD4918318842F1
:1015E00001D1C01443E0D748806A0068D6497839F1
:1015F000884201D1C0143AE0D248806A0068D449D8
:101600007831884201D1C01431E0CE48806A006848
:10161000CD491839884201D1C01428E0C948806AF0
:101620000068CB493031884202D14FF400101EE0EF
:10163000C448806A0068C4496039884202D14FF4C6
:10164000001014E0BF48806A0068C14990318842A8
:1016500002D14FF400100AE0BA48806A0068BA4923
:10166000884202D14FF4001001E04FF00060B6490B
:101670009439086072E1FFE7B248806A0068B449B3
:10168000A831884274D9AF48806A0068B04988425E
:1016900001D1202067E0AB48806A0068AA499039F0
:1016A000884201D120205EE0A648806A0068A849EF
:1016B0006031884201D1202055E0A248806A00684C
:1016C000A1493039884201D120204CE09D48806AF0
:1016D00000689F491831884201D1C01443E09948FD
:1016E000806A006898497839884201D1C0143AE08C
:1016F0009448806A006896497831884201D1C014C4
:1017000031E09048806A00688F491839884201D1D9
:10171000C01428E08B48806A00688D4930318842C7
:1017200002D14FF400101EE08648806A00688649A6
:101730006039884202D14FF4001014E08148806A79
:10174000006883499031884202D14FF400100AE0CA
:101750007C48806A00687C49884202D14FF40010BE
:1017600001E04FF00060784998390860F6E0FFE743
:101770007448806A006876494831884274D9714853
:10178000806A00687249884201D1202067E06D4874
:10179000806A00686C499039884201D120205EE05F
:1017A0006848806A00686A496031884201D1202017
:1017B00055E06448806A006863493039884201D145
:1017C00020204CE05F48806A0068614918318842F7
:1017D00001D1C01443E05B48806A00685A497839F7
:1017E000884201D1C0143AE05648806A00685849DE
:1017F0007831884201D1C01431E05248806A0068D3
:1018000051491839884201D1C01428E04D48806AF6
:1018100000684F493031884202D14FF400101EE079
:101820004848806A006848496039884202D14FF4CC
:10183000001014E04348806A0068454990318842AE
:1018400002D14FF400100AE03E48806A00683E4929
:10185000884202D14FF4001001E04FF000603C4993
:101860001039C8607AE0FFE73648806A0068384976
:10187000884201D120206FE03248806A00683249F6
:101880009039884201D1202066E02E48806A0068A5
:101890002F496031884201D120205DE02948806ACB
:1018A000006829493039884201D1202054E0254878
:1018B000806A006826491831884201D1C0144BE083
:1018C0002048806A006820497839884201D1C014D4
:1018D00042E01C48806A00681D497831884201D185
:1018E000C01439E01748806A0068174918398842DF
:1018F00001D1C01430E01348806A006814493031C7
:10190000884202D14FF4001026E00E48806A006839
:101910000D496039884202D14FF400101CE009489B
:10192000806A00680A499031884202D14FF4001061
:1019300012E00448806A0068034988420AD14FF4E3
:10194000001009E030010020A0640240D000002017
:10195000106002404FF0006003498860034A906ABB
:10196000926AD16B884710BD0060024030010020B0
:101970000146087810381823B0FBF3F20848805C61
:10198000C865032A05D908686FF30900001D88653A
:1019900003E008686FF309008865886D70470000F0
:1019A00060660008014600208A6A8B69CBB932B1B3
:1019B000012A0DD0022A03D0032A10D10EE000BF65
:1019C000CB6A03F08073B3F1807F00D1012007E080
:1019D000CB6AB3F1C07F00D1012001E000E000BF7D
:1019E00034E08B69B3F5005F1AD132B1012A07D018
:1019F000022A03D0032A11D10AE000BF01200EE021
:101A0000CB6A03F08073B3F1807F00D1012006E040
:101A1000CB6AB3F1C07F00D1012000E000BF15E028
:101A200032B1012A05D0022A04D0032A0CD103E0E6
:101A300000BF00BF012008E0CB6A03F08073B3F160
:101A4000807F00D1012000E000BF00BF70477047D9
:101A500010B54FF47A7000F069F90D220BA10F4810
:101A600002F0E8FE4FF4AF710C4802F0CDFB012804
:101A700005D107210AA001F0C9FD012010BD0821F0
:101A800009A001F0C3FD0020F8E700003041542B0D
:101A9000434D47443D312C340D0000003C030020F1
:101AA0005245535F4F4B0A005245535F4552520A0D
:101AB0000000000010B54FF4006000F089F910BD7F
:101AC00010B500224FF40071014800F085FA10BDF6
:101AD0000008024010B5FEF7AFFE68B94FF47A7007
:101AE00000F024F9102205A1094802F0A3FE4FF4EA
:101AF000AF71074802F088FB10BD00003041542B45
:101B00005153494D4445543D312C310D00000000E6
:101B10003C03002003E04FF4FA7000F007F9FAE705
:101B20002DE9F0470646884615460027A5F109002D
:101B3000C4B200F0FF094A461AA11E4803F086FF0E
:101B40000E211C4801F062FD01E0601EC4B2305D50
:101B50000A28FAD1601CC4B2224617A1154803F026
:101B600075FF0F21134801F051FDA9EB0400401C43
:101B7000C7B23A4614A10F4803F068FF0E210D4882
:101B800001F044FDA5F10900C3B2224631464046AA
:101B900000F047F83946404601F038FD3846BDE8C8
:101BA000F08700000A49442053746F70203D2025BF
:101BB000640A00006C0300200A49442053746172D7
:101BC000743D2025640A00000A53697A654D7367E5
:101BD000203D2025640A000070B504460025E07B06
:101BE000302801DB012000E00020E17B392901DC05
:101BF000012100E00021084070B1E07B3038A17B7A
:101C0000303901EB810100EB4100C5B2012104F143
:101C10000E0001F0FBFC02E0A07B3038C5B2284684
:101C200070BD70B50446981A401CC5B2002004E08F
:101C30008E18365C2654461CF0B2A842F8DB70BD04
:101C40002DE9F0410446002500F0CCF9074614B90F
:101C50000120BDE8F081606A00B100BF00BF002034
:101C600084F8340000BF022084F835002068006842
:101C700020F00100216808600AE000F0B3F9C01B01
:101C8000052805D920206065032084F83500E0E7A9
:101C90002068006800F001000028EED12068056887
:101CA00021480540D4E901010843E168084321695E
:101CB000084361690843A1690843E1690843216A4F
:101CC00008430543606A042803D1D4E90B010843A3
:101CD0000543206805602068456925F00705606AAE
:101CE0000543606A04280DD1A06A0543E06A48B143
:101CF0002046FFF757FE28B140206065012084F898
:101D00003500A6E7206845612046FFF731FE06460C
:101D100094F85C103F208840B0600020606501208E
:101D200084F83500002094E73F8010F070B5044639
:101D300000F058F906462546681C10B104480078A2
:101D4000054400BF00F04EF9801BA842FAD370BDD5
:101D5000540000202DE9F04107460024002500260C
:101D60001748006817490968098A884314490860B8
:101D700014490968488C00EBD0714910A0EB41016F
:101D800011B1114C114D01E0104C0F4D21460D4881
:101D9000006802F01FFF0B480068408C01280DDD31
:101DA000F2B229460748006802F094FE0549096826
:101DB000CA6904490968498C891E5054BDE8F081FC
:101DC000003C01400000002078010020A801002014
:101DD00010B5044604480068204020B10248046061
:101DE0002046FFF7B7FF10BD143C0140F8B502468E
:101DF0000B460025002400200021CFE0012606FA32
:101E000001F51E6806EA0504AC4275D11E7906F09C
:101E10000306012E04D01E7906F00306022E13D10C
:101E200090684F000326BE40B0434F00DE68BE40BE
:101E300030439060506801268E40B0431E79C6F34F
:101E400000168E40304350601E7906F00306032EC4
:101E500009D0D0684F000326BE40B0434F009E68B3
:101E6000BE403043D0601E7906F00306022E13D127
:101E7000CF0802F1200656F827004E07F70E0F266E
:101E8000BE40B0434F07FF0E1E69BE403043CF082F
:101E900002F1200646F8270010684F000326BE40D6
:101EA000B0431E7906F003064F00BE403043106079
:101EB0005E6806F08056B6F1805F6ED100BF0026E6
:101EC0000096384E366846F48046364F3E603E46B1
:101ED000366806F48046009600BF00BF324E8F0879
:101EE00056F827008E07370F0F26BE40B0432F4EFF
:101EF000B24202D1002615E04FE02D4EB24201D190
:101F000001260FE02B4EB24201D102260AE02A4EF2
:101F1000B24201D1032605E0284EB24201D1042687
:101F200000E007268F073F0FBE4030431E4E8F084C
:101F300046F82700224E3068A0435E6806F48036DB
:101F4000B6F5803F00D120431D4E3060361D30680D
:101F5000A0435E6806F40036B6F5003F00D120438A
:101F6000174E361D3060361D3068A0435E6806F49B
:101F70008016B6F5801F00D12043114E0836306020
:101F8000361D3068A0435E6806F40016B6F5001FE3
:101F900000D120430A4E0C363060491C1029FFF452
:101FA0002DAFF8BD4438024008380140000002401F
:101FB0000004024000080240000C024000100240F1
:101FC000003C014010B5426921EA020302EA010423
:101FD00043EA0443836110BD0AB1816101E00B044F
:101FE0008361704701480068704700004C00002082
:101FF00003480068034909780844014908607047AC
:102000004C0000205400002010B50D48006840F43A
:1020100000700B4908600846006840F48060086062
:102020000846006840F480700860032000F0A2F8C1
:10203000002000F007F800F02BF8002010BD000091
:10204000003C024070B504460E4800784FF47A71A7
:10205000B1FBF0F00C490968B1FBF0F5284600F03F
:1020600077FF08B1012070BD102C07D20022214655
:10207000501E00F041F80548046001E00120F2E73D
:102080000020F0E7540000205800002050000020FD
:1020900008B500BF002000900E48006840F4804062
:1020A0000C4908600846006800F48040009000BFBA
:1020B00000BF00BF00200090081F006840F0805063
:1020C000091F08600846006800F08050009000BFBB
:1020D00000BF08BD4438024001460846002809DB1D
:1020E00000F01F0301229A4043099B0003F1E02303
:1020F000C3F8002100BF70472DE9F05F80460D4610
:102100001646002703F0B6FC074639462A463346F2
:1021100001F00700C0F1070ABAF1040F02D94FF02D
:10212000040A01E0C0F1070AD14600F1040ABAF13D
:10213000070F02D24FF0000A01E0A0F1030AD446D3
:102140004FF0010A0AFA09FAAAF1010A0AEA020A98
:102150000AFA0CFA4FF0010B0BFA0CFBABF1010B76
:102160000BEA030B4AEA0B042146404603F08AFCC3
:10217000BDE8F09F00BF00F00702064B19684FF65C
:10218000FF031940044B0B4343EA0221014B196042
:1021900000BF70470CED00E00000FA0570B5044682
:1021A0000D460CB9012070BD5848006800F00700CA
:1021B000A84209D255490D700846006800F0070092
:1021C000A84201D00120EEE7207800F002000228AA
:1021D0001DD1207800F00400042805D14C48006887
:1021E00040F4E0504A490860207800F008000828D0
:1021F00005D14748006840F46040454908604448BC
:10220000006820F0F000A168084341490860207888
:1022100000F00100A8B36068012807D13C480838E5
:102220000068C0F34040B8B90120BCE760680228EC
:1022300002D06068032807D1354808380068C0F329
:10224000406048B90120AEE7314808380068C0F363
:10225000400008B90120A6E72D48006820F00300DF
:10226000616808432A490860FFF7BCFE064609E09A
:10227000FFF7B8FE801B41F28831884202D9032063
:1022800091E707E02248006800F00C006168B0EBBD
:10229000810FEDD11D48006800F00700A84209D960
:1022A0001A490D700846006800F00700A84201D0E6
:1022B000012078E7207800F00400042807D11448B2
:1022C000006820F4E050E168084311490860207874
:1022D00000F00800082808D10D48006820F460408C
:1022E000216940EAC1000A49086000F03FF8084946
:1022F0000968C1F30311074A515CC84006490860E8
:1023000006480068FFF79EFE00204CE7003C0240B4
:10231000083802406866000858000020500000207D
:1023200001480068704700005800002000B5FFF722
:10233000F7FF04490968C1F38221034A515CC84090
:1023400000BD0000083802407866000800B5FFF7BD
:10235000E7FF04490968C1F34231034A515CC840B0
:1023600000BD000008380240786600082DE9F047FB
:10237000002400250026A1462548006800F00C0036
:1023800020B1042805D008283AD105E0DFF8849070
:1023900039E0DFF8849036E01D48001F006800F047
:1023A0003F041B48001F006800F4800078B11A4801
:1023B0001749091F0968C1F38811A0FB0170014684
:1023C000224600233846FDF701FF05460EE011487E
:1023D0000F49091F0968C1F38811A0FB017001466C
:1023E000224600233846FDF7F1FE05460848001F47
:1023F0000068C0F30140401C4600B5FBF6F902E05E
:10240000DFF8109000BF00BF4846BDE8F08700002D
:10241000083802400024F40040787D01F8B50446F5
:102420000CB90120F8BD207800F00100002874D01C
:10243000F948006800F00C0004280DD0F648006848
:1024400000F00C00082813D1F348001F006800F4C6
:102450008000B0F5800F0BD1EF4808380068C0F35A
:102460004040002859D06068002856D10120D9E7A3
:1024700000BF6068B0F5803F08D1E74808380068C1
:1024800040F48030E449083908601EE06068B0F527
:10249000A02F0DD1E0480838006840F48020DE49C4
:1024A000083908600846006840F4803008600CE095
:1024B000D9480838006820F48030D74908390860C6
:1024C0000846006820F48020086000BF606890B172
:1024D000FFF788FD054606E0FFF784FD401B6428F2
:1024E00001D903209EE7CC4808380068C0F340407B
:1024F0000028F1D011E0FFF775FD054606E0FFF773
:1025000071FD401B642801D903208BE7C2480838BD
:102510000068C0F340400028F1D1207800F00200AC
:1025200002285FD1BC48006800F00C0058B1BA48DE
:10253000006800F00C0008281CD1B748001F006894
:1025400000F48000B0B9B44808380068C0F3400017
:1025500020B1E068012801D0012063E7AE480838C7
:10256000006820F0F800216940EAC100AA49083952
:10257000086037E0E06800B30120A8490860FFF771
:1025800031FD054606E0FFF72DFD401B022801D96D
:10259000032047E7A04808380068C0F3400000283F
:1025A000F1D09D480838006820F0F800216940EA21
:1025B000C10099490839086014E000209749086073
:1025C000FFF710FD054606E0FFF70CFD401B022853
:1025D00001D9032026E7904808380068C0F340007E
:1025E0000028F1D1207800F0080008282CD160697B
:1025F000A8B101208A490860FFF7F4FC054606E00F
:10260000FFF7F0FC401B022801D903200AE78248AB
:102610006C300068C0F340000028F1D014E00020C6
:102620007F490860FFF7DEFC054606E0FFF7DAFCAD
:10263000401B022801D90320F4E677486C3000687B
:10264000C0F340000028F1D1207800F004000428F5
:1026500070D1002770483830006800F0805090B981
:1026600000BF002000906C483830006840F0805077
:102670006949383108600846006800F080500090D1
:1026800000BF00BF01276748006800F48070B0B940
:102690006448006840F4807062490860FFF7A2FC5B
:1026A000054606E0FFF79EFC401B022801D90320E7
:1026B000B8E65C48006800F480700028F2D000BFE3
:1026C000A068012808D154486830006840F0010033
:1026D0005149683108601DE0A06805280DD14E48B9
:1026E0006830006840F004004B49683108600846D3
:1026F000006840F0010008600CE04748683000685E
:1027000020F001004449683108600846006820F064
:102710000400086000BFA068A8B1FFF763FC05468D
:1027200009E0FFF75FFC401B41F28831884202D983
:10273000032077E626E0384868300068C0F34000A0
:102740000028EED013E0FFF74DFC054608E0FFF748
:1027500049FC401B41F28831884201D9032061E6DF
:102760002D4868300068C0F340000028EFD1012FE9
:1027700007D129483830006820F080502649383188
:10278000086000BFA069002845D02348006800F019
:102790000C0008285DD0A069022845D100201F49FF
:1027A0000866FFF71FFC054606E0FFF71BFC401B11
:1027B000022801D9032035E6174808380068C0F31D
:1027C00040600028F1D1D4E907010843616A40EA7A
:1027D00081110122A06AC2EB500041EA00412C2085
:1027E000005D41EA00600C49091F086001200B49A7
:1027F0000866FFF7F7FB054606E0FFF7F3FB401B13
:10280000022801D903200DE6034808380068C0F308
:1028100040600028F1D049E00838024000004742FB
:10282000800E474200700040002021490866FFF7F3
:10283000D9FB054606E0FFF7D5FB401B022801D96E
:102840000320EFE51B480068C0F340600028F2D188
:102850002CE0A069012800D1E4E51648001D0668B7
:10286000A069012820D006F48001E06981421BD1D3
:1028700006F03F01206A814216D147F6C070304011
:10288000616AB0EB811F0FD106F440310122A06ACA
:10289000C2EB5000B1EB004F06D106F070612C2066
:1028A000005DB1EB006F01D00120BBE50020B9E570
:1028B000000047420038024010B504460CB9012020
:1028C00010BD606A38B96068B0F5827F00D105E05C
:1028D0000021E16102E00021216161610021A1622A
:1028E00094F8510028B9002084F85000204600F0E8
:1028F00047F8022084F851002068006820F040006A
:1029000021680860A08800F48270218901F40441E4
:102910000843A18901F400610843217C01F0020110
:102920000843217D01F001010843218B01F400716E
:102930000843217F01F0380108432021095D01F09F
:1029400080010843218D01F400510843216808608B
:102950000421A06901EA104094F8241001F010014C
:102960000843216848602068C06920F4006021683D
:10297000C86100206065012084F8510000209FE7B5
:1029800010B586B00446142101A8FDF757FC1B4979
:102990002068884230D100BF0020009018480068AD
:1029A00040F48040164908600846006800F4804002
:1029B000009000BF00BF00BF0020009010481038FA
:1029C000006840F002000E491039086008460068AF
:1029D00000F00200009000BF00BF4FF46040019083
:1029E000022002900020039003200490052005900F
:1029F00001A90448FFF7FAF906B010BD00380040FD
:102A000040380240000402402DE9F843044688465D
:102A100016461D464FF000096068B0F5827F0DD163
:102A2000A06858B9042084F8510033464246414614
:102A30002046009500F077F9BDE8F88300BF94F8D0
:102A40005000012801D10220F6E7012084F850004F
:102A500000BFFFF7C7FA074694F85100012802D0DB
:102A60004FF002097EE0B8F1000F00D016B94FF028
:102A7000010977E0042084F8510000206065C4F863
:102A80003880A687E6872063A086E086206460649D
:102A9000A068B0F5004F0BD12068006820F040001E
:102AA000216808602068006820F480402168086080
:102AB0002068006800F04000402805D020680068C9
:102AC00040F0400021680860E068F8B91AE020682A
:102AD000806800F0010050B12068007BA16B087095
:102AE000A06B401CA063E08F401EE0870AE0FFF768
:102AF00079FAC01BA84201D3681C00B915B94FF080
:102B000003092FE0E08F0028E1D11EE01AE02068E1
:102B1000806800F0010050B12068C068A16B088097
:102B2000A06B801CA063E08F401EE0870AE0FFF7E7
:102B300059FAC01BA84201D3681C00B915B94FF05F
:102B400003090FE0E08F0028E1D13A4629462046EC
:102B500001F0E6FB08B120206065606D08B14FF020
:102B6000010900BF012084F8510000BF002084F853
:102B7000500000BF48465FE72DE9F84F04468846FD
:102B800016461D464FF0000A00BF94F85000012879
:102B900002D10220BDE8F88F012084F8500000BF68
:102BA000FFF720FA0746B14694F85100012802D0F9
:102BB0004FF0020AADE0B8F1000F00D016B94FF0A7
:102BC000010AA6E0032084F8510000206065C4F8E3
:102BD0003080A686E686A063A087E08760642064D4
:102BE000A068B0F5004F0BD12068006820F04000CD
:102BF000216808602068006840F48040216808600F
:102C00002068006800F04000402805D02068006877
:102C100040F0400021680860E068B0F5006F2FD1F7
:102C2000606810B1B9F1010F09D1206B00882168EB
:102C3000C860206B801C2063E08E401EE0861BE095
:102C40002068806800F0020002280AD1206B00880A
:102C50002168C860206B801C2063E08E401EE086E7
:102C60000AE0FFF7BFF9C01BA84201D3681C00B9F6
:102C700015B94FF0030A4CE0E08E0028E0D12EE0B9
:102C8000606810B1B9F1010F09D1206B007821689B
:102C90000873206B401C2063E08E401EE0861BE022
:102CA0002068806800F0020002280AD1206B0078BA
:102CB00021680873206B401C2063E08E401EE08674
:102CC0000AE0FFF78FF9C01BA84201D3681C00B9C6
:102CD00015B94FF0030A1CE0E08E0028E0D13A4617
:102CE0002946204601F066FB08B120206065A068F7
:102CF00050B900BF002000902068C0680090206894
:102D00008068009000BF00BF606D08B14FF0010AFD
:102D100000BF012084F8510000BF002084F850005B
:102D200000BF504636E72DE9FF5F044688469146CE
:102D30001D460E9E012002900020019000BF94F8D5
:102D40005000012803D1022004B0BDE8F09F01200B
:102D500084F8500000BFFFF745F9074694F851B0DA
:102D600060680390AA46BBF1010F0BD00398B0F541
:102D7000827F04D1A06810B9BBF1040F02D00220F9
:102D80000190DBE0B8F1000F03D0B9F1000F00D0E3
:102D900015B901200190D1E094F85100042802D027
:102DA000052084F8510000206065C4F83890E5875C
:102DB000A587C4F83080E586A58620646064206815
:102DC000006800F04000402805D02068006840F00E
:102DD000400021680860E068B0F5006F4AD1606883
:102DE00010B1BAF1010F09D1206B00882168C860C9
:102DF000206B801C2063E08E401EE08633E020685C
:102E0000806800F00200022810D1E08E70B10298B4
:102E100001280BD1206B00882168C860206B801CC2
:102E20002063E08E401EE0860020029020688068CB
:102E300000F0010068B1E08F58B12068C068A16B54
:102E40000880A06B801CA063E08F401EE0870120FB
:102E50000290FFF7C7F8C01BB04204D3701C10B13A
:102E6000032001906AE0E08E0028C8D1E08F00289E
:102E7000C5D14AE0606810B1BAF1010F09D1206BE9
:102E8000007821680873206B401C2063E08E401E90
:102E9000E08634E02068806800F00200022810D14B
:102EA000E08E70B1029801280BD1206B0078216868
:102EB0000873206B401C2063E08E401EE0860020DB
:102EC00002902068806800F0010068B1E08F58B17E
:102ED0002068C068A16B0870A06B401CA063E08FE5
:102EE000401EE08701200290FFF77CF8C01BB04233
:102EF00001D3701C00B916B9032001901EE0E08ECA
:102F00000028C7D1E08F0028C4D13A463146204678
:102F100001F050FA20B101200190202060650DE001
:102F2000A06850B900BF002000902068C0680090E1
:102F300020688068009000BF00BF00BF012084F8B7
:102F4000510000BF002084F8500000BF0198FBE64C
:102F500070B504462546681EB0F1807F01D301207C
:102F60000FE0681E4FF0E02148610F214FF0FF3065
:102F700002F088FD00204FF0E02188610720086101
:102F8000002070BD30B502460B4600BF92F83C00F1
:102F9000012801D1022030BD012082F83C0000BF91
:102FA000022082F83D00106844681068816824F0AF
:102FB00070041868044310684460144D1068A842F7
:102FC00013D01068B0F1804F0FD0114D1068A84297
:102FD0000BD0104D1068A84207D00F4D1068A842C2
:102FE00003D00E4D1068A84205D121F08001586829
:102FF000014310688160012082F83D0000BF00207D
:1030000082F83C0000BF00BFC5E70000000001409F
:103010000004004000080040000C00400040014057
:1030200010B504460CB9012010BD94F83D0028B934
:10303000002084F83C00204600F026F8022084F8A6
:103040003D00211D206801F057FB012084F8460057
:1030500000BF84F83E0001213F200155402001556A
:103060004120015500BF00BF012084F842004320E9
:103070000155442001554520015500BF012084F829
:103080003D000020D0E7000008B50A4A01689142DF
:103090000FD100BF002100910749096841F00101EB
:1030A000054A11601146096801F00101009100BF55
:1030B00000BF08BD00000140443802402DE9F04146
:1030C00004460D4600BF94F83C00012802D10220BE
:1030D000BDE8F081012084F83C0000BF022084F8A4
:1030E0003D002068866826F0770626F47F46206833
:1030F00086602868502833D00CDC202850D004DCAF
:1031000000284BD0102851D149E0302849D0402820
:103110004CD139E060282DD0702807D0B0F5805F01
:1031200003D0B0F5005F41D10DE040E0D5E90213D6
:103130006A68206801F043FB2068866846F07706DD
:103140002068866033E0D5E902136A68206801F0E0
:1031500036FB2068806840F480402168886026E063
:10316000EA686968206801F03EFB5021206801F0A0
:1031700031FB1CE0EA686968206801F047FB6021C8
:10318000206801F027FB12E0EA686968206801F016
:103190002AFB4021206801F01DFB08E000BF00BFB2
:1031A00000BF2968206801F015FB00E000BF00BFE8
:1031B000012084F83D0000BF002084F83C0000BFDF
:1031C00000BF85E77047000010B504460CB9012028
:1031D00010BD94F82C0010B9204600F013F80848F0
:1031E0000460022084F82C00204601F04FFD0020EE
:1031F00084F82D00012084F82C000020E8E700006E
:103200000000002010B586B0044600BF00200090EA
:103210003248006840F00100304908600846006804
:1032200000F00100009000BF00BF00BF0020009030
:103230002A481438006840F480002849143908608E
:103240000846006800F48000009000BF00BF00BF87
:10325000002000900846006840F001000860084621
:10326000006800F00100009000BF00BF00BF002018
:1032700000900846006840F00100086008460068B9
:1032800000F00100009000BF00BF1548154988629A
:103290004862C114134801824900418208460190E6
:1032A00001200290002003900320049001A90C4803
:1032B000FEF79CFD0C4802904FF40060019001A9BC
:1032C0000748FEF793FD002211462820FEF714FF61
:1032D0002820FEF701FF06B010BD00004438024070
:1032E000000002403C030020000021102DE9F041C5
:1032F00004460D461646002794F82C70012F01D085
:10330000042F25D105B116B90120BDE8F081E56192
:10331000268401206084002084F82D0094F82C007D
:10332000042803D1102084F82C0002E0082084F83F
:103330002C0008490848806AC16308490648806A29
:10334000C16401220421064801F028FA0020DCE7CC
:103350000220DAE71549000830010020DD480008A6
:103360000000014010B505490A7805490B78097835
:10337000491C034C21700349CA5410BD09000020A8
:103380000A0000208A0300202DE9F04104460D4682
:103390001646002794F82C70012F01D0082F3CD13D
:1033A00005B116B90120BDE8F081268365610120D1
:1033B0006083002084F82D0094F82C00082803D1A5
:1033C000102084F82C0002E0042084F82C0014491A
:1033D0001448406AC16314491248406AC164608B52
:1033E00001280CD12978114A204601F01DFD012247
:1033F00000210F4801F0D2F9204601F075FD608BE5
:10340000012808D1608BB04205DA608B295C094A3B
:10341000204601F009FD0020C5E70220C3E70000B7
:10342000E149000830010020DD480008D8010020F3
:103430000000014008020020704710B504460CB996
:10344000012010BDA06900B100E000BF94F83D006C
:1034500028B9002084F83C00204600F027F82420FA
:1034600084F83D002068C06820F400502168C860DE
:10347000204601F08DFD2068006920F4904021680D
:1034800008612068406920F02A00216848612068AE
:10349000C06840F400502168C860002020642020EB
:1034A00084F83D0084F83E000020CAE710B586B0DD
:1034B0000446142101A8FCF7C1FE1B49206888427C
:1034C00030D100BF002000901848006840F0100084
:1034D000164908600846006800F01000009000BF20
:1034E00000BF00BF0020009010481438006840F072
:1034F00001000E49143908600846006800F0010018
:10350000009000BF00BF4FF4C06001900220029005
:1035100000200390032004900720059001A904488F
:10352000FEF764FC06B010BD0010014044380240B4
:10353000000002402DE9F84F04460E461746994612
:103540004FF0000A94F83D0020285AD106B117B96F
:103550000120BDE8F88F00BF94F83C00012801D19C
:103560000220F6E7012084F83C0000BF0020206420
:10357000212084F83D00FEF735FD8246A784E784CC
:10358000A068B0F5805F04D1206910B90025B0466D
:1035900002E035464FF0000800BF002084F83C00F0
:1035A00000BF1BE05346002280212046CDF800904A
:1035B00001F004FE08B10320CBE745B9B8F80000DC
:1035C000C0F308002168486008F1020803E0287889
:1035D000216848606D1CE08C401EE084E08C00286F
:1035E000E0D15346002240212046CDF8009001F062
:1035F000E5FD08B10320ACE7202084F83D00002061
:10360000A7E70220A5E700BFFEE7000070B504466B
:103610000D463CB14FF47A732A4621460548FFF720
:1036200089FF06E04FF47A730E2203A10148FFF7E9
:1036300081FF70BDF802002044617461204C6F6707
:10364000204E554C4C0A000010B50D2217A11B4806
:1036500001F0F0F84FF49671184800F0D5FD1848C5
:103660000078142809DA0D2116A0FFF7CFFF4FF4D8
:10367000FA60FEF75BFB002010BD1A231A461549BD
:103680001548FEF7CEFA012214A11348FDF746F9BA
:1036900048B10F2112A0FFF7B9FF4FF4FA60FEF70F
:1036A00045FB0120E8E70020E6E700003041542B0D
:1036B000514D54434F4E4E3F0D0000003C0300203F
:1036C0000B0000204E6F7420636F6E6E6563742173
:1036D0000A0000008A0300208A0400203300000052
:1036E000436F6E6E656374204578697374210A00B8
:1036F0002DE9FC4707460C4615461E464FF4FA6076
:10370000FEF714FB2046FCF7B0FD00F11109284636
:10371000FCF7ABFD81443046FCF7A7FD484400F0C0
:10372000FF0823463A461FA12548CDE9005602F07E
:103730008DF942462249234801F07CF841F2883154
:10374000204800F061FD03280AD10E211EA0FFF7DA
:103750005DFF4FF4FA60FEF7E9FA0320BDE8FC874D
:103760001D480078C01EC3B21B480078C01EC2B2FC
:103770001A491348FEF755FA012219A11048FDF71E
:10378000CDF848B1112117A0FFF740FF4FF4FA60C0
:10379000FEF7CCFA0120E1E74FF4FA60FEF7C6FA33
:1037A0000020DBE73041542B514D54434F4E4E3DEA
:1037B00025642C25732C25732C25730D0000000027
:1037C0008A0400203C030020434F4E4E4543542DB5
:1037D000434C4F53450A00000B0000208A03002091
:1037E00030000000436F6E6E656374205375636331
:1037F000657373210A000000F8B505460C461646AD
:103800004FF47A70FEF792FA2046FCF72EFD143042
:10381000C7B223462A4620A12548009602F016F991
:103820003A462349234801F005F841F288312148FE
:1038300000F0EAFC20480078C01EC3B21E480078A1
:10384000C01EC2B21D491A48FEF7EBF901221CA1A5
:103850001748FDF763F848B10E211AA0FFF7D6FE0E
:103860004FF4FA60FEF762FA0120F8BD012219A1B7
:103870000F48FDF753F848B10D2117A0FFF7C6FE1A
:103880004FF4FA60FEF752FA0420EEE74FF4FA60C4
:10389000FEF74CFA0020E8E73041542B514D544FCD
:1038A00050454E3D25642C25732C25640D000000E9
:1038B0008A0400203C0300200B0000208A03002023
:1038C000300000004F70656E20537563636573733D
:1038D000210A0000320000004F70656E20426566CC
:1038E0006F7265210A00000010B5002019490870A8
:1038F00007E042F2B32218A10020FFF77DFF15492F
:103900000870144800780028F3D001201649087088
:1039100000201049087015A319A219A1FFF7E8FEAD
:103920000C4908700DE042F2B3220BA10020FFF712
:1039300063FF0EA312A212A10020FFF7D9FE0549D2
:103940000870044800780128EDD100200149087072
:10395000012010BD0800002035322E37362E3134BC
:103960002E313630000000001100002075646A72AC
:10397000636F7376727763616F6A6369000000003A
:10398000383636323232303532323130313034003E
:103990002DE9FF5F06460F4690469946DDE90EA4E5
:1039A0004FF4FA60FEF7C2F9092C01DC012508E0AA
:1039B000092C03DD642C01DA022502E0642C00DB13
:1039C00003255046FCF751FC1730284400F0FF0B4C
:1039D0003B4632461EA126488DE80007039402F0BC
:1039E00035F85A462249234800F024FFC8212148CF
:1039F00000F00AFC22461F48109900F01BFF4FF40C
:103A0000FA611C4800F000FC1B480078C01EC3B2DD
:103A100019480078C01EC2B218491548FEF701F9CE
:103A2000012217A11248FCF779FF58B1112115A006
:103A3000FFF7ECFD4FF4FA60FEF778F9012004B0CF
:103A4000BDE8F09F4FF4FA60FEF770F90020F6E74A
:103A50003041542B514D5450554245583D25642C0E
:103A600025642C25642C25642C25732C25640D00DD
:103A70008A0400203C0300200B0000208A03002061
:103A8000300000005075626C697368205375636381
:103A9000657373210A000000F8B504460D4616460A
:103AA0004FF47A70FEF742F92B4622460EA11648D3
:103AB000009601F0CBFF1B221349144800F0BAFE18
:103AC0004FF4AF71114800F09FFB012805D1072189
:103AD0000FA0FFF79BFD0120F8BD08210EA0FFF706
:103AE00095FD0020F8E700003041542B514D544320
:103AF00046473D726563762F6D6F64652C25642C97
:103B000025642C25640D00008A0400203C0300205D
:103B10005245535F4F4B0A005245535F4552520A7C
:103B20000000000010B504464FF47A70FEF7FEF86E
:103B3000224625A12C4801F089FF1D222A492B4845
:103B400000F078FE4FF4AF71284800F05DFB0128CB
:103B500005D0072126A0FFF759FD002010BD224601
:103B600025A1214801F072FF20221F491F4800F0C3
:103B700061FE4FF4AF711D4800F046FB012805D0EF
:103B8000072126A0FFF742FD0020E7E7224625A1F6
:103B9000154801F05BFF1F221349144800F04AFE4C
:103BA0004FF4AF71114800F02FFB012805D0072119
:103BB00025A0FFF72BFD0020D0E7072124A0FFF769
:103BC00025FD0020CAE700003041542B5153534CCF
:103BD0004346473D6361636572742C25642C6361C1
:103BE0002E70656D0D0000008A0400203C0300204B
:103BF00043415F4552520A003041542B5153534CBC
:103C00004346473D636C69656E74636572742C2529
:103C1000642C63632E70656D0D00000043435F45A7
:103C200052520A003041542B5153534C4346473DA6
:103C3000636C69656E746B65792C25642C636B2EDF
:103C400070656D0D00000000434B5F4552520A0045
:103C50005245535F4F4B0A0070B504460D464FF472
:103C60007A70FEF763F82B4622460EA1154801F044
:103C7000EDFE21221349144800F0DCFD4FF4AF7132
:103C8000114800F0C1FA012805D107210FA0FFF764
:103C9000BDFC012070BD08210EA0FFF7B7FC00207D
:103CA000F8E700003041542B5153534C4346473DF5
:103CB00063697068657273756974652C25642C2559
:103CC000730D00008A0400203C0300205245535F1E
:103CD0004F4B0A005245535F4552520A0000000004
:103CE00070B504460D464FF47A70FEF71FF82B4668
:103CF00022460EA1164801F0A9FE202214491548BB
:103D000000F098FD4FF4AF71124800F07DFA0128E1
:103D100005D1072110A0FFF779FC012070BD082113
:103D20000FA0FFF773FC0020F8E700003041542B90
:103D30005153534C4346473D69676E6F72656C6FD4
:103D400063616C74696D652C25642C25640D00001D
:103D50008A0400203C0300205245535F4F4B0A0069
:103D60005245535F4552520A0000000070B50446A8
:103D70000D464FF47A70FDF7D9FF2B4622460EA16F
:103D8000144801F063FE19221249134800F052FD55
:103D90004FF4AF71104800F037FA012805D1072120
:103DA0000EA0FFF733FC012070BD08210DA0FFF726
:103DB0002DFC0020F8E700003041542B5153534CA8
:103DC0004346473D7365636C6576656C2C25642CB2
:103DD00025640D008A0400203C0300205245535FF7
:103DE0004F4B0A005245535F4552520A00000000F3
:103DF000F8B504460D4616464FF47A70FDF796FF67
:103E00002B4622460EA11548009601F01FFE1522F2
:103E10001249134800F00EFD4FF4AF71104800F046
:103E2000F3F9012805D107210EA0FFF7EFFB0120D0
:103E3000F8BD08210DA0FFF7E9FB0020F8E700001E
:103E40003041542B514D544346473D73736C2C25E0
:103E5000642C25642C25640D000000008A040020D9
:103E60003C0300205245535F4F4B0A005245535FBD
:103E70004552520A0000000070B504460D464FF44A
:103E80007A70FDF753FF2B4622460EA1154801F02C
:103E9000DDFD1B221349144800F0CCFC4FF4AF7138
:103EA000114800F0B1F9012805D107210FA0FFF753
:103EB000ADFB012070BD08210EA0FFF7A7FB00207D
:103EC000F8E700003041542B5153534C4346473DD3
:103ED00073736C76657273696F6E2C25642C256420
:103EE0000D0000008A0400203C0300205245535F6F
:103EF0004F4B0A005245535F4552520A00000000E2
:103F000070B504460D464FF47A70FDF70FFF2B464F
:103F100022460EA1144801F099FD172212491348B8
:103F200000F088FC4FF4AF71104800F06DF90128E3
:103F300005D107210EA0FFF769FB012070BD082104
:103F40000DA0FFF763FB0020F8E700003041542B81
:103F5000514D544346473D73657373696F6E2C250D
:103F6000642C25640D0000008A0400203C0300201E
:103F70005245535F4F4B0A005245535F4552520A18
:103F80000000000000B587B0142102A8FCF756F924
:103F900000BF002001902F48006840F002002D492A
:103FA00008600846006800F00200019000BF00BFF2
:103FB00000BF002001900846006840F0040008603F
:103FC0000846006800F00400019000BF00BF00BF79
:103FD000002001900846006840F001000860084693
:103FE000006800F00100019000BF00BF012241F213
:103FF00038011948FDF7F0FF01224FF460711748AE
:10400000FDF7EAFF41F22800029001200390002012
:1040100004900320059002A90F48FDF7E7FE4FF436
:10402000607002900120039000200490032005900E
:1040300002A90A48FDF7DAFE102002901120039031
:10404000002004900320059002A90348FDF7CEFE4E
:1040500007B000BD303802400004024000080240B2
:1040600010B50E480E4908604FF482704860002178
:104070000B488160C160016141614FF40071816151
:104080000021C1610162416281620A21C162FEF7C1
:1040900013FC08B1FDF73EFD10BD000000380040E4
:1040A0005802002000B587B00020039004900590CE
:1040B0000690019002901348134908600020486060
:1040C000002111488160C160016141618161FEF799
:1040D000A7FF08B1FDF71EFD4FF48050039003A920
:1040E0000948FEF7EBFF08B1FDF714FD0020019031
:1040F000029001A90448FEF745FF08B1FDF70AFD4B
:1041000007B000BD00000140B002002010B50B4810
:104110000B4908604FF4E130486000210848816095
:10412000C16001610C21416100218161C161FFF722
:1041300084F908B1FDF7EEFC10BD0000001001404D
:10414000F802002000BFFEE700BFFEE77047000056
:1041500070B504460D46164601220D492046FFF76C
:10416000C5F80BE0FDF73EFF401BB04206D92078B2
:1041700040F001002070012006490870207800F00E
:1041800001000028EED0207820F00100207070BDE2
:10419000090000200C00002070B504460D461646AC
:1041A000204601F041F8012211492046FFF79EF810
:1041B00038B14FF4FA70FDF7B9FD0E210DA0FFF7ED
:1041C00025FA0BE0FDF70EFF401BB04206D9207820
:1041D00040F00100207001200A490870207800F0AA
:1041E00001000028EED0207820F00100207070BD82
:1041F000090000204572726F725F48616E646C65E1
:10420000720A00000C00002070B505460C4600261E
:1042100009E0FDF7E7FE1A490860224608460168F2
:104220002846FFF795FF174800780028F1D0164878
:1042300001781648FFF7EAF9002012490870124980
:104240000978891F114A8818FCF77AFB00B101260A
:104250000E48FCF74BFB00B102260B4909781139D7
:104260000A4A8818FCF72CFB00B1032606480078A0
:1042700007490870002004490870304670BD0000EE
:10428000140000200C0000200A0000208A030020F7
:104290000B00002070B505460C46002609E0FDF72E
:1042A000A1FE1A4908602246084601682846FFF721
:1042B00073FF174800780028F1D016480178164897
:1042C000FFF7A4F900201249087012490978891FE4
:1042D000114A8818FCF734FB00B101260E48FCF7A0
:1042E00005FB00B102260B49097811390A4A8818E2
:1042F000FCF7E6FA00B10326064800780749087083
:10430000002004490870304670BD000014000020F1
:104310000C0000200A0000208A0300200B0000206F
:10432000F8B504460E4615466068B0F5827F0DD19B
:10433000A068B0F5004F03D0A068B0F5806F05D13C
:104340002068006820F04000216808606068B0F5CF
:10435000827F1FD1A068B0F5806F0DD03346002258
:1043600080212046009500F05BF808B3606D40F0B6
:10437000200060650320F8BD33460022012120465D
:10438000009500F04DF898B1606D40F02000606538
:104390000320F0E73346002201212046009500F07B
:1043A0003FF828B1606D40F0200060650320E2E72F
:1043B0000020E0E77CB504460D4616461648006826
:1043C0001821B0FBF1F01549B0FBF1F04FF47A7110
:1043D000484301906068B0F5827F0DD12B460022E2
:1043E00080212046009600F01BF898B1606D40F0E7
:1043F0002000606503207CBD00BF019800B908E083
:104400000198401E019020688068C0F3C010002809
:10441000F3D100BF0020EEE75800002040420F001B
:104420002DE9F84F04460D4690461E46DDF82890CB
:10443000FDF7D8FDA0EB0900371AFDF7D3FD824642
:104440002C480068C0F3CB307843009045E0701CE6
:10445000002842D0FDF7C6FDA0EB0A00B84200D20A
:10446000A7BB2068406820F0E000216848606068D1
:10447000B0F5827F0DD1A068B0F5004F03D0A068E1
:10448000B0F5806F05D12068006820F040002168F9
:104490000860A06AB0F5005F0DD100BF2068006819
:1044A00020F40050216808602068006840F4005043
:1044B0002168086000BF012084F8510000BF00207F
:1044C00084F8500000BF0320BDE8F88FFFE7009894
:1044D00000B900270098401E00902068806828409E
:1044E000A84201D1012000E000204045AFD10020CA
:1044F000EAE70000580000207047000010B54FF4B4
:104500007A70FDF713FC12220BA1104800F092F90B
:104510004FF4AF710D48FFF777FE012805D1072151
:104520000BA0FFF773F8012010BD08210AA0FFF7C8
:104530006DF80020F8E700003041542B43504D53F4
:104540003D4D452C4D452C4D450D00003C030020B4
:104550005245535F4F4B0A005245535F4552520A32
:104560000000000010B54FF47A70FDF7DFFB0B225E
:104570000BA10E4800F05EF94FF4AF710B48FFF746
:1045800043FE012805D1072109A0FFF73FF80120CC
:1045900010BD082108A0FFF739F80020F8E7000057
:1045A0003041542B434D47463D310D003C03002024
:1045B0005245535F4F4B0A005245535F4552520AD2
:1045C0000000000010B54FF47A70FDF7AFFB0F222A
:1045D0000AA10E4800F058F94FF4AF710B48FFF7ED
:1045E00059FE012804D1072109A0FFF70FF803E0C5
:1045F000082109A0FFF70AF810BD000041542B491B
:1046000050523D343830303B26570D003C030020DB
:104610005245535F4F4B0A005245535F4552520A71
:104620000000000010B5FDF7E3FC10BD00B593B02D
:10463000302107A8FBF702FE142102A8FBF7FEFDBC
:1046400000BF002001902548006840F080502349B9
:1046500008600846006800F08050019000BF00BF6D
:1046600000BF002001901E48006820F4404040F444
:1046700000401B4908600846006800F44040019073
:1046800000BF00BF0220079001200A9010200B906D
:1046900002200D9000210E9108210F9154211091BC
:1046A000022111910421129107A8FDF7B7FE08B16C
:1046B000FDF730FA0F2002900220039000200490B2
:1046C0004FF48050059000200690022102A8FDF7CB
:1046D00065FD08B1FDF71EFA13B000BD4038024079
:1046E000007000400348006840F470000149086011
:1046F0007047000088ED00E010B50268204B98423A
:104700000BD0B0F1804F08D01E4B984205D01E4B05
:10471000984202D01D4B984203D122F070024B68A0
:104720001A43174B984214D0B0F1804F11D0154B5B
:1047300098420ED0144B98420BD0144B984208D09C
:10474000134B984205D0134B984202D0124B98421B
:1047500003D122F44072CB681A4322F080034C69E3
:1047600043EA040202608B68C3620B688362044BF5
:10477000984201D10B6903630123436110BD00001E
:10478000000001400004004000080040000C004010
:1047900000400140004401400048014030B501F0B4
:1047A0001F05012404FA05F3046A9C430462046AA9
:1047B00001F01F0502FA05F52C43046230BD30B547
:1047C0000C46816821F47F4142EA032525432943B1
:1047D000816030BD0A46816821F0700142F0070314
:1047E00019438160704730B50B461446026A056A6A
:1047F00025F001050562816921F0F00141EA04110B
:1048000022F00A021A438161026230BD30B50B46C4
:104810001446056A25F0100505628169026A21F4D3
:10482000704141EA043122F0A00242EA03128161A0
:10483000026230BD70B504460D461646204600F0B3
:10484000F3FC0A20FDF772FA204600F0EDFC0A2086
:10485000FDF76CFA324629462046FEF795FD18B161
:104860000E2105A0FEF7D2FE00BF2078C0F3400065
:104870000028FAD070BD00004572726F725F486107
:104880006E646C65720A000070B504460D461646EB
:10489000204600F0DFFC0A20FDF748FA204600F031
:1048A000D9FC0A20FDF742FA324629462046FEF797
:1048B0006BFD18B10E2105A0FEF7A8FE00BF207801
:1048C000C0F340000028FAD070BD00004572726F3E
:1048D000725F48616E646C65720A000010B5044630
:1048E0000B480068007840F0040009490968087026
:1048F0000748006890F82D0040F00100044909685D
:1049000081F82D0002480068FEF75CFC10BD000035
:104910000000002070B50646002400252B480068E2
:10492000408C2A490968098C88424EDD2848006875
:10493000006820F0010026490968086025480068E1
:10494000C06820F4806023490968C8601F4909686D
:10495000488C00EBD0714910A0EB410109B91E4C05
:1049600000E01E4CEAB221461848006800F0B2F898
:1049700016490968CA6915490968498C891E505445
:1049800012480068007840F001001049096808707A
:1049900000200E49096848840C49096881F82D00F7
:1049A0000A48006890F82C00102805D10420074917
:1049B000096881F82C0004E001200449096881F8A5
:1049C0002C0002480068FEF7CDFC70BD00000020FE
:1049D000D00000203001002078010020A801002034
:1049E00070B50546002436480068408B401C3449A9
:1049F0000968488332480068408B31490968098B4F
:104A000088421CDC2E48006800F06EFA2C490968C8
:104A1000488B00EBD0714910A0EB410109B1294C42
:104A200000E0294C264800684069254A1268528BEC
:104A3000815C22462248006800F0F6F93EE02348F7
:104A4000406A0068006820F010012048406A006851
:104A500001601B480068007840F0020018490968AE
:104A600008701B480068006820F0010018490968B8
:104A7000086016480068C06820F40070134909688F
:104A8000C86000200E49096848830D49096881F80B
:104A90002D000B48006890F82C00102805D1082044
:104AA0000749096881F82C0004E0012004490968DD
:104AB00081F82C0002480068FEF7BEFC70BD0000C3
:104AC0000000002008020020D80100203001002052
:104AD000700000202DE9F04704460D4617460026D9
:104AE000B046B246B146A07B18B1207BA0F10108C8
:104AF00001E094F80C80207B401C55F82000218AAE
:104B00000840884219D031480068007840F004001D
:104B10002E490968087094F82D0040F0010084F8CF
:104B20002D002B48006820F0080029490860204625
:104B3000FEF748FB4FF0000A44E000260DE0701C31
:104B400055F82000218A0840884205D10120B04054
:104B50003843C7B209F10109761C4645EFD3A07B63
:104B6000022811D109F0010070B908F1010055F8CF
:104B70002000218A0840884206D0207840F00800B2
:104B800020702046FEF71EFBA07B012817D109F0FC
:104B90000100A0B108F1010055F82000218A084069
:104BA00088420CD0207840F00800207094F82D0046
:104BB00040F0040084F82D002046FEF703FB4FF080
:104BC0000009BA460AF0FF00BDE8F08700000020A7
:104BD000003C0140F0B50023002500240022274EB0
:104BE000F26A0D46466A06F11003077B467B3E4497
:104BF000741C234E3668366846F01006204F3F6816
:104C00003E601F4E3668366846F004061C4F3F680B
:104C10003E601B4E36687460194E3668B360184E9D
:104C20003668F560164E3668366846F00106144F51
:104C30003F683E60134E3668768C012E03D090F8A4
:104C40002C60102E09D00D4E766A06EB5206B6FB8C
:104C5000F2F702FB1766094FBE630B4E3668F66823
:104C600046F48066084F3F68FE60074E3668366837
:104C700046F00106044F3F683E60F0BD0000014071
:104C8000D000002000000020300100202DE9F0417C
:104C900004460025FDF76AFB0646FDF757FBB6FB09
:104CA000F0F0012801D1012600E00026FDF75EFBAF
:104CB0000746FDF74BFBB7FBF0F0022801D10120BE
:104CC00000E00020064336B1FDF750FBA168B0FBC1
:104CD000F1F0451E06E0FDF739FB4100A068B1FB8D
:104CE000F0F0451E0F48104908600846C5600020D6
:104CF000486000210C4801618160FEF791F920793C
:104D0000022802D100F04AF809E02079012802D1F6
:104D100000F00CF803E000F041F800F007F8BDE8FF
:104D2000F0810000000001403001002010B54FF07C
:104D3000406017494860002115488160C1604FF408
:104D40008061016189004161890081610021C16147
:104D50004FF4403101620021416203218162002150
:104D6000C16201630B480A49086000BF0A488162BA
:104D7000886300BF0146886AFCF762FF01220021B8
:104D80003A20FDF7B9F93A20FDF7A6F910BD000069
:104D9000D0000020406402403001002010B51E4ABF
:104DA0001268518A1C4A1268906A0122FDF714F9B0
:104DB0004FF0406019494860402118488160002147
:104DC000C1604FF4806101618900416189008161A6
:104DD0000021C1614FF44031016200214162032191
:104DE00081620021C16201630D480C4908600D48D1
:104DF000406A886300BF0B484162886300BF014678
:104E0000486AFCF71DFF032211463920FDF774F9AB
:104E10003920FDF761F910BD00000020700000206E
:104E20002864024030010020F0B504460D46002100
:104E3000002000230026237B608AA77B9FB900BF48
:104E40000EE045FA01F707F001071FB14F1C42F8C9
:104E5000270004E04FEA004C4F1C42F827C0491CD1
:104E60009942EED314E000210FE045FA01F707F074
:104E7000010727B14F1C42F82700761C04E04FEAD7
:104E8000004C4F1C42F827C0491C5F1E8F42ECD8D3
:104E9000A77B012F0BD0022F13D106F0010717B902
:104EA00042F8230002E0070442F823700AE006F00B
:104EB00001071FB9070442F8237001E042F82300FC
:104EC00000E000BF00BF07041760677B012F03D11C
:104ED0005F1C42F8270005E05F1C42F827009F1C7A
:104EE00042F827000026F0BD30B500220023002440
:104EF000224D2D68698B01EBD1756D10A1EB450535
:104F00000DB11F4A00E01F4A816A01F11803057BB9
:104F1000417B29444C1C1C4909684C601A490968AA
:104F20008B6019490968CA6017490968096841F026
:104F30001001154D2D68296013490968096841F071
:104F40000401114D2D6829600F490968096841F075
:104F500001010D4D2D6829600C490968C96841F4AB
:104F600000710A4D2D68E96008490968096841F037
:104F70000101064D2D68296030BD000000000020B1
:104F8000D80100200802002070000020300100201D
:104F90002DE9F84F04462068006920F44050E1688C
:104FA0000843216808612169A068084361690843D2
:104FB000E169084300902068C06849F20C618843A9
:104FC000009908432168C8602068406920F4407057
:104FD000A16908432168486176492068884203D066
:104FE00075492068884203D1FDF7B0F9814602E097
:104FF000FDF79CF98146E069B0F5004F6CD10220C5
:105000006168A0FB015003461920A9FB007001460E
:105010002A463846FBF7DAF86421B0FBF1F04FEA94
:10502000001A02206168A0FB01510B461920A9FB60
:1050300000712A463846FBF7C9F8834602206168AA
:10504000A0FB015003461920A9FB00712A463846EF
:10505000FBF7BCF86421B0FBF1F000EBC00101EB01
:105060000010ABEB8000322101EBC0006421B0FBEB
:10507000F1F000F0F8000AEB400A02206168A0FBA2
:10508000015003461920A9FB007001462A46384604
:10509000FBF79CF8834602206168A0FB01500346A1
:1050A0001920A9FB00712A463846FBF78FF86421C6
:1050B000B0FBF1F000EBC00101EB0010ABEB8000A6
:1050C000322101EBC0006421B0FBF1F000F00700D9
:1050D0005044216888606AE004206168A0FB0150A8
:1050E00003461920A9FB007001462A463846FBF703
:1050F0006DF8824604206168A0FB01500346192028
:10510000A9FB007001462A463846FBF75FF8642188
:10511000B0FBF1F000EBC00101EB0010AAEB800046
:10512000322101EB00106421B0FBF1F000F0F00A35
:1051300004206168A0FB017003461920A9FB0051FF
:105140003A462846FBF742F86421B0FBF1F00AEB3F
:10515000001A04206168A0FB01510B461920A9FB2D
:1051600000712A463846FBF731F88346042061680F
:10517000A0FB015003461920A9FB007001462A46F6
:105180003846FBF723F86421B0FBF1F000EBC001D7
:1051900001EB0010ABEB8000322101EB0010642129
:1051A000B0FBF1F000F00F00504421688860BDE8CA
:1051B000F88F000000100140001401402DE9F0417B
:1051C00004460D4617469846069E21E0701CF8B12D
:1051D0002EB1FCF707FFA0EB0800B04218D92068F9
:1051E000C06820F4D0702168C8602068406920F051
:1051F000010021684861202084F83D0084F83E00C9
:1052000000BF002084F83C0000BF0320BDE8F0810F
:10521000206800682840A84201D1012000E0002059
:10522000B842D3D00020F1E710B504460320207126
:105230004FF49651A160012161730021A1730821EF
:1052400021732046FDF7C0FF18B14FF4FA70FCF748
:105250006DFD10BD10B50446032020714FF4E131FF
:10526000A160012161730021A173082121732046EF
:10527000FDF7AAFF18B14FF4FA70FCF757FD10BD07
:1052800000BFFEE710B500224FF480510748FCF73D
:10529000A3FE062000F0CCF9012211030348FCF71D
:1052A0009BFE0120FCF742FD10BD000000040240FF
:1052B00010B500BF1148407E0128FBD001200F49E6
:1052C0004876FFF7DFFF00224FF480510C48FCF7CF
:1052D00083FEC72000F0ACF9012211030848FCF757
:1052E0007BFE00F0B7F9152106A0FEF78FF90A2022
:1052F000FCF71CFD00200149487610BD3802002053
:105300000004024045726173652063686970207310
:1053100075636365737321210A00000070B505464B
:10532000002400BF1A48407E0128FBD00120184904
:10533000487600F08FF91648808900FB05F4FFF7E6
:10534000A1FF00224FF480511248FCF745FE2020B7
:1053500000F06EF9C4F3074000F06AF9C4F30720C7
:1053600000F066F9E0B200F063F901221103094888
:10537000FCF732FE00F06EF9172107A0FEF746F9A0
:105380000120FCF7D3FC00200149487670BD0000E5
:105390003802002000040240457261736520736585
:1053A00063746F72207375636365737321210A00E0
:1053B00000B585B001203249487601220103314809
:1053C000FCF70AFE20202E4988820001C8810001D6
:1053D000488140110881000188810001086100F0C6
:1053E000FFF8012000F0C4F8022000F0C1F803200B
:1053F00000F0BEF80C2124A0FEF708F92048828AAC
:1054000024A1684600F022FB0F216846FEF7FEF853
:105410001B48C28923A1684600F018FB102168468A
:10542000FEF7F4F81648428922A1684600F00EFB08
:105430000F216846FEF7EAF81148028921A1684663
:1054400000F004FB0F216846FEF7E0F80C48828963
:1054500020A1684600F0FAFA12216846FEF7D6F855
:10546000074821A10269684600F0F0FA1221684657
:10547000FEF7CCF8002002494876012005B000BDB7
:105480003802002000040240496E697469616C6949
:105490007A650A004E756D426C6F636B203D202566
:1054A000640A00004E756D536563746F72203D2071
:1054B00025640A004E756D50616765203D202564A6
:1054C0000A00000053697A6550616765203D202518
:1054D000640A000053697A65536563746F72203DF6
:1054E0002025640A0000000053697A65426C6F63EE
:1054F0006B203D2025640A0070B505460C46164613
:1055000000BF1848407E0128FBD00120154948768D
:1055100000F0A0F800224FF480511348FCF75CFD26
:105520000B2000F085F8C4F3074000F081F8C4F3C5
:10553000072000F07DF8E0B200F07AF8002000F0DB
:1055400077F8B2B24FF47A7329460848FDF75CFA4F
:10555000012211030448FCF73FFD00200149487671
:1055600070BD0000380200200004024058020020F4
:1055700070B50546002400224FF480511648FCF710
:105580002BFD012D02D0022D14D109E0052000F0E1
:105590004FF8A52000F04CF804461048847513E03D
:1055A000352000F045F8A52000F042F804460B48ED
:1055B000C47509E0152000F03BF8A52000F038F88C
:1055C00004460648047600BF00BF012211030248CA
:1055D000FCF702FD204670BD0004024038020020A6
:1055E00010B500224FF480510F48FCF7F5FC4B201A
:1055F00000F01EF8002404E0A52000F019F8601C5B
:10560000C4B2042CF8DB002406E0A52000F010F85A
:1056100006490855601CC4B2082CF6DB01221103B0
:105620000148FCF7D9FC10BD0004024038020020FC
:1056300001B582B0002001906420012301AA02A9D3
:1056400000900348FDF76FFB9DF804000EBD0000BD
:105650005802002010B50120FCF768FB00224FF42F
:1056600080510D48FCF7B8FC0520FFF7E1FF00BFB3
:10567000A520FFF7DDFF094988750120FCF756FBDF
:105680000648807D00F001000028F1D101221103BD
:105690000148FCF7A1FC10BD0004024038020020C4
:1056A0002DE9F0410746884614461D46002600BFF6
:1056B0002048407E0128FBD001201E494876281949
:1056C0000989884203DD1B480089001B85B2FFF76A
:1056D000C1FF1848008908FB0046FFF7D3FD0022F0
:1056E0004FF480511448FCF777FC0220FFF7A0FF2D
:1056F000C6F30740FFF79CFFC6F30720FFF798FFAC
:10570000F0B2FFF795FF64232A4639460B48FDF7B0
:1057100033FA012211030848FCF75EFCFFF79AFFF9
:10572000152107A0FDF772FF002002494876BDE869
:10573000F0810000380200200004024058020020DE
:1057400057726974652070616765205355434345FE
:1057500053530A003EB50020FFF7E0FD9A4890ED54
:10576000000B9A4880ED000B994890ED000B97488C
:1057700080ED020B974800789449087496480078A9
:10578000487496480078887495480078C87495489D
:10579000007808759448007848750B2193A0FDF7B0
:1057A00035FF002005E08949095C934A1154411CEA
:1057B000C8B20828F7DB082008E0A0F10801834AF6
:1057C0000832515C8C4A1154411CC8B21028F4DBD9
:1057D0007E48007C884908747C48407C48747B483B
:1057E000807C88747948C07CC8747848007D0875CE
:1057F0007648407D48751623002211467E48FFF703
:105800004FFF4FF4FA70FCF791FA0D217BA0FDF7E2
:10581000FDFE162200217D48FFF76EFE4FF4FA7060
:10582000FCF784FA9FED7A0B684880ED000B9FED42
:10583000780B80ED020B002064490874487488746A
:10584000C874087548753C217348FAF7F7FC1E21A7
:105850007248FAF7F3FC002005E06C49095C5B4AEA
:105860001154411CC8B20828F7DB584890ED001BC2
:10587000B0EE410AF0EE610A53EC102B68A16748C4
:1058800000F0E4F865496448FAF7E3FC65A1624872
:10589000FAF7DFFC1E216148FAF7D0FC002008E08F
:1058A0005A4A00F10801525C484908310A54411C27
:1058B000C8B20828F4DB454890ED021BB0EE410A5F
:1058C000F0EE610A53EC102B55A1544800F0BEF8DD
:1058D00052495148FAF7BDFC52A14F48FAF7B9FCBA
:1058E0005148002101804948007C38490874084625
:1058F000017C4D48FBF734F84B494748FAF7A9FCBF
:105900004948002101804148407C3049487408469C
:10591000417C4548FBF724F843493F48FAF799FC96
:105920004148002101803948807C28498874084614
:10593000817C3D48FBF714F83B493748FAF789FC6E
:1059400038A13548FAF785FC3848002101802F48F6
:10595000C07C1E49C8740846C17C3448FBF700F877
:1059600032492D48FAF775FC30480021018027485C
:10597000007D164908750846017D2C48FAF7F0FFAE
:105980002A492548FAF765FC2848002101801F486C
:10599000407D0E4948750846417D2448FAF7E0FFEE
:1059A00022491D48FAF755FC1B48FAF75EFCC4B2C1
:1059B00019481FA101230022CDE9001402901146CD
:1059C0001046FDF7E5FF3EBD2800002090070020AF
:1059D0003000002038000020390000203D00002069
:1059E0003A0000203B0000203C0000205772697400
:1059F0006520446174610A008A0500205265616473
:105A0000536F6D65427974650A0000008A060020B4
:105A10000000000000000000A8070020E4070020AC
:105A2000256C66002C000000460000204800002085
:105A3000716E30353232383940676D61696C2E6372
:105A40006F6D2F746F706963310000000FB4084BE5
:105A500010B504A902AA039800F0FAF8044602A9B6
:105A6000002000F08CFC204610BC5DF814FB000008
:105A70007F63000802480068C0F3022070470000FE
:105A80000CED00E010B5002804DB0A07130E054AF0
:105A9000135406E00A07140E034A00F00F031B1FFD
:105AA000D45410BD00E400E018ED00E002E008C8A6
:105AB000121F08C1002AFAD170477047002001E088
:105AC00001C1121F002AFBD1704700002DE9FF5FC2
:105AD00082B00021DDE90430020DDDF840B003435F
