:020000040800F2
:10000000F00B0020A90100086D4100081B36000814
:10001000694100087D070008A552000800000000A3
:100020000000000000000000000000001D45000866
:100030004F1A0008000000007141000849460008FE
:10004000C3010008C3010008C3010008C301000880
:10005000C3010008C3010008C3010008C301000870
:10006000C3010008C3010008C3010008C301000860
:10007000C3010008C3010008C3010008C301000850
:10008000C3010008C3010008C3010008000000000C
:10009000000000000000000000000000C301000894
:1000A000C3010008C3010008C3010008C301000820
:1000B000C3010008C3010008C3010008C301000810
:1000C000C3010008C3010008C3010008C301000800
:1000D000C3010008C3010008C301000800000000BC
:1000E000B51A0008C3010008C301000800000000A1
:1000F000000000000000000000000000C301000834
:1001000000000000C3010008C3010008C30100088B
:1001100000000000000000000000000000000000DF
:10012000C30100088D09000869110008C301000817
:10013000C3010008000000000000000000000000F3
:10014000000000000000000000000000C3010008E3
:10015000C3010008C3010008C3010008C30100086F
:10016000C3010008C30100080000000000000000F7
:10017000000000000000000000000000000000007F
:1001800000000000C30100080000000000000000A3
:10019000C3010008DFF80CD000F0CAFA004800479D
:1001A000D9640008F00B0020064880470648004745
:1001B000FEE7FEE7FEE7FEE7FEE7FEE7FEE7FEE717
:1001C000FEE7FEE709470008950100082DE9F05F0A
:1001D0000546002092469B468846064681464024B6
:1001E0001BE0284641464746224600F083F9534625
:1001F0005A46C01A914110D311461846224600F0C3
:100200006AF92D1A67EB01084F46224601200021AA
:1002100000F061F917EB00094E41201EA4F1010422
:10022000DFDC484631462A464346BDE8F09FD2B25D
:1002300001E000F8012B491EFBD270470022F6E7CF
:1002400010B513460A4604461946FFF7F0FF20464C
:1002500010BD421E12F8013F002BFBD111F8013BEB
:1002600002F8013B002BF9D17047421C10F8011B2A
:100270000029FBD1801A70472DE9FE4F804681EAA4
:100280000300C00F0C46009021F0004123F0004510
:10029000B8EB0200A94105D24046214690461C46D3
:1002A0000B46024623F00040104347D0270DC7F30A
:1002B0000A00C3F30A510290401A019040286BDAF9
:1002C000C3F3130040F4801B0098924620B1002332
:1002D000D2EB030A63EB0B0B01985946C0F14002C5
:1002E000504600F0F8F806460D4650465946019A29
:1002F00000F010F910EB08006141002487EA115268
:1003000084EAE7731A4340D0009A62B3019A012A43
:100310004FEA075215DC001B61EB02014FF000426F
:1003200002EA0752CDE90042001C41F58011324635
:100330002B4600F010F903B0BDE8F08F404621468F
:10034000F9E7001B61EB0201001C41F58013001866
:100350005B412018A2F5001747EB030140EAD57076
:10036000B6196D4111E06D084FEA360645EAC075D1
:100370004FEA0752001B61EB0201001C41F580119E
:1003800049084FEA30000019514132462B4603B06C
:10039000BDE8F04F00F0D0B80098012240000023E3
:1003A000D0EB020263EBE073009821464FEAE07461
:1003B000B8EB000061EB0401E9E783F000435BE781
:1003C00081F0004158E72DE9FE4F81EA030404F073
:1003D000004421F0004100944FF0000B23F0004353
:1003E00050EA01045ED052EA03045BD0C3F30A541E
:1003F000C1F30A552C44A4F2F3340194A0FB025437
:10040000C1F3130141F48011C3F3130343F48013C8
:1004100001FB024400FB034E840A970A44EA81541C
:1004200047EA8357A4FB076802958D0A05FB0785F9
:100430004FEA932C04FB0C542705029D4FEA065803
:1004400047EA1637B5EB08056EEB070C870E920EE0
:1004500047EA811742EA8312A7FB0201B6EB0B01C0
:1004600064EB00042B0D43EA0C335E1844EB1C5084
:10047000DA465146E7FB0201C5F313044FEA0B339A
:1004800043EA14534FEA0432019C43EA0603A4F101
:100490000C040294009CCDE900B400F05CF803B0B9
:1004A000BDE8F08F00200146F9E730B50B46014664
:1004B00000202022012409E021FA02F59D4205D303
:1004C00003FA02F5491B04FA02F52844151EA2F1AD
:1004D0000102F1DC30BD202A04DB203A00FA02F1EF
:1004E000002070479140C2F1200320FA03F3194322
:1004F00090407047202A04DB203A21FA02F00021C4
:10050000704721FA02F3D040C2F120029140084323
:1005100019467047202A06DBCB17203A41FA02F031
:1005200043EAE07306E041FA02F3D040C2F1200250
:10053000914008431946704710B5141E73F100042A
:1005400008DA401C41F1000192185B411A4301D1C5
:1005500020F0010010BD2DE9F04D92469B4611B1EF
:10056000B1FA81F202E0B0FA80F220329046FFF751
:10057000B2FF04460F4640EA0A0041EA0B01534627
:100580005A46084313D0114653EA010019D0C8F166
:1005900040025046FFF7AEFF05460E46504659460C
:1005A0004246FFF798FF084305D0012004E02046AB
:1005B0003946BDE8F08D0020054346EAE0762C433D
:1005C00037430A986305E40AA0EB08000022FD0AFD
:1005D00044EA47540A3002D500200146E9E7010504
:1005E00010196941DDE9084500196941BDE8F04D80
:1005F000A2E72DE9F04D81EA030404F0004B21F05D
:10060000004514464FF0000A23F0004150EA05026D
:1006100020D054EA01021DD0C5F30A570246C5F3A3
:100620001303C1F31300C1F30A5640F4801543F4D9
:100630008013A7EB0608101BD64608F2FD3873EBB3
:10064000050002D308F1010801E092185B41B8F1FE
:10065000000F03DA00200146BDE8F08D00204FF4C2
:100660008011064684460EE0171B73EB050705D381
:10067000121B63EB050306434CEA010C49084FEAE1
:10068000300092185B4150EA0107EDD152EA0300B5
:1006900012D082EA040083EA0501084305D0101B4A
:1006A000AB4106D20122002306E000224FF00043B6
:1006B00002E06FF0010253101AEB06004CEB0851F8
:1006C00010EB0A0041EB0B01BDE8F04DFFF734BF22
:1006D000C1F30A52C1F3130140F2FF3341F4801118
:1006E0009A4202DA00200146704740F233439A42B0
:1006F000A2F2334202DC5242FFF7FCBEFFF7EBBE30
:1007000030B5041E71F1000404DB4FF00044404298
:1007100064EB0101141E73F1000405DB1C464FF06D
:100720000043524263EB0403994208BF904230BD3C
:10073000064C074D06E0E06840F0010394E807002E
:1007400098471034AC42F6D3FFF728FDA86800089C
:10075000C868000810B54FF4C071074801F032FCBA
:10076000C82001F0E3FA4FF4C071034801F02AFCFD
:10077000C82001F0DBFA10BD0008024000BFFEE710
:1007800010B54FF47A7001F0D1FA09220AA10D4890
:1007900004F062F84FF4AF710A4803F047FD0128F6
:1007A00004D1072108A002F03BFF03E0082108A0C4
:1007B00002F036FF10BD00003041542B4950523F2B
:1007C0000D000000340300205245535F4F4B0A00D8
:1007D0005245535F4552520A0000000010B54FF4D5
:1007E0007A7001F0A3FA0A220AA10D4804F034F845
:1007F00041F288310A4803F019FD012804D107218C
:1008000008A002F00DFF03E0082108A002F008FF95
:1008100010BD00003041542B4350494E3F0D0000A5
:10082000340300205245535F4F4B0A005245535F3B
:100830004552520A0000000010B54FF47A7001F0E2
:1008400075FA0D2211A1154804F006F84FF4AF71A6
:10085000124803F0EBFC01280ED1072110A002F092
:10086000DFFE18231A461049104801F0DAF9012179
:100870000E4802F0D5FE03E008210DA002F0D0FEE4
:1008800001220EA1094800F049F810BD3041542B57
:100890005153494D4445543F0D000000340300209E
:1008A0005245535F4F4B0A00820300208204002010
:1008B0005245535F4552520A0000000031000000CB
:1008C00010B50446112204A1204600F027F808B113
:1008D000012010BD0020FCE70D0A2B514D5453544C
:1008E00041543A20302C310D0A00000010B5044666
:1008F000062300222146064801F093F9072205A1AC
:10090000034800F00BF808B1012010BD0020FCE7FF
:10091000820400200D0A2B434D54490030B5034694
:1009200009E013F8014B11F8015BAC4201D0002043
:1009300030BD501EC2B2002AF3D10120F8E70000FA
:1009400010B50446062204A12046FFF7E7FF08B1D0
:10095000012010BD0020FCE70D0A4F4B0D0A0000DE
:1009600070B505460C460A2C07DA3020287022465E
:1009700005A1681C05F012F904E0224602A12846F0
:1009800005F00CF970BD00002564000010B5FE48AC
:10099000406A0068FD49884276D9FC4854380068AE
:1009A000F949496A0968FA4A914201D1082169E086
:1009B000F549496A0968F54A483A914201D1082146
:1009C00060E0F149496A0968F14A6032914201D117
:1009D000082157E0EC49496A0968EC4A183291420B
:1009E00001D108214EE0E849496A0968E84A18320D
:1009F000914201D1491545E0E349496A0968E34A52
:100A0000303A914201D149153CE0DF49496A096811
:100A1000DF4A7832914201D1491533E0DA49496A17
:100A20000968DA4A3032914201D149152AE0D649A3
:100A3000496A0968D64A3032914202D14FF4002106
:100A400020E0D149496A0968D04A183A914202D156
:100A50004FF4002116E0CC49496A0968CC4A90322B
:100A6000914202D14FF400210CE0C749496A09685C
:100A7000C64A4832914203D14FF4002102E003E01C
:100A80004FF00071084070E1BF48406A0068C049FB
:100A9000A831884276D9BD4858380068BA49496AB1
:100AA0000968BB4A914201D1082169E0B649496A07
:100AB0000968B64A483A914201D1082160E0B2493A
:100AC000496A0968B24A6032914201D1082157E06F
:100AD000AD49496A0968AD4A1832914201D10821ED
:100AE0004EE0A949496A0968A94A1832914201D1E0
:100AF000491545E0A449496A0968A44A303A914237
:100B000001D149153CE0A049496A0968A04A7832F8
:100B1000914201D1491533E09B49496A09689B4AD2
:100B20003032914201D149152AE09749496A096852
:100B3000974A3032914202D14FF4002120E092498D
:100B4000496A0968914A183A914202D14FF400214A
:100B500016E08D49496A09688D4A9032914202D166
:100B60004FF400210CE08849496A0968874A4832F5
:100B7000914203D14FF4002102E003E04FF00071F5
:100B80000840F2E08048406A006881494831884264
:100B900076D97F48103840687B49496A09687C4AA1
:100BA000914201D1082169E07749496A0968774A89
:100BB000483A914201D1082160E07349496A0968C5
:100BC000734A6032914201D1082157E06E49496A67
:100BD00009686E4A1832914201D108214EE06A49F3
:100BE000496A09686A4A1832914201D1491545E0BB
:100BF0006549496A0968654A303A914201D1491507
:100C00003CE06149496A0968614A7832914201D100
:100C1000491533E05C49496A09685C4A30329142BF
:100C200001D149152AE05849496A0968584A3032C1
:100C3000914202D14FF4002120E05349496A0968EA
:100C4000524A183A914202D14FF4002116E04E491F
:100C5000496A09684E4A9032914202D14FF400210C
:100C60000CE04949496A0968484A4832914203D12F
:100C70004FF4002102E003E04FF00071084074E0FF
:100C80004348103800684049496A0968404A91421F
:100C900001D1082168E03C49496A09683B4A483A61
:100CA000914201D108215FE03749496A0968384A11
:100CB0006032914201D1082156E03349496A0968FE
:100CC000324A1832914201D108214DE02E49496A39
:100CD00009682F4A1832914201D1491544E02A4946
:100CE000496A0968294A303A914201D149153BE0E5
:100CF0002549496A0968264A7832914201D1491545
:100D000032E02149496A0968204A3032914201D1D2
:100D1000491529E01C49496A09681D4A3032914247
:100D200002D14FF400211FE01749496A0968174AA8
:100D3000183A914202D14FF4002115E01249496A54
:100D40000968134A9032914202D14FF400210BE01E
:100D50000D49496A09680D4A4832914202D14FF45F
:100D6000002101E04FF00071084010B1094803F084
:100D7000C7FD0548406A0068044988427CD902489A
:100D8000406A0068024907E02801002058640240D8
:100D90001060024068000020884201D1202067E0F6
:100DA000EE48406A0068EE49884201D120205FE0A9
:100DB000EA48406A0068EB49884201D1202057E0A8
:100DC000E648406A0068E6496031884201D1202047
:100DD0004EE0E248406A0068E2494839884201D161
:100DE000C01445E0DD48406A0068DD49183188429A
:100DF00001D1C0143CE0D948406A0068D949183193
:100E0000884201D1C01433E0D448406A0068D44914
:100E10007831884201D1C0142AE0D048406A006885
:100E2000D0493039884202D14FF4001020E0CB483D
:100E3000406A0068CA493031884202D14FF400103C
:100E400016E0C648406A0068C6493031884202D17F
:100E50004FF400100CE0C148406A0068C04990316E
:100E6000884203D14FF4001002E005E04FF000602B
:100E7000BB49091F08606AE1B848406A0068B9497F
:100E80004831884274D9B548406A0068B54960392C
:100E9000884201D1202066E0B048406A0068B0492D
:100EA000884201D120205EE0AC48406A0068AD492C
:100EB000884201D1202056E0A848406A0068A8492D
:100EC0006031884201D120204DE0A448406A00688A
:100ED000A4494839884201D1C01444E09F48406A7F
:100EE00000689F491831884201D1C0143BE09B48FB
:100EF000406A00689B491831884201D1C01432E031
:100F00009648406A006896497831884201D1C014F9
:100F100029E09248406A006892493039884202D1FB
:100F20004FF400101FE08D48406A00688C49303152
:100F3000884202D14FF4001015E08848406A0068EA
:100F400088493031884202D14FF400100BE08348C9
:100F5000406A006882499031884202D14FF4001003
:100F600001E04FF000607E4908390860EFE0FFE7DC
:100F70007A48406A00687B491839884274D97748B2
:100F8000406A006877496039884201D1202066E0D4
:100F90007248406A00687249884201D120205EE0B0
:100FA0006E48406A00686F49884201D1202056E0AF
:100FB0006A48406A00686A496031884201D120204D
:100FC0004DE06648406A006866494839884201D168
:100FD000C01444E06148406A0068614918318842A1
:100FE00001D1C0143BE05D48406A00685D4918319A
:100FF000884201D1C01432E05848406A006858491C
:101000007831884201D1C01429E05448406A006810
:1010100054493039884202D14FF400101FE04F4844
:10102000406A00684E493031884202D14FF40010C6
:1010300015E04A48406A00684A493031884202D186
:101040004FF400100BE04548406A00684449903175
:10105000884202D14FF4001001E04FF00060414996
:101060007039C86073E0FFE73C48406A00683D495A
:101070006039884201D1202066E03848406A006823
:101080003749884201D120205EE03448406A006838
:101090003449884201D1202056E03048406A006837
:1010A0002F496031884201D120204DE02B48406A11
:1010B00000682C494839884201D1C01444E02748CF
:1010C000406A006826491831884201D1C0143BE0CB
:1010D0002248406A006823491831884201D1C0146F
:1010E00032E01E48406A00681D497831884201D1CB
:1010F000C01429E01948406A00681A49303988420A
:1011000002D14FF400101FE01448406A00681449EF
:101110003031884202D14FF4001015E00F48406A88
:10112000006810493031884202D14FF400100BE0C2
:101130000A48406A00680A499031884202D14FF457
:10114000001001E04FF00060064970398860034AE2
:10115000506A526AD16B884710BD000028010020F8
:10116000106402407060024010B5F8480068408C7E
:10117000401CF64909684884F5480068F349096845
:10118000098A0843F2490860F248806A0068F24917
:10119000884276D9F04854380068EE49896A09686F
:1011A000EE4A914201D1082169E0EA49896A096859
:1011B000E94A483A914201D1082160E0E549896A4B
:1011C0000968E64A6032914201D1082157E0E149BD
:1011D000896A0968E04A1832914201D108214EE03B
:1011E000DC49896A0968DD4A1832914201D1491502
:1011F00045E0D849896A0968D74A303A914201D115
:1012000049153CE0D349896A0968D44A7832914249
:1012100001D1491533E0CF49896A0968CE4A303295
:10122000914201D149152AE0CA49896A0968CB4A25
:101230003032914202D14FF4002120E0C549896A41
:101240000968C54A183A914202D14FF4002116E0CC
:10125000C049896A0968C14A9032914202D14FF46B
:1012600000210CE0BB49896A0968BB4A48329142B7
:1012700003D14FF4002102E003E04FF00071084079
:101280007AE1B448806A0068B449A831884276D9C6
:10129000B14858380068AF49896A0968AF4A914235
:1012A00001D1082169E0AB49896A0968AA4A483A2C
:1012B000914201D1082160E0A649896A0968A74ADC
:1012C0006032914201D1082157E0A249896A096838
:1012D000A14A1832914201D108214EE09D49896A04
:1012E00009689E4A1832914201D1491545E0994951
:1012F000896A0968984A303A914201D149153CE01F
:101300009449896A0968954A7832914201D1491510
:1013100033E09049896A09688F4A3032914201D19D
:1013200049152AE08B49896A09688C4A3032914212
:1013300002D14FF4002120E08649896A0968864A73
:10134000183A914202D14FF4002116E08149896A8E
:101350000968824A9032914202D14FF400210CE098
:101360007C49896A09687C4A4832914203D14FF42A
:10137000002102E003E04FF000710840FCE07548F6
:10138000806A006875494831884276D973481038B8
:1013900040687049896A0968704A914201D1082100
:1013A00069E06C49896A09686B4A483A914201D1FF
:1013B000082160E06749896A0968684A6032914299
:1013C00001D1082157E06349896A0968624A1832E5
:1013D000914201D108214EE05E49896A09685F4A5D
:1013E0001832914201D1491545E05A49896A096884
:1013F000594A303A914201D149153CE05549896A30
:101400000968564A7832914201D1491533E0514971
:10141000896A0968504A3032914201D149152AE05F
:101420004C49896A09684D4A3032914202D14FF4E1
:10143000002120E04749896A0968474A183A9142E1
:1014400002D14FF4002116E04249896A0968434AF3
:101450009032914202D14FF400210CE03D49896A5B
:1014600009683D4A4832914203D14FF4002102E01D
:1014700003E04FF0007108407EE038481038006803
:101480003449896A0968354A914201D1082172E0DC
:101490003049896A0968304A483A914201D10821A5
:1014A00069E02C49896A09682C4A6032914201D16D
:1014B000082160E02749896A0968274A1832914261
:1014C00001D1082157E02349896A0968234A183263
:1014D000914201D149154EE01E49896A09681E4AA8
:1014E000303A914201D1491545E01A49896A0968A3
:1014F0001A4A7832914201D149153CE01549896A6E
:101500000968154A3032914201D1491533E0114939
:10151000896A0968114A3032914202D14FF40021A0
:1015200029E00C49896A09680B4A183A914202D1AC
:101530004FF400211FE00749896A0968074A903281
:1015400091420DD14FF4002115E000000000002071
:10155000003C014028010020586402401060024015
:10156000F849896A0968F84A914202D14FF400218A
:1015700001E04FF00071084010B1F44803F0C0F9E9
:10158000F048806A0068F0494839884274D9ED48CB
:10159000806A0068EE49884201D1202067E0E9486E
:1015A000806A0068E8499039884201D120205EE0D5
:1015B000E448806A0068E6496031884201D1202011
:1015C00055E0E048806A0068DF493039884201D13F
:1015D00020204CE0DB48806A0068DD4918318842F1
:1015E00001D1C01443E0D748806A0068D6497839F1
:1015F000884201D1C0143AE0D248806A0068D449D8
:101600007831884201D1C01431E0CE48806A006848
:10161000CD491839884201D1C01428E0C948806AF0
:101620000068CB493031884202D14FF400101EE0EF
:10163000C448806A0068C4496039884202D14FF4C6
:10164000001014E0BF48806A0068C14990318842A8
:1016500002D14FF400100AE0BA48806A0068BA4923
:10166000884202D14FF4001001E04FF00060B6490B
:101670009439086072E1FFE7B248806A0068B449B3
:10168000A831884274D9AF48806A0068B04988425E
:1016900001D1202067E0AB48806A0068AA499039F0
:1016A000884201D120205EE0A648806A0068A849EF
:1016B0006031884201D1202055E0A248806A00684C
:1016C000A1493039884201D120204CE09D48806AF0
:1016D00000689F491831884201D1C01443E09948FD
:1016E000806A006898497839884201D1C0143AE08C
:1016F0009448806A006896497831884201D1C014C4
:1017000031E09048806A00688F491839884201D1D9
:10171000C01428E08B48806A00688D4930318842C7
:1017200002D14FF400101EE08648806A00688649A6
:101730006039884202D14FF4001014E08148806A79
:10174000006883499031884202D14FF400100AE0CA
:101750007C48806A00687C49884202D14FF40010BE
:1017600001E04FF00060784998390860F6E0FFE743
:101770007448806A006876494831884274D9714853
:10178000806A00687249884201D1202067E06D4874
:10179000806A00686C499039884201D120205EE05F
:1017A0006848806A00686A496031884201D1202017
:1017B00055E06448806A006863493039884201D145
:1017C00020204CE05F48806A0068614918318842F7
:1017D00001D1C01443E05B48806A00685A497839F7
:1017E000884201D1C0143AE05648806A00685849DE
:1017F0007831884201D1C01431E05248806A0068D3
:1018000051491839884201D1C01428E04D48806AF6
:1018100000684F493031884202D14FF400101EE079
:101820004848806A006848496039884202D14FF4CC
:10183000001014E04348806A0068454990318842AE
:1018400002D14FF400100AE03E48806A00683E4929
:10185000884202D14FF4001001E04FF000603C4993
:101860001039C8607AE0FFE73648806A0068384976
:10187000884201D120206FE03248806A00683249F6
:101880009039884201D1202066E02E48806A0068A5
:101890002F496031884201D120205DE02948806ACB
:1018A000006829493039884201D1202054E0254878
:1018B000806A006826491831884201D1C0144BE083
:1018C0002048806A006820497839884201D1C014D4
:1018D00042E01C48806A00681D497831884201D185
:1018E000C01439E01748806A0068174918398842DF
:1018F00001D1C01430E01348806A006814493031C7
:10190000884202D14FF4001026E00E48806A006839
:101910000D496039884202D14FF400101CE009489B
:10192000806A00680A499031884202D14FF4001061
:1019300012E00448806A0068034988420AD14FF4E3
:10194000001009E028010020A0640240C800002027
:10195000106002404FF0006003498860034A906ABB
:10196000926AD16B884710BD0060024028010020B8
:101970000146087810381823B0FBF3F20848805C61
:10198000C865032A05D908686FF30900001D88653A
:1019900003E008686FF309008865886D70470000F0
:1019A00088680008014600208A6A8B69CBB932B189
:1019B000012A0DD0022A03D0032A10D10EE000BF65
:1019C000CB6A03F08073B3F1807F00D1012007E080
:1019D000CB6AB3F1C07F00D1012001E000E000BF7D
:1019E00034E08B69B3F5005F1AD132B1012A07D018
:1019F000022A03D0032A11D10AE000BF01200EE021
:101A0000CB6A03F08073B3F1807F00D1012006E040
:101A1000CB6AB3F1C07F00D1012000E000BF15E028
:101A200032B1012A05D0022A04D0032A0CD103E0E6
:101A300000BF00BF012008E0CB6A03F08073B3F160
:101A4000807F00D1012000E000BF00BF70477047D9
:101A500010B54FF47A7000F069F90D220BA10F4810
:101A600002F0FAFE4FF4AF710C4802F0DFFB0128E0
:101A700005D107210AA001F0D3FD012010BD0821E6
:101A800009A001F0CDFD0020F8E700003041542B03
:101A9000434D47443D312C340D00000034030020F9
:101AA0005245535F4F4B0A005245535F4552520A0D
:101AB0000000000010B54FF4006000F089F910BD7F
:101AC00010B500224FF40071014800F085FA10BDF6
:101AD0000008024010B5FEF7AFFE68B94FF47A7007
:101AE00000F024F9102205A1094802F0B5FE4FF4D8
:101AF000AF71074802F09AFB10BD00003041542B33
:101B00005153494D4445543D312C310D00000000E6
:101B10003403002003E04FF4FA7000F007F9FAE70D
:101B20002DE9F0470646884615460027A5F109002D
:101B3000C4B200F0FF094A461AA11E4804F02EF86C
:101B40000E211C4801F06CFD01E0601EC4B2305D46
:101B50000A28FAD1601CC4B2224617A1154804F025
:101B60001DF80F21134801F05BFDA9EB0400401C98
:101B7000C7B23A4614A10F4804F010F80E210D48E0
:101B800001F04EFDA5F10900C3B2224631464046A0
:101B900000F047F83946404601F042FD3846BDE8BE
:101BA000F08700000A49442053746F70203D2025BF
:101BB000640A0000640300200A49442053746172DF
:101BC000743D2025640A00000A53697A654D7367E5
:101BD000203D2025640A000070B504460025E07B06
:101BE000302801DB012000E00020E17B392901DC05
:101BF000012100E00021084070B1E07B3038A17B7A
:101C0000303901EB810100EB4100C5B2012104F143
:101C10000E0001F005FD02E0A07B3038C5B2284679
:101C200070BD70B50446981A401CC5B2002004E08F
:101C30008E18365C2654461CF0B2A842F8DB70BD04
:101C40002DE9F0410446002500F0CCF9074614B90F
:101C50000120BDE8F081606A00B100BF00BF002034
:101C600084F8340000BF022084F835002068006842
:101C700020F00100216808600AE000F0B3F9C01B01
:101C8000052805D920206065032084F83500E0E7A9
:101C90002068006800F001000028EED12068056887
:101CA00021480540D4E901010843E168084321695E
:101CB000084361690843A1690843E1690843216A4F
:101CC00008430543606A042803D1D4E90B010843A3
:101CD0000543206805602068456925F00705606AAE
:101CE0000543606A04280DD1A06A0543E06A48B143
:101CF0002046FFF757FE28B140206065012084F898
:101D00003500A6E7206845612046FFF731FE06460C
:101D100094F85C103F208840B0600020606501208E
:101D200084F83500002094E73F8010F070B5044639
:101D300000F058F906462546681C10B104480078A2
:101D4000054400BF00F04EF9801BA842FAD370BDD5
:101D50004C0000202DE9F041074600240025002614
:101D60001748006817490968098A884314490860B8
:101D700014490968488C00EBD0714910A0EB41016F
:101D800011B1114C114D01E0104C0F4D21460D4881
:101D9000006802F031FF0B480068408C01280DDD1F
:101DA000F2B229460748006802F0A6FE0549096814
:101DB000CA6904490968498C891E5054BDE8F081FC
:101DC000003C01400000002070010020A001002024
:101DD00010B5044604480068204020B10248046061
:101DE0002046FFF7B7FF10BD143C0140F8B502468E
:101DF0000B460025002400200021CFE0012606FA32
:101E000001F51E6806EA0504AC4275D11E7906F09C
:101E10000306012E04D01E7906F00306022E13D10C
:101E200090684F000326BE40B0434F00DE68BE40BE
:101E300030439060506801268E40B0431E79C6F34F
:101E400000168E40304350601E7906F00306032EC4
:101E500009D0D0684F000326BE40B0434F009E68B3
:101E6000BE403043D0601E7906F00306022E13D127
:101E7000CF0802F1200656F827004E07F70E0F266E
:101E8000BE40B0434F07FF0E1E69BE403043CF082F
:101E900002F1200646F8270010684F000326BE40D6
:101EA000B0431E7906F003064F00BE403043106079
:101EB0005E6806F08056B6F1805F6ED100BF0026E6
:101EC0000096384E366846F48046364F3E603E46B1
:101ED000366806F48046009600BF00BF324E8F0879
:101EE00056F827008E07370F0F26BE40B0432F4EFF
:101EF000B24202D1002615E04FE02D4EB24201D190
:101F000001260FE02B4EB24201D102260AE02A4EF2
:101F1000B24201D1032605E0284EB24201D1042687
:101F200000E007268F073F0FBE4030431E4E8F084C
:101F300046F82700224E3068A0435E6806F48036DB
:101F4000B6F5803F00D120431D4E3060361D30680D
:101F5000A0435E6806F40036B6F5003F00D120438A
:101F6000174E361D3060361D3068A0435E6806F49B
:101F70008016B6F5801F00D12043114E0836306020
:101F8000361D3068A0435E6806F40016B6F5001FE3
:101F900000D120430A4E0C363060491C1029FFF452
:101FA0002DAFF8BD4438024008380140000002401F
:101FB0000004024000080240000C024000100240F1
:101FC000003C014010B5426921EA020302EA010423
:101FD00043EA0443836110BD0AB1816101E00B044F
:101FE000836170470148006870470000440000208A
:101FF00003480068034909780844014908607047AC
:10200000440000204C00002010B50D48006840F44A
:1020100000700B4908600846006840F48060086062
:102020000846006840F480700860032000F0A2F8C1
:10203000002000F007F800F02BF8002010BD000091
:10204000003C024070B504460E4800784FF47A71A7
:10205000B1FBF0F00C490968B1FBF0F5284600F03F
:1020600077FF08B1012070BD102C07D20022214655
:10207000501E00F041F80548046001E00120F2E73D
:102080000020F0E74C000020500000204800002015
:1020900008B500BF002000900E48006840F4804062
:1020A0000C4908600846006800F48040009000BFBA
:1020B00000BF00BF00200090081F006840F0805063
:1020C000091F08600846006800F08050009000BFBB
:1020D00000BF08BD4438024001460846002809DB1D
:1020E00000F01F0301229A4043099B0003F1E02303
:1020F000C3F8002100BF70472DE9F05F80460D4610
:102100001646002703F05EFD074639462A46334649
:1021100001F00700C0F1070ABAF1040F02D94FF02D
:10212000040A01E0C0F1070AD14600F1040ABAF13D
:10213000070F02D24FF0000A01E0A0F1030AD446D3
:102140004FF0010A0AFA09FAAAF1010A0AEA020A98
:102150000AFA0CFA4FF0010B0BFA0CFBABF1010B76
:102160000BEA030B4AEA0B042146404603F032FD1A
:10217000BDE8F09F00BF00F00702064B19684FF65C
:10218000FF031940044B0B4343EA0221014B196042
:1021900000BF70470CED00E00000FA0570B5044682
:1021A0000D460CB9012070BD5848006800F00700CA
:1021B000A84209D255490D700846006800F0070092
:1021C000A84201D00120EEE7207800F002000228AA
:1021D0001DD1207800F00400042805D14C48006887
:1021E00040F4E0504A490860207800F008000828D0
:1021F00005D14748006840F46040454908604448BC
:10220000006820F0F000A168084341490860207888
:1022100000F00100A8B36068012807D13C480838E5
:102220000068C0F34040B8B90120BCE760680228EC
:1022300002D06068032807D1354808380068C0F329
:10224000406048B90120AEE7314808380068C0F363
:10225000400008B90120A6E72D48006820F00300DF
:10226000616808432A490860FFF7BCFE064609E09A
:10227000FFF7B8FE801B41F28831884202D9032063
:1022800091E707E02248006800F00C006168B0EBBD
:10229000810FEDD11D48006800F00700A84209D960
:1022A0001A490D700846006800F00700A84201D0E6
:1022B000012078E7207800F00400042807D11448B2
:1022C000006820F4E050E168084311490860207874
:1022D00000F00800082808D10D48006820F460408C
:1022E000216940EAC1000A49086000F03FF8084946
:1022F0000968C1F30311074A515CC84006490860E8
:1023000006480068FFF79EFE00204CE7003C0240B4
:102310000838024090680008500000204800002063
:1023200001480068704700005000002000B5FFF72A
:10233000F7FF04490968C1F38221034A515CC84090
:1023400000BD000008380240A068000800B5FFF793
:10235000E7FF04490968C1F34231034A515CC840B0
:1023600000BD000008380240A06800082DE9F047D1
:10237000002400250026A1462548006800F00C0036
:1023800020B1042805D008283AD105E0DFF8849070
:1023900039E0DFF8849036E01D48001F006800F047
:1023A0003F041B48001F006800F4800078B11A4801
:1023B0001749091F0968C1F38811A0FB0170014684
:1023C000224600233846FDF701FF05460EE011487E
:1023D0000F49091F0968C1F38811A0FB017001466C
:1023E000224600233846FDF7F1FE05460848001F47
:1023F0000068C0F30140401C4600B5FBF6F902E05E
:10240000DFF8109000BF00BF4846BDE8F08700002D
:10241000083802400024F40040787D01F8B50446F5
:102420000CB90120F8BD207800F00100002874D01C
:10243000F948006800F00C0004280DD0F648006848
:1024400000F00C00082813D1F348001F006800F4C6
:102450008000B0F5800F0BD1EF4808380068C0F35A
:102460004040002859D06068002856D10120D9E7A3
:1024700000BF6068B0F5803F08D1E74808380068C1
:1024800040F48030E449083908601EE06068B0F527
:10249000A02F0DD1E0480838006840F48020DE49C4
:1024A000083908600846006840F4803008600CE095
:1024B000D9480838006820F48030D74908390860C6
:1024C0000846006820F48020086000BF606890B172
:1024D000FFF788FD054606E0FFF784FD401B6428F2
:1024E00001D903209EE7CC4808380068C0F340407B
:1024F0000028F1D011E0FFF775FD054606E0FFF773
:1025000071FD401B642801D903208BE7C2480838BD
:102510000068C0F340400028F1D1207800F00200AC
:1025200002285FD1BC48006800F00C0058B1BA48DE
:10253000006800F00C0008281CD1B748001F006894
:1025400000F48000B0B9B44808380068C0F3400017
:1025500020B1E068012801D0012063E7AE480838C7
:10256000006820F0F800216940EAC100AA49083952
:10257000086037E0E06800B30120A8490860FFF771
:1025800031FD054606E0FFF72DFD401B022801D96D
:10259000032047E7A04808380068C0F3400000283F
:1025A000F1D09D480838006820F0F800216940EA21
:1025B000C10099490839086014E000209749086073
:1025C000FFF710FD054606E0FFF70CFD401B022853
:1025D00001D9032026E7904808380068C0F340007E
:1025E0000028F1D1207800F0080008282CD160697B
:1025F000A8B101208A490860FFF7F4FC054606E00F
:10260000FFF7F0FC401B022801D903200AE78248AB
:102610006C300068C0F340000028F1D014E00020C6
:102620007F490860FFF7DEFC054606E0FFF7DAFCAD
:10263000401B022801D90320F4E677486C3000687B
:10264000C0F340000028F1D1207800F004000428F5
:1026500070D1002770483830006800F0805090B981
:1026600000BF002000906C483830006840F0805077
:102670006949383108600846006800F080500090D1
:1026800000BF00BF01276748006800F48070B0B940
:102690006448006840F4807062490860FFF7A2FC5B
:1026A000054606E0FFF79EFC401B022801D90320E7
:1026B000B8E65C48006800F480700028F2D000BFE3
:1026C000A068012808D154486830006840F0010033
:1026D0005149683108601DE0A06805280DD14E48B9
:1026E0006830006840F004004B49683108600846D3
:1026F000006840F0010008600CE04748683000685E
:1027000020F001004449683108600846006820F064
:102710000400086000BFA068A8B1FFF763FC05468D
:1027200009E0FFF75FFC401B41F28831884202D983
:10273000032077E626E0384868300068C0F34000A0
:102740000028EED013E0FFF74DFC054608E0FFF748
:1027500049FC401B41F28831884201D9032061E6DF
:102760002D4868300068C0F340000028EFD1012FE9
:1027700007D129483830006820F080502649383188
:10278000086000BFA069002845D02348006800F019
:102790000C0008285DD0A069022845D100201F49FF
:1027A0000866FFF71FFC054606E0FFF71BFC401B11
:1027B000022801D9032035E6174808380068C0F31D
:1027C00040600028F1D1D4E907010843616A40EA7A
:1027D00081110122A06AC2EB500041EA00412C2085
:1027E000005D41EA00600C49091F086001200B49A7
:1027F0000866FFF7F7FB054606E0FFF7F3FB401B13
:10280000022801D903200DE6034808380068C0F308
:1028100040600028F1D049E00838024000004742FB
:10282000800E474200700040002021490866FFF7F3
:10283000D9FB054606E0FFF7D5FB401B022801D96E
:102840000320EFE51B480068C0F340600028F2D188
:102850002CE0A069012800D1E4E51648001D0668B7
:10286000A069012820D006F48001E06981421BD1D3
:1028700006F03F01206A814216D147F6C070304011
:10288000616AB0EB811F0FD106F440310122A06ACA
:10289000C2EB5000B1EB004F06D106F070612C2066
:1028A000005DB1EB006F01D00120BBE50020B9E570
:1028B000000047420038024010B504460CB9012020
:1028C00010BD606A38B96068B0F5827F00D105E05C
:1028D0000021E16102E00021216161610021A1622A
:1028E00094F8510028B9002084F85000204600F0E8
:1028F00047F8022084F851002068006820F040006A
:1029000021680860A08800F48270218901F40441E4
:102910000843A18901F400610843217C01F0020110
:102920000843217D01F001010843218B01F400716E
:102930000843217F01F0380108432021095D01F09F
:1029400080010843218D01F400510843216808608B
:102950000421A06901EA104094F8241001F010014C
:102960000843216848602068C06920F4006021683D
:10297000C86100206065012084F8510000209FE7B5
:1029800010B586B00446142101A8FDF757FC1B4979
:102990002068884230D100BF0020009018480068AD
:1029A00040F48040164908600846006800F4804002
:1029B000009000BF00BF00BF0020009010481038FA
:1029C000006840F002000E491039086008460068AF
:1029D00000F00200009000BF00BF4FF46040019083
:1029E000022002900020039003200490052005900F
:1029F00001A90448FFF7FAF906B010BD00380040FD
:102A000040380240000402402DE9F843044688465D
:102A100016461D464FF000096068B0F5827F0DD163
:102A2000A06858B9042084F8510033464246414614
:102A30002046009500F077F9BDE8F88300BF94F8D0
:102A40005000012801D10220F6E7012084F850004F
:102A500000BFFFF7C7FA074694F85100012802D0DB
:102A60004FF002097EE0B8F1000F00D016B94FF028
:102A7000010977E0042084F8510000206065C4F863
:102A80003880A687E6872063A086E086206460649D
:102A9000A068B0F5004F0BD12068006820F040001E
:102AA000216808602068006820F480402168086080
:102AB0002068006800F04000402805D020680068C9
:102AC00040F0400021680860E068F8B91AE020682A
:102AD000806800F0010050B12068007BA16B087095
:102AE000A06B401CA063E08F401EE0870AE0FFF768
:102AF00079FAC01BA84201D3681C00B915B94FF080
:102B000003092FE0E08F0028E1D11EE01AE02068E1
:102B1000806800F0010050B12068C068A16B088097
:102B2000A06B801CA063E08F401EE0870AE0FFF7E7
:102B300059FAC01BA84201D3681C00B915B94FF05F
:102B400003090FE0E08F0028E1D13A4629462046EC
:102B500001F0F8FB08B120206065606D08B14FF00E
:102B6000010900BF012084F8510000BF002084F853
:102B7000500000BF48465FE72DE9F84F04468846FD
:102B800016461D464FF0000A00BF94F85000012879
:102B900002D10220BDE8F88F012084F8500000BF68
:102BA000FFF720FA0746B14694F85100012802D0F9
:102BB0004FF0020AADE0B8F1000F00D016B94FF0A7
:102BC000010AA6E0032084F8510000206065C4F8E3
:102BD0003080A686E686A063A087E08760642064D4
:102BE000A068B0F5004F0BD12068006820F04000CD
:102BF000216808602068006840F48040216808600F
:102C00002068006800F04000402805D02068006877
:102C100040F0400021680860E068B0F5006F2FD1F7
:102C2000606810B1B9F1010F09D1206B00882168EB
:102C3000C860206B801C2063E08E401EE0861BE095
:102C40002068806800F0020002280AD1206B00880A
:102C50002168C860206B801C2063E08E401EE086E7
:102C60000AE0FFF7BFF9C01BA84201D3681C00B9F6
:102C700015B94FF0030A4CE0E08E0028E0D12EE0B9
:102C8000606810B1B9F1010F09D1206B007821689B
:102C90000873206B401C2063E08E401EE0861BE022
:102CA0002068806800F0020002280AD1206B0078BA
:102CB00021680873206B401C2063E08E401EE08674
:102CC0000AE0FFF78FF9C01BA84201D3681C00B9C6
:102CD00015B94FF0030A1CE0E08E0028E0D13A4617
:102CE0002946204601F078FB08B120206065A068E5
:102CF00050B900BF002000902068C0680090206894
:102D00008068009000BF00BF606D08B14FF0010AFD
:102D100000BF012084F8510000BF002084F850005B
:102D200000BF504636E72DE9FF5F044688469146CE
:102D30001D460E9E012002900020019000BF94F8D5
:102D40005000012803D1022004B0BDE8F09F01200B
:102D500084F8500000BFFFF745F9074694F851B0DA
:102D600060680390AA46BBF1010F0BD00398B0F541
:102D7000827F04D1A06810B9BBF1040F02D00220F9
:102D80000190DBE0B8F1000F03D0B9F1000F00D0E3
:102D900015B901200190D1E094F85100042802D027
:102DA000052084F8510000206065C4F83890E5875C
:102DB000A587C4F83080E586A58620646064206815
:102DC000006800F04000402805D02068006840F00E
:102DD000400021680860E068B0F5006F4AD1606883
:102DE00010B1BAF1010F09D1206B00882168C860C9
:102DF000206B801C2063E08E401EE08633E020685C
:102E0000806800F00200022810D1E08E70B10298B4
:102E100001280BD1206B00882168C860206B801CC2
:102E20002063E08E401EE0860020029020688068CB
:102E300000F0010068B1E08F58B12068C068A16B54
:102E40000880A06B801CA063E08F401EE0870120FB
:102E50000290FFF7C7F8C01BB04204D3701C10B13A
:102E6000032001906AE0E08E0028C8D1E08F00289E
:102E7000C5D14AE0606810B1BAF1010F09D1206BE9
:102E8000007821680873206B401C2063E08E401E90
:102E9000E08634E02068806800F00200022810D14B
:102EA000E08E70B1029801280BD1206B0078216868
:102EB0000873206B401C2063E08E401EE0860020DB
:102EC00002902068806800F0010068B1E08F58B17E
:102ED0002068C068A16B0870A06B401CA063E08FE5
:102EE000401EE08701200290FFF77CF8C01BB04233
:102EF00001D3701C00B916B9032001901EE0E08ECA
:102F00000028C7D1E08F0028C4D13A463146204678
:102F100001F062FA20B101200190202060650DE0EF
:102F2000A06850B900BF002000902068C0680090E1
:102F300020688068009000BF00BF00BF012084F8B7
:102F4000510000BF002084F8500000BF0198FBE64C
:102F500070B504462546681EB0F1807F01D301207C
:102F60000FE0681E4FF0E02148610F214FF0FF3065
:102F700002F030FE00204FF0E02188610720086158
:102F8000002070BD30B502460B4600BF92F83C00F1
:102F9000012801D1022030BD012082F83C0000BF91
:102FA000022082F83D00106844681068816824F0AF
:102FB00070041868044310684460144D1068A842F7
:102FC00013D01068B0F1804F0FD0114D1068A84297
:102FD0000BD0104D1068A84207D00F4D1068A842C2
:102FE00003D00E4D1068A84205D121F08001586829
:102FF000014310688160012082F83D0000BF00207D
:1030000082F83C0000BF00BFC5E70000000001409F
:103010000004004000080040000C00400040014057
:1030200010B504460CB9012010BD94F83D0028B934
:10303000002084F83C00204600F026F8022084F8A6
:103040003D00211D206801F069FB012084F8460045
:1030500000BF84F83E0001213F200155402001556A
:103060004120015500BF00BF012084F842004320E9
:103070000155442001554520015500BF012084F829
:103080003D000020D0E7000008B50A4A01689142DF
:103090000FD100BF002100910749096841F00101EB
:1030A000054A11601146096801F00101009100BF55
:1030B00000BF08BD00000140443802402DE9F04146
:1030C00004460D4600BF94F83C00012802D10220BE
:1030D000BDE8F081012084F83C0000BF022084F8A4
:1030E0003D002068866826F0770626F47F46206833
:1030F00086602868502833D00CDC202850D004DCAF
:1031000000284BD0102851D149E0302849D0402820
:103110004CD139E060282DD0702807D0B0F5805F01
:1031200003D0B0F5005F41D10DE040E0D5E90213D6
:103130006A68206801F055FB2068866846F07706CB
:103140002068866033E0D5E902136A68206801F0E0
:1031500048FB2068806840F480402168886026E051
:10316000EA686968206801F050FB5021206801F08E
:1031700043FB1CE0EA686968206801F059FB6021A4
:10318000206801F039FB12E0EA686968206801F004
:103190003CFB4021206801F02FFB08E000BF00BF8E
:1031A00000BF2968206801F027FB00E000BF00BFD6
:1031B000012084F83D0000BF002084F83C0000BFDF
:1031C00000BF85E710B50446042102A000F028FAEC
:1031D00010BD00004255470A0000000010B504462B
:1031E0000CB9012010BD94F82C0010B9204600F055
:1031F00013F808480460022084F82C00204601F0EF
:1032000057FD002084F82D00012084F82C000020B8
:10321000E8E700000000002010B586B0044600BFBB
:10322000002000903248006840F0010030490860FA
:103230000846006800F00100009000BF00BF00BF1A
:10324000002000902A481438006840F48000284983
:10325000143908600846006800F48000009000BF40
:1032600000BF00BF002000900846006840F0010049
:1032700008600846006800F00100009000BF00BF31
:1032800000BF002000900846006840F00100086080
:103290000846006800F00100009000BF00BF15481C
:1032A000154988624862C11413480182490041826D
:1032B0000846019001200290002003900320049012
:1032C00001A90C48FEF792FD0C4802904FF40060F3
:1032D000019001A90748FEF789FD00221146282028
:1032E000FEF70AFF2820FEF7F7FE06B010BD00002B
:1032F0004438024000000240340300200000211046
:103300002DE9F04104460D461646002794F82C702E
:10331000012F01D0042F25D105B116B90120BDE838
:10332000F081E561268401206084002084F82D006E
:1033300094F82C00042803D1102084F82C0002E01B
:10334000082084F82C0008490848806AC1630849AD
:103350000648806AC16401220421064801F030FA5F
:103360000020DCE70220DAE73949000828010020C4
:10337000014900080000014010B505490A780549D7
:103380000B780978491C034C21700349CA5410BDBD
:10339000090000200A000020820300202DE9F041EE
:1033A00004460D461646002794F82C70012F01D0D4
:1033B000082F3CD105B116B90120BDE8F081268364
:1033C000656101206083002084F82D0094F82C00B2
:1033D000082803D1102084F82C0002E0042084F88F
:1033E0002C0014491448406AC16314491248406AC9
:1033F000C164608B01280CD12978114A204601F064
:1034000025FD012200210F4801F0DAF9204601F0E4
:103410007DFD608B012808D1608BB04205DA608B9E
:10342000295C094A204601F011FD0020C5E7022071
:10343000C3E70000054A00082801002001490008F0
:10344000D00100200000014000020020704710B5AC
:1034500004460CB9012010BDA06900B100E000BF16
:1034600094F83D0028B9002084F83C00204600F084
:1034700027F8242084F83D002068C06820F400501C
:103480002168C860204601F095FD2068006920F49D
:103490009040216808612068406920F02A00216876
:1034A00048612068C06840F400502168C86000206E
:1034B0002064202084F83D0084F83E000020CAE704
:1034C00010B586B00446142101A8FCF7B7FE1B49CD
:1034D0002068884230D100BF002000901848006862
:1034E00040F01000164908600846006800F010001F
:1034F000009000BF00BF00BF0020009010481438AB
:10350000006840F001000E49143908600846006860
:1035100000F00100009000BF00BF4FF4C0600190B8
:1035200002200290002003900320049007200590C1
:1035300001A90448FEF75AFC06B010BD0010014076
:1035400044380240000002402DE9F84F04460E4680
:10355000174699464FF0000A94F83D0020285AD1AA
:1035600006B117B90120BDE8F88F00BF94F83C0000
:10357000012801D10220F6E7012084F83C0000BFB9
:1035800000202064212084F83D00FEF72BFD8246B8
:10359000A784E784A068B0F5805F04D1206910B9E2
:1035A0000025B04602E035464FF0000800BF00207D
:1035B00084F83C0000BF1BE05346002280212046D7
:1035C000CDF8009001F00CFE08B10320CBE745B91F
:1035D000B8F80000C0F308002168486008F102084C
:1035E00003E02878216848606D1CE08C401EE08470
:1035F000E08C0028E0D15346002240212046CDF83F
:10360000009001F0EDFD08B10320ACE7202084F824
:103610003D000020A7E70220A5E700BFFEE700006D
:1036200070B504460D463CB14FF47A732A462146E4
:103630000548FFF789FF06E04FF47A730E2203A1D5
:103640000148FFF781FF70BDF00200204461746102
:10365000204C6F67204E554C4C0A000010B50D22CF
:1036600017A11B4801F0F8F84FF49671184800F0C4
:10367000DDFD18480078142809DA0D2116A0FFF79F
:10368000CFFF4FF4FA60FEF751FB002010BD1A2364
:103690001A4615491548FEF7C4FA012214A1134829
:1036A000FDF73CF948B10F2112A0FFF7B9FF4FF425
:1036B000FA60FEF73BFB0120E8E70020E6E70000A8
:1036C0003041542B514D54434F4E4E3F0D0000009E
:1036D000340300200B0000204E6F7420636F6E6E69
:1036E000656374210A000000820300208204002028
:1036F00033000000436F6E6E656374204578697314
:1037000074210A002DE9FC4707460C4615461E4663
:103710004FF4FA60FEF70AFB2046FCF7A6FD00F125
:1037200011092846FCF7A1FD81443046FCF79DFDB8
:10373000484400F0FF0823463A461FA12548CDE93A
:10374000005602F02BFA42462249234801F084F841
:1037500041F28831204800F069FD03280AD10E218A
:103760001EA0FFF75DFF4FF4FA60FEF7DFFA0320BB
:10377000BDE8FC871D480078C01EC3B21B48007816
:10378000C01EC2B21A491348FEF74BFA012219A112
:103790001048FDF7C3F848B1112117A0FFF740FF0B
:1037A0004FF4FA60FEF7C2FA0120E1E74FF4FA6045
:1037B000FEF7BCFA0020DBE73041542B514D544357
:1037C0004F4E4E3D25642C25732C25732C25730DEF
:1037D000000000008204002034030020434F4E4EBE
:1037E0004543542D434C4F53450A00000B00002025
:1037F0008203002030000000436F6E6E656374200A
:1038000053756363657373210A000000F8B50546BC
:103810000C4616464FF47A70FEF788FA2046FCF7FD
:1038200024FD1430C7B223462A4620A1254800961D
:1038300002F0B4F93A462349234801F00DF841F269
:103840008831214800F0F2FC20480078C01EC3B245
:103850001E480078C01EC2B21D491A48FEF7E1F9A1
:1038600001221CA11748FDF759F848B10E211AA0F2
:10387000FFF7D6FE4FF4FA60FEF758FA0120F8BDC4
:10388000012219A10F48FDF749F848B10D2117A0F1
:10389000FFF7C6FE4FF4FA60FEF748FA0420EEE7A1
:1038A0004FF4FA60FEF742FA0020E8E73041542B6B
:1038B000514D544F50454E3D25642C25732C2564A5
:1038C0000D00000082040020340300200B000020C3
:1038D00082030020300000004F70656E2053756336
:1038E00063657373210A0000320000004F70656E3B
:1038F000204265666F7265210A00000010B5002045
:103900001949087007E042F2B32218A10020FFF71E
:103910007DFF15490870144800780028F3D0012075
:103920001749087000201049087016A317A21CA19F
:10393000FFF7E8FE0C4908700DE042F2B3220BA13C
:103940000020FFF763FF0FA310A215A10020FFF7CF
:10395000D9FE05490870044800780128EDD10020FF
:1039600001490870012010BD0800002074657374BF
:103970002E6D6F7371756974746F2E6F72670000AE
:10398000110000203138323733390000716E303584
:103990003232383940676D61696C2E636F6D00009B
:1039A0007175616E670000002DE9FF5F06460F46E6
:1039B00090469946DDE90EA44FF4FA60FEF7B6F999
:1039C000092C01DC012508E0092C03DD642C01DA57
:1039D000022502E0642C00DB03255046FCF745FC81
:1039E0001730284400F0FF0B3B4632461EA1264804
:1039F0008DE80007039402F0D1F85A462249234883
:103A000000F02AFFC821214800F010FC22461F4880
:103A1000109900F021FF4FF4FA611C4800F006FCF9
:103A20001B480078C01EC3B219480078C01EC2B23D
:103A300018491548FEF7F5F8012217A11248FCF7BE
:103A40006DFF58B1112115A0FFF7EAFD4FF4FA60A0
:103A5000FEF76CF9012004B0BDE8F09F4FF4FA6066
:103A6000FEF764F90020F6E73041542B514D5450D5
:103A7000554245583D25642C25642C25642C25642D
:103A80002C25732C25640D008204002034030020B3
:103A90000B00002082030020300000005075626C93
:103AA0006973682053756363657373210A000000AE
:103AB000F8B504460D4616464FF47A70FEF736F90F
:103AC0002B4622460EA11648009602F067F81B22EC
:103AD0001349144800F0C0FE4FF4AF71114800F0D4
:103AE000A5FB012805D107210FA0FFF799FD0120B3
:103AF000F8BD08210EA0FFF793FD0020F8E70000B5
:103B00003041542B514D544346473D726563762FE7
:103B10006D6F64652C25642C25642C25640D0000D4
:103B200082040020340300205245535F4F4B0A00AB
:103B30005245535F4552520A0000000010B504463A
:103B40004FF47A70FEF7F2F8224625A12D4802F0D4
:103B500025F821222B492C4800F07EFE4FF4AF714E
:103B6000294800F063FB012805D0072127A0FFF7B3
:103B700057FD002010BD224626A1224802F00EF873
:103B800024222049204800F067FE4FF4AF711E4800
:103B900000F04CFB012805D0072128A0FFF740FDCD
:103BA0000020E7E7224627A1164801F0F7FF25226B
:103BB0001449154800F050FE4FF4AF71124800F060
:103BC00035FB012805D0072128A0FFF729FD00209B
:103BD000D0E7072127A0FFF723FD0020CAE7000058
:103BE0003041542B5153534C4346473D6361636509
:103BF00072742C25642C6361636572742E70656D1C
:103C00000D000000820400203403002043415F4582
:103C100052520A003041542B5153534C4346473DB6
:103C2000636C69656E74636572742C25642C636CB7
:103C300069656E742E70656D0D00000043435F452D
:103C400052520A003041542B5153534C4346473D86
:103C5000636C69656E746B65792C25642C7573656E
:103C6000725F6B65792E70656D0D0000434B5F458B
:103C700052520A005245535F4F4B0A0070B504463A
:103C80000D464FF47A70FEF751F82B4622460EA1EE
:103C9000154801F083FF21221349144800F0DCFD90
:103CA0004FF4AF71114800F0C1FA012805D1072186
:103CB0000FA0FFF7B5FC012070BD08210EA0FFF793
:103CC000AFFC0020F8E700003041542B5153534C17
:103CD0004346473D63697068657273756974652C06
:103CE00025642C25730D000082040020340300207D
:103CF0005245535F4F4B0A005245535F4552520A9B
:103D00000000000070B504460D464FF47A70FEF7CF
:103D10000DF82B4622460EA1164801F03FFF202247
:103D20001449154800F098FD4FF4AF71124800F0A7
:103D30007DFA012805D1072110A0FFF771FC0120B1
:103D400070BD08210FA0FFF76BFC0020F8E7000012
:103D50003041542B5153534C4346473D69676E6F76
:103D600072656C6F63616C74696D652C25642C25BC
:103D7000640D000082040020340300205245535F8C
:103D80004F4B0A005245535F4552520A0000000053
:103D900070B504460D464FF47A70FDF7C7FF2B4609
:103DA00022460EA1144801F0F9FE192212491348C7
:103DB00000F052FD4FF4AF71104800F037FA0128BF
:103DC00005D107210EA0FFF72BFC012070BD0821B3
:103DD0000DA0FFF725FC0020F8E700003041542B30
:103DE0005153534C4346473D7365636C6576656C30
:103DF0002C25642C25640D0082040020340300204F
:103E00005245535F4F4B0A005245535F4552520A89
:103E100000000000F8B504460D4616464FF47A70CF
:103E2000FDF784FF2B4622460EA11548009601F0AF
:103E3000B5FE15221249134800F00EFD4FF4AF7184
:103E4000104800F0F3F9012805D107210EA0FFF773
:103E5000E7FB0120F8BD08210DA0FFF7E1FB0020E2
:103E6000F8E700003041542B514D544346473D7311
:103E7000736C2C25642C25642C25640D0000000037
:103E800082040020340300205245535F4F4B0A0048
:103E90005245535F4552520A0000000070B5044677
:103EA0000D464FF47A70FDF741FF2B4622460EA1D6
:103EB000154801F073FE1B221349144800F0CCFC96
:103EC0004FF4AF71114800F0B1F9012805D1072175
:103ED0000FA0FFF7A5FB012070BD08210EA0FFF782
:103EE0009FFB0020F8E700003041542B5153534C06
:103EF0004346473D73736C76657273696F6E2C250C
:103F0000642C25640D00000082040020340300208E
:103F10005245535F4F4B0A005245535F4552520A78
:103F20000000000070B504460D464FF47A70FDF7AE
:103F3000FDFE2B4622460EA1144801F02FFE17224B
:103F40001249134800F088FC4FF4AF71104800F09C
:103F50006DF9012805D107210EA0FFF761FB0120B3
:103F600070BD08210DA0FFF75BFB0020F8E7000003
:103F70003041542B514D544346473D73657373692B
:103F80006F6E2C25642C25640D0000008204002037
:103F9000340300205245535F4F4B0A005245535F94
:103FA0004552520A0000000000B587B0142102A853
:103FB000FCF744F900BF002001902F48006840F052
:103FC00002002D4908600846006800F002000190D8
:103FD00000BF00BF00BF002001900846006840F00D
:103FE000040008600846006800F00400019000BF6B
:103FF00000BF00BF002001900846006840F00100AB
:1040000008600846006800F00100019000BF00BF92
:10401000012241F238011948FDF7DEFF01224FF479
:1040200060711748FDF7D8FF41F228000290012087
:104030000390002004900320059002A90F48FDF78B
:10404000D5FE4FF460700290012003900020049090
:104050000320059002A90A48FDF7C8FE102002902F
:1040600011200390002004900320059002A903482A
:10407000FDF7BCFE07B000BD30380240000402402E
:104080000008024010B50E480E4908604FF48270D7
:10409000486000210B488160C160016141614FF4BB
:1040A000007181610021C1610162416281620A2166
:1040B000C162FEF701FC08B1FDF72CFD10BD000048
:1040C000003800405002002000B587B00020039067
:1040D00004900590069001900290134813490860DF
:1040E00000204860002111488160C1600161416188
:1040F0008161FEF795FF08B1FDF70CFD4FF480508C
:10410000039003A90948FEF7D9FF08B1FDF702FDA6
:1041100000200190029001A90448FEF733FF08B186
:10412000FDF7F8FC07B000BD00000140A802002028
:1041300010B50B480B4908604FF4E130486000218E
:1041400008488160C16001610C21416100218161E9
:10415000C161FFF77CF908B1FDF7DCFC10BD000080
:1041600000100140F002002000BFFEE700BFFEE7A4
:104170007047000070B504460D46164601220D49F1
:104180002046FFF7BDF80BE0FDF72CFF401BB042C7
:1041900006D9207840F001002070012006490870FF
:1041A000207800F001000028EED0207820F00100F7
:1041B000207070BD090000200C00002070B504467E
:1041C0000D461646204601F041F8012211492046CD
:1041D000FFF796F838B14FF4FA70FDF7A7FD0E21FE
:1041E0000DA0FFF71DFA0BE0FDF7FCFE401BB042EF
:1041F00006D9207840F00100207001200A4908709B
:10420000207800F001000028EED0207820F0010096
:10421000207070BD090000204572726F725F4861A6
:104220006E646C65720A00000C00002070B50546D3
:104230000C46002609E0FDF7D5FE1A490860224623
:10424000084601682846FFF795FF174800780028C0
:10425000F1D0164801781648FFF7E2F9002012491C
:10426000087012490978891F114A8818FCF768FB01
:1042700000B101260E48FCF739FB00B102260B49BC
:10428000097811390A4A8818FCF71AFB00B103268D
:104290000648007807490870002004490870304635
:1042A00070BD0000140000200C0000200A00002057
:1042B000820300200B00002070B505460C46002646
:1042C00009E0FDF78FFE1A4908602246084601689A
:1042D0002846FFF773FF174800780028F1D01648EA
:1042E00001781648FFF79CF900201249087012491E
:1042F0000978891F114A8818FCF722FB00B10126B2
:104300000E48FCF7F3FA00B102260B49097811397F
:104310000A4A8818FCF7D4FA00B103260648007848
:1043200007490870002004490870304670BD00003D
:10433000140000200C0000200A000020820300204E
:104340000B000020F8B504460E4615466068B0F52F
:10435000827F0DD1A068B0F5004F03D0A068B0F502
:10436000806F05D12068006820F040002168086057
:104370006068B0F5827F1FD1A068B0F5806F0DD066
:104380003346002280212046009500F05BF808B3F8
:10439000606D40F0200060650320F8BD33460022C8
:1043A00001212046009500F04DF898B1606D40F075
:1043B000200060650320F0E73346002201212046FB
:1043C000009500F03FF828B1606D40F02000606576
:1043D0000320E2E70020E0E77CB504460D461646E0
:1043E000164800681821B0FBF1F01549B0FBF1F058
:1043F0004FF47A71484301906068B0F5827F0DD127
:104400002B46002280212046009600F01BF898B130
:10441000606D40F02000606503207CBD00BF019806
:1044200000B908E00198401E019020688068C0F340
:10443000C0100028F3D100BF0020EEE7500000209C
:1044400040420F002DE9F84F04460D4690461E46A7
:10445000DDF82890FDF7C6FDA0EB0900371AFDF73F
:10446000C1FD82462C480068C0F3CB3078430090F1
:1044700045E0701C002842D0FDF7B4FDA0EB0A0017
:10448000B84200D2A7BB2068406820F0E000216855
:1044900048606068B0F5827F0DD1A068B0F5004F2C
:1044A00003D0A068B0F5806F05D12068006820F0C7
:1044B000400021680860A06AB0F5005F0DD100BF20
:1044C0002068006820F400502168086020680068B7
:1044D00040F400502168086000BF012084F85100BA
:1044E00000BF002084F8500000BF0320BDE8F88F13
:1044F000FFE7009800B900270098401E0090206850
:1045000080682840A84201D1012000E000204045F9
:10451000AFD10020EAE70000500000207047000003
:1045200010B54FF47A70FDF701FC12220BA1104870
:1045300000F092F94FF4AF710D48FFF777FE0128B4
:1045400005D107210BA0FFF76BF8012010BD082152
:104550000AA0FFF765F80020F8E700003041542B6F
:1045600043504D533D4D452C4D452C4D450D0000C0
:10457000340300205245535F4F4B0A005245535FAE
:104580004552520A0000000010B54FF47A70FDF752
:10459000CDFB0B220BA10E4800F05EF94FF4AF717A
:1045A0000B48FFF743FE012805D1072109A0FFF7BB
:1045B00037F8012010BD082108A0FFF731F80020CE
:1045C000F8E700003041542B434D47463D310D0084
:1045D000340300205245535F4F4B0A005245535F4E
:1045E0004552520A0000000010B54FF47A70FDF7F2
:1045F0009DFB0F220AA10E4800F058F94FF4AF714D
:104600000B48FFF759FE012804D1072109A0FFF745
:1046100007F803E0082109A0FFF702F810BD000029
:1046200041542B4950523D343830303B26570D0011
:10463000340300205245535F4F4B0A005245535FED
:104640004552520A0000000010B5FDF7D1FC10BD24
:1046500000B593B0302107A8FBF7F0FD142102A8A4
:10466000FBF7ECFD00BF002001902548006840F0FA
:104670008050234908600846006800F0805001908F
:1046800000BF00BF00BF002001901E48006820F45A
:10469000404040F400401B4908600846006800F4B0
:1046A0004040019000BF00BF0220079001200A9007
:1046B00010200B9002200D9000210E9108210F91E7
:1046C00054211091022111910421129107A8FDF7A4
:1046D000A5FE08B1FDF71EFA0F20029002200390FC
:1046E000002004904FF48050059000200690022195
:1046F00002A8FDF753FD08B1FDF70CFA13B000BD99
:1047000040380240007000400348006840F47000E8
:10471000014908607047000088ED00E010B50268AC
:10472000204B98420BD0B0F1804F08D01E4B9842DE
:1047300005D01E4B984202D01D4B984203D122F067
:1047400070024B681A43174B984214D0B0F1804F57
:1047500011D0154B98420ED0144B98420BD0144BED
:10476000984208D0134B984205D0134B984202D080
:10477000124B984203D122F44072CB681A4322F0C4
:1047800080034C6943EA040202608B68C3620B68D1
:104790008362044B984201D10B6903630123436197
:1047A00010BD00000000014000040040000800406F
:1047B000000C00400040014000440140004801401E
:1047C00030B501F01F05012404FA05F3046A9C4387
:1047D0000462046A01F01F0502FA05F52C43046225
:1047E00030BD30B50C46816821F47F4142EA032593
:1047F00025432943816030BD0A46816821F070015C
:1048000042F0070319438160704730B50B461446E8
:10481000026A056A25F001050562816921F0F0014F
:1048200041EA041122F00A021A438161026230BD9A
:1048300030B50B461446056A25F0100505628169FE
:10484000026A21F4704141EA043122F0A00242EAF6
:1048500003128161026230BD70B504460D461646F2
:10486000204600F0F3FC0A20FDF760FA204600F035
:10487000EDFC0A20FDF75AFA324629462046FEF79B
:104880008DFD18B10E2105A0FEF7CAFE00BF2078ED
:10489000C0F340000028FAD070BD00004572726F6E
:1048A000725F48616E646C65720A000070B5044600
:1048B0000D461646204600F0DFFC0A20FDF736FACA
:1048C000204600F0D9FC0A20FDF730FA324629468E
:1048D0002046FEF763FD18B10E2105A0FEF7A0FEED
:1048E00000BF2078C0F340000028FAD070BD00005F
:1048F0004572726F725F48616E646C65720A000087
:1049000010B504460B480068007840F004000949DF
:10491000096808700748006890F82D0040F0010011
:104920000449096881F82D0002480068FEF74AFC36
:1049300010BD00000000002070B5064600240025D0
:104940002B480068408C2A490968098C88424EDD52
:1049500028480068006820F00100264909680860BE
:1049600025480068C06820F4806023490968C86051
:104970001F490968488C00EBD0714910A0EB410138
:1049800009B91E4C00E01E4CEAB2214618480068E6
:1049900000F0B2F816490968CA6915490968498CD6
:1049A000891E505412480068007840F001001049F8
:1049B0000968087000200E49096848840C49096894
:1049C00081F82D000A48006890F82C00102805D1C5
:1049D00004200749096881F82C0004E001200449FB
:1049E000096881F82C0002480068FEF7C5FC70BD1C
:1049F00000000020C80000202801002070010020D5
:104A0000A001002070B50546002436480068408BA0
:104A1000401C34490968488332480068408B31495A
:104A20000968098B88421CDC2E48006800F06EFA89
:104A30002C490968488B00EBD0714910A0EB41016B
:104A400009B1294C00E0294C264800684069254AF4
:104A50001268528B815C22462248006800F0F6F909
:104A60003EE02348406A0068006820F010012048BA
:104A7000406A006801601B480068007840F002004E
:104A80001849096808701B480068006820F0010098
:104A900018490968086016480068C06820F400706A
:104AA00013490968C86000200E49096848830D4908
:104AB000096881F82D000B48006890F82C00102838
:104AC00005D108200749096881F82C0004E001207D
:104AD0000449096881F82C0002480068FEF7B6FC1A
:104AE00070BD00000000002000020020D001002066
:104AF00028010020680000202DE9F04704460D46FB
:104B000017460026B046B246B146A07B18B1207BBE
:104B1000A0F1010801E094F80C80207B401C55F8BE
:104B20002000218A0840884219D031480068007866
:104B300040F004002E490968087094F82D0040F0F8
:104B4000010084F82D002B48006820F00800294956
:104B500008602046FEF736FB4FF0000A44E00026CE
:104B60000DE0701C55F82000218A0840884205D1CC
:104B70000120B0403843C7B209F10109761C46450F
:104B8000EFD3A07B022811D109F0010070B908F120
:104B9000010055F82000218A0840884206D020787C
:104BA00040F0080020702046FEF70CFBA07B012897
:104BB00017D109F00100A0B108F1010055F820005B
:104BC000218A084088420CD0207840F008002070EC
:104BD00094F82D0040F0040084F82D002046FEF7E4
:104BE000F1FA4FF00009BA460AF0FF00BDE8F0877D
:104BF00000000020003C0140F0B500230025002407
:104C00000022274EF26A0D46466A06F11003077B22
:104C1000467B3E44741C234E3668366846F01006C8
:104C2000204F3F683E601F4E3668366846F00406E7
:104C30001C4F3F683E601B4E36687460194E3668E4
:104C4000B360184E3668F560164E3668366846F022
:104C50000106144F3F683E60134E3668768C012E75
:104C600003D090F82C60102E09D00D4E766A06EB1A
:104C70005206B6FBF2F702FB1766094FBE630B4EF6
:104C80003668F66846F48066084F3F68FE60074E57
:104C90003668366846F00106044F3F683E60F0BD56
:104CA00000000140C8000020000000202801002072
:104CB0002DE9F04104460025FDF758FB0646FDF7B7
:104CC00045FBB6FBF0F0012801D1012600E00026EB
:104CD000FDF74CFB0746FDF739FBB7FBF0F0022868
:104CE00001D1012000E00020064336B1FDF73EFB74
:104CF000A168B0FBF1F0451E06E0FDF727FB41007F
:104D0000A068B1FBF0F0451E0F4810490860084646
:104D1000C5600020486000210C4801618160FEF7F9
:104D20007FF92079022802D100F04AF809E02079C1
:104D3000012802D100F00CF803E000F041F800F087
:104D400007F8BDE8F08100000000014028010020C4
:104D500010B54FF040601749486000211548816048
:104D6000C1604FF480610161890041618900816106
:104D70000021C1614FF440310162002141620321F1
:104D800081620021C16201630B480A49086000BFCB
:104D90000A488162886300BF0146886AFCF750FFB9
:104DA000012200213A20FDF7A7F93A20FDF794F9F6
:104DB00010BD0000C800002040640240280100200F
:104DC00010B51E4A1268518A1C4A1268906A012264
:104DD000FDF702F94FF0406019494860402118483A
:104DE00081600021C1604FF48061016189004161EF
:104DF000890081610021C1614FF4403101620021CD
:104E00004162032181620021C16201630D480C49A6
:104E100008600D48406A886300BF0B4841628863A0
:104E200000BF0146486AFCF70BFF032211463920F8
:104E3000FDF762F93920FDF74FF910BD00000020A1
:104E4000680000202864024028010020F0B50446D4
:104E50000D460021002000230026237B608AA77BCB
:104E60009FB900BF0EE045FA01F707F001071FB137
:104E70004F1C42F8270004E04FEA004C4F1C42F858
:104E800027C0491C9942EED314E000210FE045FAF7
:104E900001F707F0010727B14F1C42F82700761CE5
:104EA00004E04FEA004C4F1C42F827C0491C5F1E2B
:104EB0008F42ECD8A77B012F0BD0022F13D106F025
:104EC000010717B942F8230002E0070442F82370F3
:104ED0000AE006F001071FB9070442F8237001E059
:104EE00042F8230000E000BF00BF07041760677BA3
:104EF000012F03D15F1C42F8270005E05F1C42F838
:104F000027009F1C42F827000026F0BD30B5002284
:104F100000230024224D2D68698B01EBD1756D10A3
:104F2000A1EB45050DB11F4A00E01F4A816A01F15E
:104F30001803057B417B29444C1C1C4909684C60C3
:104F40001A4909688B6019490968CA6017490968D4
:104F5000096841F01001154D2D6829601349096851
:104F6000096841F00401114D2D6829600F49096855
:104F7000096841F001010D4D2D6829600C4909684F
:104F8000C96841F400710A4D2D68E9600849096853
:104F9000096841F00101064D2D68296030BD00000F
:104FA00000000020D0010020000200206800002046
:104FB000280100202DE9F84F04462068006920F4FC
:104FC0004050E1680843216808612169A0680843EE
:104FD00061690843E169084300902068C06849F2AC
:104FE0000C618843009908432168C86020684069C3
:104FF00020F44070A169084321684861764920681F
:10500000884203D075492068884203D1FDF79EF994
:10501000814602E0FDF78AF98146E069B0F5004F6C
:105020006CD102206168A0FB015003461920A9FB46
:10503000007001462A463846FBF7C8F86421B0FBE9
:10504000F1F04FEA001A02206168A0FB01510B4603
:105050001920A9FB00712A463846FBF7B7F88346AA
:1050600002206168A0FB015003461920A9FB0071D2
:105070002A463846FBF7AAF86421B0FBF1F000EBB2
:10508000C00101EB0010ABEB8000322101EBC0004E
:105090006421B0FBF1F000F0F8000AEB400A0220B6
:1050A0006168A0FB015003461920A9FB007001466E
:1050B0002A463846FBF78AF8834602206168A0FB3F
:1050C000015003461920A9FB00712A463846FBF718
:1050D0007DF86421B0FBF1F000EBC00101EB0010A2
:1050E000ABEB8000322101EBC0006421B0FBF1F09A
:1050F00000F007005044216888606AE0042061687D
:10510000A0FB015003461920A9FB007001462A4666
:105110003846FBF75BF8824604206168A0FB01502B
:1051200003461920A9FB007001462A463846FBF7C2
:105130004DF86421B0FBF1F000EBC00101EB001071
:10514000AAEB8000322101EB00106421B0FBF1F0EA
:1051500000F0F00A04206168A0FB017003461920EA
:10516000A9FB00513A462846FBF730F86421B0FB12
:10517000F1F00AEB001A04206168A0FB01510B4614
:105180001920A9FB00712A463846FBF71FF8834611
:1051900004206168A0FB015003461920A9FB0070A0
:1051A00001462A463846FBF711F86421B0FBF1F0BE
:1051B00000EBC00101EB0010ABEB8000322101EBF2
:1051C00000106421B0FBF1F000F00F0050442168A2
:1051D0008860BDE8F88F0000001001400014014015
:1051E0002DE9F04104460D4617469846069E21E0FB
:1051F000701CF8B12EB1FCF7F5FEA0EB0800B04230
:1052000018D92068C06820F4D0702168C860206870
:10521000406920F0010021684861202084F83D00A9
:1052200084F83E0000BF002084F83C0000BF03204B
:10523000BDE8F081206800682840A84201D1012023
:1052400000E00020B842D3D00020F1E710B50446BA
:10525000032020714FF49651A16001216173002158
:10526000A173082121732046FDF7B8FF18B14FF450
:10527000FA70FCF75BFD10BD10B5044603202071E9
:105280004FF4E131A160012161730021A173082174
:1052900021732046FDF7A2FF18B14FF4FA70FCF716
:1052A00045FD10BD00BFFEE710B500224FF4805150
:1052B0000748FCF791FE062000F01CFA01221103BA
:1052C0000348FCF789FE0120FCF730FD10BD00000B
:1052D0000004024010B500BF1148407E0128FBD0F9
:1052E00001200F494876FFF7DFFF00224FF480517D
:1052F0000C48FCF771FEC72000F0FCF901221103F5
:105300000848FCF769FE00F007FA152106A0FEF731
:1053100087F90A20FCF70AFD00200149487610BDF4
:10532000300200200004024045726173652063680A
:105330006970207375636365737321210A0000002F
:1053400070B50546002400BF1A48407E0128FBD0F6
:1053500001201849487600F0DFF91648808900FBE3
:1053600005F4FFF7A1FF00224FF480511248FCF72B
:1053700033FE202000F0BEF9C4F3074000F0BAF974
:10538000C4F3072000F0B6F9E0B200F0B3F901224F
:1053900011030948FCF720FE00F0BEF9172107A011
:1053A000FEF73EF90120FCF7C1FC002001494876D8
:1053B00070BD00003002002000040240457261739D
:1053C0006520736563746F722073756363657373AF
:1053D00021210A0000B585B001203249487601221A
:1053E00001033148FCF7F8FD20202E498882000196
:1053F000C8810001488140110881000188810001B5
:10540000086100F04FF9012000F014F9022000F0CB
:1054100011F9032000F00EF90C2124A0FEF700F989
:105420002048828A24A1684600F0B8FB0F21684614
:10543000FEF7F6F81B48C28923A1684600F0AEFBD0
:1054400010216846FEF7ECF81648428922A168460A
:1054500000F0A4FB0F216846FEF7E2F8114802892C
:1054600021A1684600F09AFB0F216846FEF7D8F8A4
:105470000C48828920A1684600F090FB1221684602
:10548000FEF7CEF8074821A10269684600F086FBC6
:1054900012216846FEF7C4F8002002494876012030
:1054A00005B000BD3002002000040240496E69745E
:1054B00069616C697A650A004E756D426C6F636B49
:1054C000203D2025640A00004E756D536563746F9E
:1054D00072203D2025640A004E756D50616765207D
:1054E0003D2025640A00000053697A6550616765B4
:1054F000203D2025640A000053697A655365637472
:105500006F72203D2025640A0000000053697A650F
:10551000426C6F636B203D2025640A0030B585B076
:1055200005460C4600BF1D48407E0128FBD00120E7
:105530001A49487600F0F0F800224FF480511848DC
:10554000FCF74AFD0B2000F0D5F8C4F3074000F04B
:10555000D1F8C4F3072000F0CDF8E0B200F0CAF8AB
:10556000A52000F0C7F86423012229460D48FDF765
:105570004BFA012211030A48FCF72EFD00F0CCF88B
:105580002A7809A1684600F009FB0F216846FEF75A
:1055900047F800200149487605B030BD30020020B0
:1055A00000040240500200205265616420612062C4
:1055B00079746520253032780A00000070B5054600
:1055C0000C46164600BF1848407E0128FBD001203B
:1055D0001549487600F0A0F800224FF48051134896
:1055E000FCF7FAFC0B2000F085F8C4F3074000F04C
:1055F00081F8C4F3072000F07DF8E0B200F07AF8FB
:10560000002000F077F8B2B24FF47A7329460848C8
:10561000FDF7FAF9012211030448FCF7DDFC002034
:105620000149487670BD00003002002000040240AD
:105630005002002070B50546002400224FF480512E
:105640001648FCF7C9FC012D02D0022D14D109E047
:10565000052000F04FF8A52000F04CF80446104853
:10566000847513E0352000F045F8A52000F042F8DD
:1056700004460B48C47509E0152000F03BF8A5204E
:1056800000F038F804460648047600BF00BF012247
:1056900011030248FCF7A0FC204670BD0004024044
:1056A0003002002010B500224FF480510F48FCF763
:1056B00093FC4B2000F01EF8002404E0A52000F02D
:1056C00019F8601CC4B2042CF8DB002406E0A52005
:1056D00000F010F806490855601CC4B2082CF6DB2F
:1056E000012211030148FCF777FC10BD00040240C1
:1056F0003002002001B582B0002001906420012317
:1057000001AA02A900900348FDF70DFB9DF80400D3
:105710000EBD00005002002010B50120FCF706FB72
:1057200000224FF480510D48FCF756FC0520FFF78E
:10573000E1FF00BFA520FFF7DDFF094988750120C3
:10574000FCF7F4FA0648807D00F001000028F1D152
:10575000012211030148FCF73FFC10BD0004024088
:105760003002002070B505460C4600BF1848407E48
:105770000128FBD0012016494876FFF7CDFFFFF73F
:1057800093FD00224FF480511248FCF725FC0220C3
:10579000FFF7B0FFC4F30740FFF7ACFFC4F30720E7
:1057A000FFF7A8FFE0B2FFF7A5FF2846FFF7A2FF2B
:1057B000012211030748FCF70FFCFFF7ADFF15218D
:1057C00005A0FDF72DFF00200149487670BD0000BF
:1057D0003002002000040240577269746520612085
:1057E0006279746520535543434553530A000000C2
:1057F0002DE9F0410746884614461D46002600BFA5
:105800002048407E0128FBD001201E4948762819F7
:105810000989884203DD1B480089001B85B2FFF718
:105820007BFF1848008908FB0046FFF73DFD00227A
:105830004FF480511448FCF7CFFB0220FFF75AFFCA
:10584000C6F30740FFF756FFC6F30720FFF752FFE6
:10585000F0B2FFF74FFF64232A4639460B48FDF7A5
:105860008BF9012211030848FCF7B6FBFFF754FF40
:10587000152107A0FDF7D4FE002002494876BDE8B7
:10588000F08100003002002000040240500200209D
:1058900057726974652070616765205355434345AD
:1058A00053530A003EB50020FFF74AFD9A4890ED99
:1058B000000B9A4880ED000B994890ED000B97483B
:1058C00080ED020B97480078944908749648007858
:1058D000487496480078887495480078C87495484C
:1058E000007808759448007848750B2193A0FDF75F
:1058F00097FE002005E08949095C934A1154411C38
:10590000C8B20828F7DB082008E0A0F10801834AA4
:105910000832515C8C4A1154411CC8B21028F4DB87
:105920007E48007C884908747C48407C48747B48E9
:10593000807C88747948C07CC8747848007D08757C
:105940007648407D48751623002211467E48FFF7B1
:105950004FFF4FF4FA70FCF7E9F90D217BA0FDF73A
:105960005FFE162200217D48FFF728FE4FF4FA70F3
:10597000FCF7DCF99FED7A0B684880ED000B9FED9A
:10598000780B80ED020B0020644908744874887419
:10599000C874087548753C217348FAF74FFC1E21FE
:1059A0007248FAF74BFC002005E06C49095C5B4A41
:1059B0001154411CC8B20828F7DB584890ED001B71
:1059C000B0EE410AF0EE610A53EC102B68A1674873
:1059D00000F0E4F865496448FAF73BFC65A16248C9
:1059E000FAF737FC1E216148FAF728FC002008E08E
:1059F0005A4A00F10801525C484908310A54411CD6
:105A0000C8B20828F4DB454890ED021BB0EE410A0D
:105A1000F0EE610A53EC102B55A1544800F0BEF88B
:105A200052495148FAF715FC52A14F48FAF711FCB8
:105A30005148002101804948007C384908740846D3
:105A4000017C4D48FAF78CFF4B494748FAF701FCB7
:105A50004948002101804148407C3049487408464B
:105A6000417C4548FAF77CFF43493F48FAF7F1FB90
:105A70004148002101803948807C284988740846C3
:105A8000817C3D48FAF76CFF3B493748FAF7E1FB68
:105A900038A13548FAF7DDFB3848002101802F484E
:105AA000C07C1E49C8740846C17C3448FAF758FFC8
:105AB00032492D48FAF7CDFB3048002101802748B4
:105AC000007D164908750846017D2C48FAF748FF05
:105AD0002A492548FAF7BDFB2848002101801F48C4
